:020000022000DC
:1070000000000420450E06006D0E060031F8030056
:10701000710E0600730E0600750E060000000000DB
:10702000000000000000000000000000770E0600D5
:10703000790E0600000000007B0E06007D0E0600A3
:107040009D2105007F0E0600CDE604008119050094
:10705000610F05007F0E0600D1E50400C5EC0400B9
:107060007F0E060009020500250205007F0E0600BE
:107070007F0E0600CD1305007F0E06007F0E060072
:1070800039E80400DD3105007F0E06007F0E0600A2
:107090007F0E06007F0E0600F9A0050059AC060021
:1070A0007F0E06007F0E0600410205005D0205000E
:1070B0007F0E06007F0E06000000000000000000AA
:1070C0007F0E06007F0E06007F0E06007F0E060074
:1070D00071BF06007F0E06007F0E06007F0E0600C1
:1070E0007F0E06007F0E0600DD2607000000000070
:1070F000000000007F0E0600000000007F0E06006A
:10710000000000000000000000000000000000007F
:10711000000000000000000000000000000000006F
:10712000000000000000000000000000000000005F
:10713000000000000000000000000000000000004F
:10714000000000000000000000000000000000003F
:10715000000000000000000000000000000000002F
:10716000000000000000000000000000000000001F
:10717000000000000000000000000000000000000F
:1071800000000000000000000000000000000000FF
:1071900000000000000000000000000000000000EF
:1071A00000000000000000000000000000000000DF
:1071B00000000000000000000000000000000000CF
:1071C00000000000000000000000000000000000BF
:1071D00000000000000000000000000000000000AF
:1071E000000000000000000000000000000000009F
:1071F000000000000000000000000000000000008F
:1072000010B5054C237833B9044B13B10448AFF3E0
:1072100000800123237010BD403B002000000000CF
:10722000082F080008B5034B1BB103490348AFF30F
:10723000008008BD00000000443B0020082F08002B
:10724000154B002B08BF134B9D46A3F5803A002138
:107250008B460F461348144A121A4CF05FFB0F4B33
:10726000002B00D098470E4B002B00D098470020F1
:10727000002104000D000D48002802D00C484DF0FC
:10728000B5FD4BF0FFFD2000290005F039F84BF06B
:10729000E9FD00BF0000080000000420000000001D
:1072A00000000000403B002050DE0020ED4D0700B4
:1072B000F94D070080B582B000AF78607B681B880D
:1072C000522B00F0D480522B00F30581102B03D0F9
:1072D000112B00F08E80FEE0824A834BD31ADB082C
:1072E0001B0443F005038149184631F07BFD00BFC4
:1072F00031F02EFE0346002BFAD17A4A7A4BD31A8C
:10730000DB081B0443F005037949184631F06AFD98
:1073100000BF31F01DFE0346002BFAD1714A724BBB
:10732000D31ADB081B0443F005037049184631F0FB
:1073300059FD00BF31F00CFE0346002BFAD16D4B16
:1073400005225A716B4B02225A706A4B01221A7045
:10735000684B02229A700AF03BFE00F00FF9664B70
:107360001B7883F00103DBB2002B00F0B680634B87
:107370001B6840F6B832934200F2AF805F4B40F694
:10738000B8321A605C4B01221A70564A564BD31A17
:10739000DB081B0443F005035449184631F022FD75
:1073A00000BF31F0D5FD0346002BFAD14D4A4E4BBC
:1073B000D31ADB081B0443F005035149184631F08A
:1073C00011FD00BF31F0C4FD0346002BFAD1454A40
:1073D000454BD31ADB081B0443F005034349184609
:1073E00031F000FD00BF31F0B3FD0346002BFAD1B0
:1073F00073E03C4A3C4BD31ADB081B0443F0050303
:107400003A49184631F0EEFC00BF31F0A1FD0346C9
:10741000002BFAD1334A344BD31ADB081B0443F058
:1074200005033849184631F0DDFC00BF31F090FD0E
:107430000346002BFAD12B4A2B4BD31ADB081B0433
:1074400043F005032949184631F0CCFC00BF31F068
:107450007FFD0346002BFAD1264B00225A71254BA3
:1074600000225A700AF0B4FD00F0C4F836E01D4A5C
:107470001D4BD31ADB081B0443F005031B491846B8
:1074800031F0B0FC00BF31F063FD0346002BFAD1B0
:10749000144A154BD31ADB081B0443F005031A49A1
:1074A000184631F09FFC00BF31F052FD0346002B1F
:1074B000FAD10C4A0C4BD31ADB081B0443F005032A
:1074C0000A49184631F08EFC00BF31F041FD0346F9
:1074D000002BFAD102E000BF00E000BF00BF083778
:1074E000BD4680BD702F0800102F0800CC73070028
:1074F00004740700E8B50020893B0020B044002058
:1075000010740700247407003474070080B582B03B
:1075100000AF7860134B1B68FA33124A1360114BAB
:107520001B6842F21072934218D90F4B5B78DBB2A2
:10753000022B13D10D4A0E4BD31ADB081B0443F068
:1075400005030C49184631F04DFC00BF31F000FD39
:107550000346002BFAD1084B01221A7000BF0837EE
:10756000BD4680BD843B0020E8B50020702F080098
:10757000102F080058740700883B002080B584B0A5
:1075800000AF174B00221A60164A012116482BF053
:107590006BF9F860FB68002B0CD0FB68082B09D056
:1075A000FB68BB60BB68002B04D0104A7A21B86826
:1075B0002AF04AFE0E4B00224FF4005118462BF0E1
:1075C00085F9F860FB687B607B68002B04D0074A74
:1075D000802178682AF038FE00BF1037BD4680BD94
:1075E000843B00200D750200C87307007474070007
:1075F000603B002080B500AF0C4B18462BF09EF985
:107600000B4A0C4BD31ADB081B0443F005030A4A50
:1076100012680A49184631F0F4FB00BF31F098FCBB
:107620000346002BFAD100BF00BF80BD603B0020A5
:10763000702F0800102F0800843B00208C74070076
:1076400080B582B000AF0023BB71BB1D18462BF084
:10765000F3FE064B5B78FB71BB7918462BF002FFFB
:10766000FB7918460837BD4680BD00BFE8B500204D
:1076700080B582B000AF164A164BD31ADB081B0444
:1076800043F00503144A1549184631F0BAFB00BF10
:1076900031F05EFC0346002BFAD100BF31F058FCFC
:1076A0000346002BFAD10023FB71FB1D18462BF07B
:1076B000C3FE0B4B01225A70FB7918462BF0D2FE09
:1076C00015F0ECFEFFF796FF00BF0837BD4680BD02
:1076D000702F0800102F0800B0740700A87407006E
:1076E000E8B5002080B582B000AF00237B6001F0D8
:1076F000BFFA78607B68002B01D07B6808E001F05E
:107700003FFB78607B68002B01D07B6800E07B68E2
:1077100018460837BD4680BD80B500AF054B1B78C5
:10772000002B04D0034B00221A70FFF7A1FF00BF0B
:1077300080BD00BF883B002080B500AFFFF7ECFFA5
:107740000AF04CF8014B5B7800BF80BDE8B5002023
:1077500080B500AF01F0A8FB0346184680BD0000CD
:1077600080B582B000AF00237B60FFF7E5FF1A4BC6
:107770001B7883F00103DBB2002B01D07B6827E08C
:10778000164B1B78022B03D0144B1B78032B01D113
:1077900000231DE0FFF7A6FF78607B68102B03D164
:1077A0000F4B01221A7006E07B68622B03D113F0A5
:1077B000B5FB64230CE00A4B1B78012B07D17B68D7
:1077C0001A2B04D1064B00221A7013F0A7FB7B681A
:1077D00018460837BD4680BDA0B6002098BB0020E3
:1077E000803B002080B500AF024815F023FF00BFAA
:1077F00080BD00BFB572020080B500AF084B00220B
:107800001A70084B00221A70074B00221A7009F0F8
:10781000C7FF01F050FB0AF0E1FB00BF80BD00BFD5
:1078200098BB0020E8B50020893B002080B500AF60
:1078300009F0CEFF01F046FB0AF0CAFB00BF80BD95
:1078400080B584B000AF78607B68002B0AD0074B0E
:1078500043F00103FB607B689B01BB60FB68B86879
:10786000984700E000BF1037BD4680BD4077070055
:1078700080B582B000AF78607B68002B0AD04FF4EF
:107880007A70FFF7DDFF7B68013B7B607B68002B34
:10789000F5D100E000BF0837BD4680BD80B582B09D
:1078A00000AF78607B681B88572B0AD0572B24DCED
:1078B000502B1AD0502B20DC102B0FD0112B11D0B5
:1078C0001BE0114BB3F80432002B18D00E4B1B7881
:1078D000022B14D10C4B01225A7010E00B4B0022EA
:1078E0001A700DE001F0B2FA0AE0084B1B78DBB227
:1078F0000133DAB2054B1A7002E000BF00E000BFAE
:1079000000BF0837BD4680BDE03F00208A3B002015
:1079100080B584B000AF03463960FB71FB799BB240
:107920003968184615F016FEF860FB799AB2044BD8
:10793000A3F80A22FB6818461037BD4680BD00BF79
:10794000E03F002080B588B000AF78600B467B80B8
:10795000734A744BD31ADB081B0443F00503724AC5
:107960007249184631F04DFA00BF31F0F1FA034682
:10797000002BFAD100BF31F0EBFA0346002BFAD10D
:107980000023FB830023BB61BFE07A88FB8BD31A03
:10799000142BA8BF1423FB74FB7C98B2FB8B7A6872
:1079A0001344194615F0D6FDF860FB6843F2040253
:1079B000934200F09D80FB68132B00F09980FB68D8
:1079C000052B02D0FB68082B12D1554A554BD31A10
:1079D000DB081B0443F005035549184631F002FA51
:1079E00000BF31F0B5FA0346002BFAD1002392E034
:1079F000FB68002B61D14A4A4A4BD31ADB081B04AF
:107A000043F005004B4AFB7C4B4931F00DFA00BFB7
:107A100031F09EFA0346002BFAD100237B612BE064
:107A20003F4A404BD31ADB081B0443F00500FA8B96
:107A30007B6913447A6813441B781A463F4931F036
:107A4000E0F900BF31F084FA0346002BFAD17969DE
:107A50003B4BA3FB01231A0913461B019B1A5B0036
:107A6000CA1A002A05D100BF31F072FA0346002B72
:107A7000FAD17B6901337B61FB7C7A699A42CFD36F
:107A8000274A284BD31ADB081B0443F005032D4972
:107A9000184631F0A7F900BF31F05AFA0346002B1F
:107AA000FAD100BF31F054FA0346002BFAD1FB7C27
:107AB0009AB2FB8B1344FB831AE0194A194BD31A71
:107AC000DB081B0443F005031F49184631F08AF90F
:107AD00000BF31F03DFA0346002BFAD1FB68BB60D2
:107AE000BB68002B04D0194AE721B8682AF0ACFB28
:107AF0000A20FFF7BDFEBB690A33BB61BB6942F2D6
:107B00001072934201D9002305E07A88FB8B9A42D8
:107B10007FF43BAF012318462037BD4680BD00BF30
:107B2000702F0800102F080020770700BC74070092
:107B3000C4740700D0740700D4740700E47407000D
:107B400089888888EC740700F0740700FC740700CB
:107B500080B58EB000AF78600B467B80A94AAA4BF7
:107B6000D31ADB081B0443F00503A84AA8491846AA
:107B700031F047F900BF31F0EBF90346002BFAD1A1
:107B800000BF31F0E5F90346002BFAD1FFF758FDAD
:107B90000346022B11D09B4A9B4BD31ADB081B04D4
:107BA00043F005039B49184631F01CF900BF31F042
:107BB000CFF90346002BFAD101E2974B0022A3F83C
:107BC0000422954B0022A3F806227B88934AA2FB4D
:107BD00003231B093B86904A7B88A2F802328E4B16
:107BE00002221A70874A884BD31ADB081B0443F021
:107BF00005038B49184631F0F5F800BF31F0A8F9BC
:107C00000346002BFAD17F4A7F4BD31ADB081B04B3
:107C100043F00500834A7B88834931F005F900BFB2
:107C200031F096F90346002BFAD100237B6347E03D
:107C3000744A754BD31ADB081B0443F005007A68BD
:107C40007B6B13441B781A46784931F0DAF800BF91
:107C500031F07EF90346002BFAD17B6B591C6F4B38
:107C6000A3FB01231A0913469B0013449B00CA1A65
:107C7000002A10D1634A644BD31ADB081B0443F07B
:107C800005036B49184631F0ADF800BF31F060F9DB
:107C90000346002BFAD1796B664BA3FB01231A092B
:107CA00013461B019B1A5B00CA1A002A05D100BFAC
:107CB00031F04EF90346002BFAD17B6B01337B6325
:107CC0007B887A6B9A42B3D34E4A4F4BD31ADB0868
:107CD0001B0443F005035849184631F083F800BFF0
:107CE00031F036F90346002BFAD100BF31F030F9FC
:107CF0000346002BFAD1434A434BD31ADB081B043B
:107D000043F005034649184631F06CF800BF31F0E6
:107D10001FF90346002BFAD100237B86A2E07A8E5E
:107D200013469B0013449B007B627A687B6AD118E0
:107D300007F10803142218464BF0EAFC07F1080388
:107D400019461420FFF7E4FDF862FB6A43F20402CF
:107D5000934202D0FB6A132B22D17A887B6AD31A12
:107D6000FB617A687B6A1344FA69194633484BF021
:107D7000CFFCFB699AB2284BA3F80422214A224B7C
:107D8000D31ADB081B0443F005032D49184631F0D4
:107D900029F800BF31F0DCF80346002BFAD10EE1E0
:107DA000FB6A002B1CD11C4BB3F806221A4BB3F80C
:107DB0000A3213449AB2184BA3F80622114A124B06
:107DC000D31ADB081B0443F005031E49184631F0A3
:107DD00009F800BF31F0BCF80346002BFAD13EE0B1
:107DE000FB6A082B3BD0FB6A052B2DD10A4B0022E6
:107DF000A3F80422084B0022A3F80822064B012214
:107E00001A70DCE0702F0800102F08004877070078
:107E1000BC7407001C750700E03F0020CDCCCCCC23
:107E2000507507008875070090750700E474070017
:107E3000A075070089888888EC740700E23F00205D
:107E4000A4750700B0750700FB6A3B623B6A002B14
:107E500005D05C4A40F23311386A2AF0F5F97B8E7E
:107E600001337B867A8E3B8E9A42FFF458AF7A8834
:107E7000554BA3FB021319090B469B000B449B00B7
:107E8000D31A9BB2002B00F09A807A884E4BA3FB4A
:107E9000021319090B469B000B449B00D31A9AB29C
:107EA0004A4BA3F808223A8E13469B0013449B00CA
:107EB0001A467B689918454BB3F808321A4607F101
:107EC000080318464BF024FC404BB3F80832DBB2F1
:107ED00007F1080211461846FFF71AFDF862FB6A1F
:107EE00043F20402934202D0FB6A132B2AD1374B90
:107EF000B3F804321A46364B1344344AB2F80A2215
:107F000007F1080118464BF003FC304BB3F804228C
:107F10002E4BB3F80A3213449AB22C4BA3F8042226
:107F20002C4A2D4BD31ADB081B0443F005032B49C5
:107F3000184630F057FF00BF31F00AF80346002B17
:107F4000FAD13CE0FB6A002B1CD1204BB3F806228F
:107F50001E4BB3F80A3213449AB21C4BA3F8062204
:107F60001C4A1D4BD31ADB081B0443F005031C49B4
:107F7000184630F037FF00BF30F0EAFF0346002B11
:107F8000FAD11CE0FB6A082B19D0FB6A052B0BD138
:107F90000E4B0022A3F804220C4B0022A3F8082267
:107FA0000A4B01221A700AE0FB6ABB62BB6A002B13
:107FB00005D0044A4FF4A871B86A2AF045F9383759
:107FC000BD4680BDFC740700CDCCCCCCE03F00208A
:107FD000E23F0020702F0800102F0800B87507003E
:107FE000C475070080B586B000AF78600B467B8013
:107FF000BE4BB3F83E349AB27B8813447B81BC4AB3
:10800000BC4BD31ADB081B0443F00503BA491846DE
:1080100030F0E8FE00BF30F09BFF0346002BFAD1A2
:10802000B34AB44BD31ADB081B0443F00500B34A30
:108030007B88B34930F0F8FE00BF30F089FF03467B
:10804000002BFAD100237B6129E0A94AA94BD31A5E
:10805000DB081B0443F005007A687B6913441B7836
:108060001A46A84930F0CDFE00BF30F071FF03463C
:10807000002BFAD17969A44BA3FB01231A091346FB
:108080001B019B1A5B00CA1A002A05D100BF30F001
:108090005FFF0346002BFAD17B6901337B617B884C
:1080A0007A699A42D1D3924A924BD31ADB081B04C5
:1080B00043F005039549184630F094FE00BF30F0B8
:1080C00047FF0346002BFAD100BF30F041FF0346C3
:1080D000002BFAD17B89B3F5007FC0F02381834B5D
:1080E000B3F83E349BB2DBB25B427B727F4BB3F89A
:1080F0003E349BB21A467D4B13447A7A796818460F
:108100004BF006FB7B7A7A68D1187A887B7AD31A8F
:108110001A4676484BF0FCFA7B7A9BB27A88D31ADF
:108120009AB2724BA3F83E24714A724BD31ADB0801
:108130001B0443F005036D4AB2F83E2492B2744921
:10814000184630F05EFE00BF30F002FF0346002B01
:10815000FAD1674A674BD31ADB081B0443F00503C7
:108160007A7A6C49184630F04CFE00BF30F0F0FED1
:108170000346002BFAD15E4A5E4BD31ADB081B0480
:1081800043F00503644A6549184630F03AFE00BFE3
:1081900030F0DEFE0346002BFAD100233B6129E0DC
:1081A000534A544BD31ADB081B0443F005007A688A
:1081B0003B6913441B781A46524930F022FE00BF37
:1081C00030F0C6FE0346002BFAD139694E4BA3FBB3
:1081D00001231A0913461B019B1A5B00CA1A002AC5
:1081E00005D100BF30F0B4FE0346002BFAD13B6945
:1081F00001333B617B7A3A699A42D1D33C4A3D4B89
:10820000D31ADB081B0443F005034049184630F03D
:10821000E9FD00BF30F09CFE0346002BFAD100BF01
:1082200030F096FE0346002BFAD1314A314BD31A77
:10823000DB081B0443F00503394A3849184630F07F
:10824000E0FD00BF30F084FE0346002BFAD100238E
:10825000FB602BE0264A274BD31ADB081B0443F0B4
:1082600005007A7AFB6813447A6813441B781A462F
:10827000244930F0C6FD00BF30F06AFE0346002BF3
:10828000FAD1F968204BA3FB01231A0913461B01FD
:108290009B1A5B00CA1A002A05D100BF30F058FEB5
:1082A0000346002BFAD1FB680133FB607A887B7AA6
:1082B000D31A1A46FB689342CCD30D4A0D4BD31AFE
:1082C000DB081B0443F005031049184630F08AFD13
:1082D00000BF30F03DFE0346002BFAD100BF30F066
:1082E00037FE0346002BFAD132E000BFA03B00204E
:1082F000702F0800102F080050750700CC7507007C
:10830000D4740700E474070089888888EC74070037
:10831000D4750700E0750700EC75070008760700C4
:10832000107607000C4BB3F83E349BB21A460A4B4A
:1083300013447A88796818464BF0EAF9064BB3F88B
:108340003E349AB27B8813449AB2034BA3F83E247E
:1083500000BF1837BD4680BDA03B002080B586B069
:1083600000AF78607B68B3F83234022B12D17B689F
:1083700003F50873FB60FB685B789AB27B68A3F82F
:1083800034247B68B3F83434B3F5007F40F22081A5
:1083900001231EE17B68B3F8343404337A68B2F801
:1083A0003224934280F214817B6803F508735A1CCF
:1083B0007B68B3F8343403339BB21946104619F086
:1083C000DDF90346FB747B68B3F8343404337A6810
:1083D000134493F82032BB74804A814BD31ADB08D4
:1083E0001B0443F00503FA7C7E49184630F009FD72
:1083F00000BF30F0ADFD0346002BFAD1774A784B31
:10840000D31ADB081B0443F00503BA7C76491846EF
:1084100030F0F7FC00BF30F09BFD0346002BFAD193
:108420006E4A6F4BD31ADB081B0443F005036F49F8
:10843000184630F0D7FC00BF30F08AFD0346002B11
:10844000FAD1664A664BD31ADB081B0443F00500D9
:10845000674A7B68B3F83234664930F0E5FC00BF08
:1084600030F076FD0346002BFAD100237B6149E012
:108470005A4A5B4BD31ADB081B0443F005007B68A8
:1084800003F508727B6913441B781A465A4930F089
:10849000B8FC00BF30F05CFD0346002BFAD17B69CD
:1084A000591C564BA3FB01231A0913469B00134486
:1084B0009B00CA1A002A10D1484A494BD31ADB083C
:1084C0001B0443F005034E49184630F08BFC00BFF7
:1084D00030F03EFD0346002BFAD17969494BA3FBEE
:1084E00001231A0913461B019B1A5B00CA1A002AB2
:1084F00005D100BF30F02CFD0346002BFAD17B697B
:1085000001337B617B68B3F832341A467B6993424E
:10851000AED3324A324BD31ADB081B0443F00503B7
:108520003949184630F05EFC00BF30F011FD0346BB
:10853000002BFAD100BF30F00BFD0346002BFAD11F
:10854000264A274BD31ADB081B0443F005032749AF
:10855000184630F047FC00BF30F0FAFC0346002B11
:10856000FAD1FA7CBB7C9A421FD17B68B3F83224E3
:108570007B68A3F83024254B002283F83824234B52
:108580000022A3F83424214B002283F83B241F4B04
:108590000022A3F832241D4B002283F839241B4B00
:1085A000002283F83A24022313E00C4A0C4BD31A1E
:1085B000DB081B0443F005031549184630F012FC94
:1085C00000BF30F0C5FC0346002BFAD1012300E0C8
:1085D000002318461837BD4680BD00BF702F080025
:1085E000102F08001C760700307607005075070032
:1085F000CC75070090750700E4740700CDCCCCCC97
:10860000A075070089888888EC740700A03B0020CB
:108610004476070080B586B000AF78607B68B3F819
:108620003234042B40F09A807B6803F50873BB60FA
:108630008A4A8B4BD31ADB081B0443F00500894A96
:108640000423894930F0F0FB00BF30F081FC034681
:10865000002BFAD100237B612BE0804A804BD31A98
:10866000DB081B0443F005007B6803F508727B6997
:1086700013441B781A467D4930F0C3FB00BF30F02D
:1086800067FC0346002BFAD17969794BA3FB0123E0
:108690001A0913461B019B1A5B00CA1A002A05D14E
:1086A00000BF30F055FC0346002BFAD17B69013343
:1086B0007B617B69032BD0D9684A694BD31ADB08ED
:1086C0001B0443F005036B49184630F08BFB00BFD9
:1086D00030F03EFC0346002BFAD100BF30F038FCEE
:1086E0000346002BFAD1BB685B889AB27B68A3F87B
:1086F00034245A4A5A4BD31ADB081B0443F00500B2
:108700007B68B3F834341A465B4930F07AFB00BF1B
:1087100030F01EFC0346002BFAD17B68B3F83434EA
:10872000B3F5007F17D94D4A4D4BD31ADB081B0414
:1087300043F005007B68B3F834341A464FF40073F5
:108740004E4930F071FB00BF30F002FC0346002BB5
:10875000FAD1012345E101F097FB41E17B68B3F8D1
:10876000343405337A68B2F83224934280F2388187
:108770007B6803F508707B68B3F834340433002257
:1087800019462CF0ABFA0346FB817B6803F50872AF
:108790007B68B3F8343404331344184618F09BFC58
:1087A0000346184618F04BFD0346BB812B4A2C4B61
:1087B000D31ADB081B0443F00503FA893049184635
:1087C00030F01FFB00BF30F0C3FB0346002BFAD193
:1087D000224A234BD31ADB081B0443F00503BA8952
:1087E0002849184630F00DFB00BF30F0B1FB0346BE
:1087F000002BFAD1FA89BB899A4240F0DE807B686F
:10880000B3F832247B68A3F83024144A144BD31AEB
:10881000DB081B0443F005031B49184630F0E2FA5D
:1088200000BF30F095FB0346002BFAD10B4A0C4BEE
:10883000D31ADB081B0443F00500144A7B68B3F825
:108840003234134930F0F0FA00BF30F081FB0346B8
:10885000002BFAD100233B6166E000BF702F0800B7
:10886000102F080050760700D4740700E474070046
:1088700089888888EC7407005C76070074760700A6
:108880009C760700B076070050750700CC7507008E
:1088900090750700554A564BD31ADB081B0443F06A
:1088A00005007B6803F508723B6913441B781A4680
:1088B000504930F0A6FA00BF30F04AFB0346002BC7
:1088C000FAD13B69591C4C4BA3FB01231A091346EF
:1088D0009B0013449B00CA1A002A10D1434A444B00
:1088E000D31ADB081B0443F005034449184630F053
:1088F00079FA00BF30F02CFB0346002BFAD139691E
:108900003F4BA3FB01231A0913461B019B1A5B0073
:10891000CA1A002A05D100BF30F01AFB0346002B0B
:10892000FAD13B6901333B617B68B3F832341A46B4
:108930003B699342AED32D4A2D4BD31ADB081B045F
:1089400043F005032F49184630F04CFA00BF30F0D1
:10895000FFFA0346002BFAD100BF30F0F9FA0346C4
:10896000002BFAD1214A224BD31ADB081B0443F017
:1089700005032549184630F035FA00BF30F0E8FA13
:108980000346002BFAD1214B002283F838241F4BD9
:108990000022A3F834241D4B002283F83B241B4BF8
:1089A0000022A3F83224194B002283F83924174BF4
:1089B000002283F83A24022313E00C4A0C4BD31A0A
:1089C000DB081B0443F005031149184630F00AFA8E
:1089D00000BF30F0BDFA0346002BFAD1012300E0BE
:1089E000002318461837BD4680BD00BF702F080011
:1089F000102F0800E4740700CDCCCCCCA075070084
:108A000089888888EC74070050750700A03B002017
:108A1000C476070080B584B000AF78600023BB72D5
:108A200007F10A0318462AF007FD7B68B3F83E34C5
:108A3000BB81BB7A18462AF015FD7B68B3F83C343D
:108A4000BA899A4206D97B68B3F83C34BA89D31AFA
:108A5000FB81BAE07B68B3F83C34BA899A4209D208
:108A60007B68B3F83C34BA89D31A9BB203F5007320
:108A7000FB81AAE00023E0E07B68B3F83C345A1C99
:108A800091B27A68A2F83C1418467B68B3F8323485
:108A90005A1C91B27A68A2F8321419467B681A5CA3
:108AA0007B680B4483F820227B68B3F83C34B3F531
:108AB000007F03D37B680022A3F83C247B68B3F8D3
:108AC0003234B3F5007F80F088807B6893F83834C7
:108AD00083F00103DBB2002B3FD07B6893F839347D
:108AE00083F00103DBB2002B37D07B6893F83A3474
:108AF00083F00103DBB2002B2FD07B6893F8203288
:108B0000022B04D17B68012283F838245DE07B6866
:108B100093F82032402B04D17B68012283F839245A
:108B200053E07B6893F82032802B04D17B680122CC
:108B300083F83A2449E0434A434BD31ADB081B0429
:108B400043F005034149184630F04CF900BF30F0BE
:108B5000FFF90346002BFAD142E07B6893F83834E2
:108B6000002B0DD03A48FFF7F9FB0346FB72FB7A66
:108B7000022B01D1012360E0FB7A012B25D12FE0EC
:108B80007B6893F83934002B0DD03148FFF742FD54
:108B90000346FB72FB7A022B01D11B234DE0FB7ACB
:108BA000012B12D11CE07B6893F83A34002B0CD0D7
:108BB0002748FFF72FFD0346FB72FB7A022B01D1FA
:108BC0001E233AE0FB7A012B09D0FB895A1EFA8159
:108BD000002B7FF451AF00232FE000BF00E000BF67
:108BE000184A194BD31ADB081B0443F00503194933
:108BF000184630F0F7F800BF30F0AAF90346002B12
:108C0000FAD1134B002283F83824114B0022A3F829
:108C100034240F4B002283F83B240D4B0022A3F891
:108C200032240B4B002283F83924094B002283F8AD
:108C30003A24094B01221A70002318461037BD460A
:108C400080BD00BF702F0800102F0800D0760700ED
:108C5000A03B0020E87607008B3B002080B500AFEA
:108C60000248FFF7D7FE0346184680BDA03B002010
:108C700080B582B000AF00237B600023BB70BB1CBB
:108C800018462AF0D9FB274B5B78FB70BB78184657
:108C90002AF0E8FBFB78002B24D000237B707B1CA0
:108CA00018462AF0C9FB1F4B00225A707B781846E1
:108CB0002AF0D8FB1C4A1D4BD31ADB081B0443F0D7
:108CC00005031B49184630F08DF800BF30F040F91D
:108CD0000346002BFAD1134BB3F80432194615485A
:108CE000FEF736FF0F4BB3F802220E4BB3F80632F5
:108CF0009A420ED10B4B1B78022B0AD1094B002252
:108D0000A3F80422074B0022A3F80822054B0122F6
:108D10001A7008F0F9FA78607B6818460837BD4683
:108D200080BD00BFE03F0020702F0800102F08001A
:108D3000FC760700E23F002080B500AF0E4BB3F891
:108D4000303419460D4809F01FF90346002B01D0B5
:108D500001230EE0FFF782FF0346012B08D1064BEB
:108D6000B3F830341946054809F022F9034600E00B
:108D70000023184680BD00BFA03B0020C03D00205E
:108D800080B588B000AF0023FB61FFF767FFF86193
:108D9000FB69012B0CD1284BB3F830341946274816
:108DA00008F050FAF86140F6C41007F065FE3EE0A6
:108DB000FB691B2B2DD1224A224BD31ADB081B0443
:108DC00043F005032049184630F00CF800BF30F09E
:108DD000BFF80346002BFAD10623FB71FB1D0121CE
:108DE0001846FEF7B5FE07F1080300221A605A6024
:108DF0009A60DA601A61104BB3F8302407F1080367
:108E00000E49184608F008FBBB68012B0FD0BB6861
:108E10000EE0FB691E2B0AD0FB69B3F1FF3F06D1C0
:108E20001523BB71BB1D01211846FEF791FEFB699E
:108E300018462037BD4680BDA03B0020C03D002025
:108E4000702F0800102F08001477070080B400AFBF
:108E5000134B002283F83824114B0022A3F834244A
:108E60000F4B002283F83B240D4B0022A3F8322441
:108E70000B4B002283F83924094B002283F83A2453
:108E8000084B0022A3F80422064B0022A3F8082274
:108E9000044B01221A7000BFBD465DF8047B704789
:108EA000A03B0020E03F002080B500AF08F016FA9C
:108EB0000346184680BD80B500AF08F069FA00BFD0
:108EC00080BD000080B582B000AF104B1B78002B36
:108ED00018D00E4B01221A700023FB71FB1D18469F
:108EE0002AF0AAFA4FF48862002109484AF016FDD8
:108EF0004FF40372002107484AF010FDFB79184631
:108F00002AF0B0FA00BF0837BD4680BD8B3B002079
:108F1000A03B0020E03F002080B584B000AF0346B6
:108F2000FB710023FB60FB79BD2B00F38581002BD7
:108F3000C0F2E281BD2B00F2DF8101A252F823F0E2
:108F40003F920200459202004B92020051920200B1
:108F5000579202005D920200639202006992020041
:108F60006F920200759202007B92020081920200D1
:108F700087920200F9920200F9920200F99202002F
:108F8000F99202008D9202009392020099920200DF
:108F90009F920200A5920200AB920200B1920200E1
:108FA000B7920200BD920200C3920200C992020071
:108FB000CF920200F9920200F9920200F9920200A7
:108FC000F9920200F9920200F9920200F99202006D
:108FD000F9920200F9920200D5920200F992020081
:108FE000F9920200F9920200F9920200F99202004D
:108FF000F9920200F9920200F9920200F99202003D
:10900000F9920200F9920200F9920200F99202002C
:10901000F9920200F9920200F9920200F99202001C
:10902000F9920200F9920200F9920200F99202000C
:10903000F9920200F9920200F9920200F9920200FC
:10904000F9920200F9920200F9920200F9920200EC
:10905000F9920200F9920200F9920200F9920200DC
:10906000F9920200F9920200F9920200F9920200CC
:10907000F9920200F9920200F9920200F9920200BC
:10908000F9920200F9920200F9920200F9920200AC
:10909000F9920200F9920200F9920200F99202009C
:1090A000F9920200F9920200F9920200F99202008C
:1090B000F9920200F9920200F9920200F99202007C
:1090C000F9920200F9920200F9920200F99202006C
:1090D000F9920200F9920200F9920200F99202005C
:1090E000F9920200F9920200F9920200F99202004C
:1090F000F9920200F9920200F9920200F99202003C
:10910000F9920200F9920200F9920200F99202002B
:10911000F9920200F9920200F9920200F99202001B
:10912000F9920200F9920200F9920200F99202000B
:10913000F9920200F9920200F9920200F9920200FB
:10914000F9920200F9920200F9920200F9920200EB
:10915000F9920200F9920200F9920200F9920200DB
:10916000F9920200DB920200F9920200F9920200E9
:10917000F9920200F9920200F9920200F9920200BB
:10918000F9920200F9920200F9920200F9920200AB
:10919000F9920200F9920200F9920200F99202009B
:1091A000F9920200F9920200F9920200F99202008B
:1091B000F9920200F9920200F9920200F99202007B
:1091C000F9920200F9920200F9920200F99202006B
:1091D000F9920200E1920200F9920200F992020073
:1091E000F9920200F9920200F9920200F99202004B
:1091F000F9920200F9920200F9920200F99202003B
:10920000F9920200F9920200F9920200F99202002A
:10921000F9920200F9920200F9920200F99202001A
:10922000F9920200F9920200F9920200F99202000A
:10923000E7920200ED920200FE2B5AD05CE0454B13
:10924000FB605AE0444BFB6057E0444BFB6054E04A
:10925000434BFB6051E0434BFB604EE0424BFB60F5
:109260004BE0424BFB6048E0414BFB6045E0414B2B
:10927000FB6042E0404BFB603FE0404BFB603CE06A
:109280003F4BFB6039E03F4BFB6036E03E4BFB6001
:1092900033E03E4BFB6030E03D4BFB602DE03D4B4F
:1092A000FB602AE03C4BFB6027E03C4BFB6024E08A
:1092B0003B4BFB6021E03B4BFB601EE03A4BFB600D
:1092C0001BE03A4BFB6018E0394BFB6015E0394B73
:1092D000FB6012E0384BFB600FE0384BFB600CE0AA
:1092E000374BFB6009E0374BFB6006E0364BFB6019
:1092F00003E0364BFB6000E000BFFB68002B12D0A0
:10930000334A344BD31ADB081B0443F00503FA68D5
:10931000314918462FF075FD00BF2FF019FE0346A6
:10932000002BFAD111E02A4A2A4BD31ADB081B047E
:1093300043F00503FA79294918462FF062FD00BF72
:109340002FF006FE0346002BFAD100BF1037BD46B2
:1093500080BD00BF54770700687707007877070063
:109360008877070098770700A8770700B877070085
:10937000CC770700E0770700F47707000C78070048
:1093800020780700387807005078070064780700D5
:109390007C7807008C780700A4780700B478070071
:1093A000C8780700DC780700EC7807000879070028
:1093B00020790700307907004479070058790700C1
:1093C000747907008879070098790700B079070059
:1093D000702F0800102F0800C8790700D479070003
:1093E00080B584B000AFF860B9607A607B68043300
:1093F00005221946F8684AF08BF9FB68581D7B680E
:109400000D33012219464AF083F9FB68981D7B68E9
:109410000F33012219464AF07BF9FB68043303221B
:109420000021184617F066FD0346002B09D0FB68A3
:1094300004330322FF21184617F05CFD0346002B7E
:1094400003D1BB6804221A7003E0BB6807221A70BC
:1094500000BF00BF1037BD4680BD000080B582B0A0
:1094600000AF1F4B7B601F4B1B7AFB701E4B5B7B5F
:10947000002B18D01C4B5B7B1A4600211B4817F0B1
:1094800039FD0346002B0ED0174B5B7B1A46FF219C
:10949000164817F02FFD0346002B04D0134B7B60BA
:1094A000114B5B7BFB7008220021114817F022FD55
:1094B0000346002B09D00822FF210D4817F01AFDA2
:1094C0000346002B01D00A4A00E00022FB7819462F
:1094D000786838F093FC00BF0837BD4680BD00BFF8
:1094E000B1BD0020A8BD002010B900201EB9002089
:1094F000FC41002080B483B000AF0346FB71FB79D0
:10950000892B0CD0892B0CDC262B08D0262B08DCD1
:10951000002B04D0002B04DB083B032B01D80123D4
:1095200000E0002318460C37BD465DF8047B704709
:1095300080B582B000AF78600B46FB700B4B1B7898
:10954000FA789A420AD1FB781A46094978684AF0B3
:10955000AFF80346002B01D1012300E0002303F004
:109560000103DBB218460837BD4680BDF841002034
:10957000F041002080B483B000AF0346FB71134B71
:109580001B78012B01D100231AE0FB79012B13D0AA
:10959000FB79022B10D0FB79032B0DD0FB79042B28
:1095A0000AD0FB79172B07D0FB79192B04D0FB7954
:1095B0001A2B01D0012300E0002303F00103DBB2EA
:1095C00018460C37BD465DF8047B7047C0B60020D6
:1095D00080B586B000AFBA607B600346FB730B4674
:1095E000BB7300237B61B97BF87B7B68BA680EF0A4
:1095F000C1FD78614B4A4C4BD31ADB081B0443F086
:1096000005034A4918462FF0EDFB00BF2FF0A0FCE0
:109610000346002BFAD1434A434BD31ADB081B0401
:1096200043F005037A69424918462FF0EAFB00BF70
:109630002FF08EFC0346002BFAD13A4A3A4BD31A4C
:10964000DB081B0443F00503384918462FF0CAFB1A
:1096500000BF2FF07DFC0346002BFAD17B69012B64
:109660001CD17B681B7BFB74324B93F83E31312B52
:1096700012D1FB7C1846FFF73DFF0346002B0BD0B1
:1096800012F0E0FD034683F00103DBB2002B03D0B0
:1096900001237B617B6940E001233EE07B6913F19C
:1096A000070F14D1234B9B78312B0DD122481FF08B
:1096B0002AFA0346002B07D0204B00221A741F4BB6
:1096C00007221A72012328E06FF0060325E0194BE8
:1096D0009B78312B17D1134A134BD31ADB081B0489
:1096E00043F00503164918462FF07CFB00BF2FF00E
:1096F0002FFC0346002BFAD11022002111484AF01A
:109700000DF9012309E00B4B93F83E31312B03D1C6
:1097100001237B617B6900E0002318461837BD46B2
:1097200080BD00BF702F0800102F0800F8790700D7
:10973000307A0700C0B60020B1BD0020A8BD0020CF
:10974000487A070020B6002080B584B000AFF860EA
:109750000B467A60FB720C4B5B780A2B03D17B685B
:1097600089221A7003E0084B5A787B681A70082225
:10977000F968064849F0CCFF054AFB7A537300BFED
:109780001037BD4680BD00BFC0B600201EB9002006
:1097900010B9002080B586B000AF78600023FB6070
:1097A0001823FB72FB7A0133BB72A24B1B7883F048
:1097B0000103DBB2002B00F0CC80B97A9E4B9F4AAC
:1097C0000020FFF705FFF8609D4A9E4BD31ADB0887
:1097D0001B0443F00503FA689B4918462FF011FB60
:1097E00000BF2FF0B5FB0346002BFAD1FB68012B1D
:1097F0000ED0FB6813F1030F08D1944B9B78312BEB
:1098000004D0924B93F88831312B01D0FB6809E2E8
:109810008F4B1B7A19468F48FFF78AFE0346002BB1
:1098200012D0874A874BD31ADB081B0443F0050389
:10983000894918462FF0D6FA00BF2FF089FB03465E
:10984000002BFAD10023EDE17B4B1A7B834B1A707E
:10985000824B1B781846FFF74DFE0346002B75D050
:1098600075497C4817F06EFB0346002B61D0724AA5
:109870007B497C48FFF7B4FD714A724BD31ADB0871
:109880001B0443F00500784A784B5B7B78492FF046
:10989000CBFA00BF2FF05CFB0346002BFAD100236C
:1098A0007B6129E0664A674BD31ADB081B0443F04F
:1098B00005007B696B4A13441B781A466D492FF0EB
:1098C000A0FA00BF2FF044FB0346002BFAD17969C0
:1098D000694BA3FB01231A0913461B019B1A5B006A
:1098E000CA1A002A05D100BF2FF032FB0346002B15
:1098F000FAD17B6901337B615C4B5B7B1A467B69E8
:109900009342CFD34E4A4F4BD31ADB081B0443F08C
:1099100005035A4918462FF065FA00BF2FF018FBCF
:109920000346002BFAD100BF2FF012FB0346002B99
:10993000FAD1534B1B78002B08D0514B9B78002B4E
:1099400004D0504B01221A70FFF788FD394B0122D9
:109950001A704D4B1B78002B01D0002362E13F4B66
:109960001B781846FFF7C6FD0346002B00F08E80DB
:10997000434B1B7883F00103DBB2002B06D1404B35
:109980009B7883F00103DBB2002B01D0002349E177
:109990003C4B1B7883F00103DBB2002B04D0394B26
:1099A00001221A70FFF75AFD354B5B7883F00103F3
:1099B000DBB2002B01D0002334E1284B1B78002BB5
:1099C00064D1224B9B78312B27D0204B93F88831E0
:1099D000312B22D112F036FC034683F00103DBB2B7
:1099E000002B17D0194B93F82A310A2B12D9174B99
:1099F00093F82A311A2B0DD8144B93F82D31312BB3
:109A000008D1144811F0C0F9F860FB68002B04DAA3
:109A1000FB6807E16FF0480304E10C4B9B78312BA6
:109A200034D00A4B93F88831312B2FD06FF041039B
:109A3000F8E000BFEC41002020B600209CA6070003
:109A4000702F0800102F0800687A0700C0B60020A9
:109A5000A8BD0020B1BD0020887A07000442002084
:109A60001DB900201EB90020A07A070010B90020FF
:109A7000AC7A0700BC7A070089888888C47A070016
:109A8000A0B60020EE410020ED410020674B1B787E
:109A90001846FFF741FA664B9B78312B20D1634B78
:109AA0001B781846FFF726FD0346002B18D0614AA5
:109AB000614BD31ADB081B0443F005035F491846CA
:109AC0002FF090F900BF2FF043FA0346002BFAD194
:109AD0005B4B1B7A7A6819465A48FFF735FE9DE0C2
:109AE000594B1A7B7B681A705749564817F02AFA67
:109AF0000346002B00F08380534A54495448FFF733
:109B00006FFC4C4A4C4BD31ADB081B0443F0050096
:109B1000504A514B5B7B51492FF086F900BF2FF023
:109B200017FA0346002BFAD100233B6129E0414A92
:109B3000414BD31ADB081B0443F005003B69444A40
:109B400013441B781A4646492FF05BF900BF2FF0EB
:109B5000FFF90346002BFAD13969424BA3FB0123DD
:109B60001A0913461B019B1A5B00CA1A002A05D169
:109B700000BF2FF0EDF90346002BFAD13B6901330A
:109B80003B61354B5B7B1A463B699342CFD3294AF5
:109B9000294BD31ADB081B0443F00503324918464E
:109BA0002FF020F900BF2FF0D3F90346002BFAD194
:109BB00000BF2FF0CDF90346002BFAD11B4B1B78C9
:109BC0001846FFF7D7FC0346002B27D0274B184633
:109BD00000F04AFF034683F00103DBB2002B1DD0E7
:109BE000134B9B78312B07D1154B1B7A7A6819469A
:109BF0001448FFF7A9FD11E06FF0240312E00C4BAD
:109C00009B78312B07D10E4B1B7A7A6819460D4889
:109C1000FFF79AFD02E06FF00A0303E0144B012204
:109C20001A70012318461837BD4680BD0442002033
:109C3000C0B60020702F0800102F0800C87A070057
:109C4000A8BD0020B1BD002020B600201DB9002015
:109C50001EB90020A07A070010B90020AC7A0700D6
:109C6000BC7A070089888888C47A070029B6002052
:109C7000ED41002080B483B000AF0346FB71124B6E
:109C80005B780A2B0CD1FB79092B02D0FB79892B4D
:109C900001D1012300E0002303F00103DBB20DE05A
:109CA000094B5B78FA799A4202D0FB79892B01D172
:109CB000012300E0002303F00103DBB218460C3758
:109CC000BD465DF8047B7047C0B6002080B584B007
:109CD00000AF0346FB710123BB60FB79262B0CD13F
:109CE000314B5B78092B03D02F4B5B780A2B02D1C9
:109CF0000923FB7101E00823FB712B4B9B78312B6F
:109D00001ED0FB791846FFF7B5FF034683F0010329
:109D1000DBB2002B14D0254A254BD31ADB081B04D9
:109D200043F00503FA79234918462FF06AF800BF7B
:109D30002FF00EF90346002BFAD16FF010032FE03D
:109D4000194B9B78312B22D0FB79892B11D1164BE3
:109D50005B78092B03D0144B5B780A2B06D10823C0
:109D6000FB73FB7B18460AF007F804E00723FB733C
:109D700001E00723FB73FB7B0F4A194604200EF01A
:109D8000F9FAB860BB68012B01D0BB6808E00B4B47
:109D90005A7B094B0A49012006F06EF9B860BB688E
:109DA00018461037BD4680BDC0B60020702F080091
:109DB000102F0800DC7A070030B6002010B9002010
:109DC0001EB9002080B582B000AF78607B68002BA0
:109DD00005DD064804F016F811F0A0F801E002F0E5
:109DE000A9FD00BF0837BD4680BD00BFC0B600203A
:109DF00080B582B000AF78600B46FB70FB781A46E6
:109E00007968054849F084FC044AFB78137000BF68
:109E10000837BD4680BD00BFF0410020F84100205A
:109E200080B500AF114A124BD31ADB081B0443F074
:109E30000503104A104918462EF0E3FF00BF2FF02B
:109E400087F80346002BFAD100BF2FF081F80346B4
:109E5000002BFAD1094B00221A70094B00221A700C
:109E6000084B01225A7000BF80BD00BF702F080050
:109E7000102F08005C7B0700EC7A0700ED41002002
:109E8000EC41002098BB002080B500AF0E4A0F4B7C
:109E9000D31ADB081B0443F005030D4A0D4918468D
:109EA0002EF0AFFF00BF2FF053F80346002BFAD17E
:109EB00000BF2FF04DF80346002BFAD1064B0222CB
:109EC0005A7000BF80BD00BF702F0800102F08001F
:109ED0006C7B0700EC7A070098BB002080B500AFD0
:109EE000134A144BD31ADB081B0443F00503124A30
:109EF000124918462EF085FF00BF2FF029F80346BF
:109F0000002BFAD100BF2FF023F80346002BFAD123
:109F10000B4B1B7A19460B48FFF76AFF11220021F1
:109F2000074849F0FBFCFFF77BFF00BF80BD00BF87
:109F3000702F0800102F0800807B0700EC7A0700C4
:109F4000A8BD0020B1BD002080B500AF1F4A204B46
:109F5000D31ADB081B0443F005031E4A1E491846AA
:109F60002EF04FFF00BF2EF0F3FF0346002BFAD177
:109F700000BF2EF0EDFF0346002BFAD1174B002255
:109F80001A7008220021164849F0C8FC112200214D
:109F9000144849F0C3FC70220021134849F0BEFC6C
:109FA00008220021114849F0B9FC114B00221A7017
:109FB000104B00221A70104B00225A700F4B0022D7
:109FC0001A600F4B00221A7000BF80BD702F08006E
:109FD000102F0800947B0700EC7A0700F84100205E
:109FE000F0410020A8BD002020B60020FC41002048
:109FF000ED410020EC41002098BB0020BC44002033
:10A00000EE41002080B500AF1DF0D6FD0346002BC9
:10A0100012D00B4B1B68002B08D00A4B1B7883F027
:10A020000103DBB2002B01D0002306E0044B4FF408
:10A0300016721A60012300E00023184680BD00BF9D
:10A04000BC440020EC41002080B582B000AF00236A
:10A050007B60FF23BB70E24B5B78022B03D0E04BAD
:10A060005B78032B01D10023BBE2FFF7CBFF034654
:10A0700083F00103DBB2002B01D00023B1E2D94A07
:10A08000D94BD31ADB081B0443F00503D74AD84940
:10A0900018462EF0B6FE00BF2EF05AFF0346002BE6
:10A0A000FAD100BF2EF054FF0346002BFAD1BB1C9F
:10A0B0001846FFF76FFB78607B68012B40F06D82DC
:10A0C000CC4806F06EFDC74AC74BD31ADB081B0409
:10A0D00043F00503C84918462EF084FE00BF2EF059
:10A0E00037FF0346002BFAD1BE4ABF4BD31ADB0819
:10A0F0001B0443F00503C14918462EF073FE00BF50
:10A100002EF026FF0346002BFAD1B64AB64BD31ADF
:10A11000DB081B0443F00503B74918462EF062FE26
:10A1200000BF2EF015FF0346002BFAD1BA78B44BCE
:10A130009A70AC4AAC4BD31ADB081B0443F00503FE
:10A14000BA78B04918462EF05CFE00BF2EF000FF32
:10A150000346002BFAD1BB78FE2B00F01182FE2BB8
:10A1600000F31082BD2B00F00F82BD2B00F30A829A
:10A17000BC2B00F00B82BC2B00F30482892B00F374
:10A180001D81002B40F3FE81013B882B00F2FA81F8
:10A1900001A252F823F000BF31A4020085A50200FD
:10A1A00085A5020085A5020085A502003FA4020046
:10A1B00085A50200D3A30200C5A30200D3A3020019
:10A1C00085A5020085A5020085A5020085A50200DF
:10A1D00085A5020085A5020085A5020085A50200CF
:10A1E00081A402008FA4020085A5020031A502000F
:10A1F0009DA40200B3A4020017A5020039A5020025
:10A2000085A50200ABA4020085A5020085A5020079
:10A2100085A5020085A5020085A5020085A502008E
:10A2200085A5020085A5020085A50200D3A3020032
:10A2300085A5020085A5020085A5020085A502006E
:10A2400085A5020085A5020085A5020085A502005E
:10A2500085A5020085A5020085A5020085A502004E
:10A2600085A5020085A5020085A5020085A502003E
:10A2700085A5020085A5020085A5020085A502002E
:10A2800085A5020085A5020085A5020085A502001E
:10A2900085A5020085A5020085A5020085A502000E
:10A2A00085A5020085A5020085A5020085A50200FE
:10A2B00085A5020085A5020085A5020085A50200EE
:10A2C00085A5020085A5020085A5020085A50200DE
:10A2D00085A5020085A5020085A5020085A50200CE
:10A2E00085A5020085A5020085A5020085A50200BE
:10A2F00085A5020085A5020085A5020085A50200AE
:10A3000085A5020085A5020085A5020085A502009D
:10A3100085A5020085A5020085A5020085A502008D
:10A3200085A5020085A5020085A5020085A502007D
:10A3300085A5020085A5020085A5020085A502006D
:10A3400085A5020085A5020085A5020085A502005D
:10A3500085A5020085A5020085A5020085A502004D
:10A3600085A5020085A5020085A5020085A502003D
:10A3700085A5020085A5020085A5020085A502002D
:10A3800085A5020085A5020085A5020085A502001D
:10A3900085A5020085A5020085A5020085A502000D
:10A3A00085A5020085A5020085A5020085A50200FD
:10A3B00085A5020085A50200C5A30200A52B00F01B
:10A3C000E780DFE000237B607B68002B01D07B68A7
:10A3D00007E10D4B93F83031042B17D1002300E136
:10A3E00098BB0020702F0800102F0800A47B0700E6
:10A3F000EC7A070099BB0020F8790700F47A07008F
:10A4000010B90020107B070040B90020BB78184627
:10A41000FFF75CFC78607B68002B80F2BB807348A0
:10A4200002F038FA724B00221A7000225A70B1E022
:10A430000FF010FB78607868FFF7C4FCABE06D4B61
:10A440009B7BFB70FB78322B02D1694B07229A7001
:10A45000694A6A4BD31ADB081B0443F00503FA78F8
:10A46000674918462EF0CDFC00BF2EF071FD034663
:10A47000002BFAD1FB7818460FF0DEFB78608AE0FB
:10A48000604B9B7918460EF08DFF786083E00FF0EB
:10A4900081F878607868FFF795FC7CE00FF0B8F9F8
:10A4A00078607868FFF78EFC75E00EF0F1FC78605C
:10A4B00071E001F0ADFF4D4B1B78012B14D14E4ADA
:10A4C0004E4BD31ADB081B0443F005034E491846D4
:10A4D0002EF088FC00BF2EF03BFD0346002BFAD186
:10A4E000424B00221A7013E0434A444BD31ADB0854
:10A4F0001B0443F00503454918462EF073FC00BFCA
:10A500002EF026FD0346002BFAD1384B01221A709B
:10A5100062237B603FE000200CF066F90346012BCC
:10A5200003D010F063FA04235BE04FF0FF3358E0F0
:10A530000FF0BAFB78602EE02C49354803F06DFC33
:10A54000034683F00103DBB2002B15D0294B5B7B64
:10A55000312B0CBF01230023D8B2264BDB7B312BE0
:10A560000CBF01230023DBB20122194610F092F93F
:10A570000120FFF727FC0EE04FF0FF337B600AE07D
:10A5800000BF08E000BF06E000BF04E000BF02E03B
:10A5900000BF00E000BF7B6823E07B68002B17DA78
:10A5A0007B6813F1070F13D0134A144BD31ADB083F
:10A5B0001B0443F005037A68164918462EF021FC67
:10A5C00000BF2EF0C5FC0346002BFAD17B6808E0E3
:10A5D0007B6813F1070F03D11EF01BF8002300E086
:10A5E000002318460837BD4680BD00BF40B9002093
:10A5F00010B9002020B60020702F0800102F08008E
:10A60000247B0700A8BD0020347B0700407B0700A7
:10A61000C0B600204C7B070080B483B000AF00239D
:10A620007B60144B5B7DFF2B0ED0FF2B10DC312B9E
:10A6300002D0322B04D00BE041F288337B600BE078
:10A6400042F210737B6007E04FF47A737B6003E0A3
:10A6500040F6C4137B6000BF064B1B7D302B01D13D
:10A6600000237B607B6818460C37BD465DF8047B91
:10A67000704700BFC0B6002080B500AF0F4A104B36
:10A68000D31ADB081B0443F005030E4A0E49184693
:10A690002EF0B7FB00BF2EF05BFC0346002BFAD177
:10A6A00000BF2EF055FC0346002BFAD1FFF7B4FF94
:10A6B000034618460BF02EFD00BF80BD702F08002A
:10A6C000102F0800607C0700B47B070080B500AF46
:10A6D0000CF030FD00BF80BD80B586B000AF786063
:10A6E0000B46FB700023FB607B68032B40F38980E3
:10A6F0007B68062B00F385800CF0D6FC0346002B0C
:10A700007FD0002010F024FC7B68062B09D07B68EA
:10A71000062B15DC7B68042B08D07B68052B0AD040
:10A720000EE0A14B7B610323FB740CE09F4B7B612C
:10A730000123FB7407E09E4B7B610223FB7402E064
:10A740006FF015032BE17B68062B02D07B68052B8D
:10A7500007D100F03BFB0346002B02D06FF03D0316
:10A760001DE1944A944BD31ADB081B0443F0050304
:10A77000924918462EF036FB00BF2EF0E9FB034647
:10A78000002BFAD18B4A8C4BD31ADB081B0443F005
:10A7900005037A698A4918462EF033FB00BF2EF074
:10A7A000D7FB0346002BFAD1824A834BD31ADB082E
:10A7B0001B0443F00503814918462EF013FB00BF2C
:10A7C0002EF0C6FB0346002BFAD17B68052B05D083
:10A7D00015F0CCFE03467B4AC2F84431FB7C184698
:10A7E0000BF0E0FEF860FB6813F14C0F01D1002381
:10A7F000D5E0FB78002B02D0072010F0A9FBFB6806
:10A80000CDE00CF099FF0346002B18D06E4B0022D0
:10A810001A7000225A706C4A137843F001031370C7
:10A82000694A137843F002031370012200210020CB
:10A8300000F0E2FF57220021002003F0B9FD0CF0E8
:10A8400049FC0346032B73D0032B00F3A780012B95
:10A8500002D0022B35D0A1E0564A574BD31ADB0861
:10A860001B0443F00503554918462EF0BBFA00BF00
:10A870002EF06EFB0346002BFAD14E4A4E4BD31AF4
:10A88000DB081B0443F00503504918462EF0AAFAD2
:10A8900000BF2EF05DFB0346002BFAD1454A464B24
:10A8A000D31ADB081B0443F00503444918462EF075
:10A8B00099FA00BF2EF04CFB0346002BFAD1092376
:10A8C0006DE00CF043FE3B4A3B4BD31ADB081B0404
:10A8D00043F00503394918462EF084FA00BF2EF0E4
:10A8E00037FB0346002BFAD1324A334BD31ADB082D
:10A8F0001B0443F00503364918462EF073FA00BFD7
:10A900002EF026FB0346002BFAD12A4A2A4BD31AF3
:10A91000DB081B0443F00503284918462EF062FAB1
:10A9200000BF2EF015FB0346002BFAD1082336E0BA
:10A93000204A214BD31ADB081B0443F005031F49AF
:10A9400018462EF04FFA00BF2EF002FB0346002BF4
:10A95000FAD1184A184BD31ADB081B0443F005033D
:10A960001C4918462EF03EFA00BF2EF0F1FA0346BD
:10A97000002BFAD10F4A104BD31ADB081B0443F00B
:10A9800005030E4918462EF02DFA00BF2EF0E0FA0E
:10A990000346002BFAD16FF0160300E0FB6818465F
:10A9A0001837BD4680BD00BFBC7B0700C47B0700D5
:10A9B000D07B0700702F0800102F0800DC7B0700F9
:10A9C000147C070040B9002010B90020287C070043
:10A9D0003C7C0700507C070080B400AFBFF34F8F72
:10A9E00000BF064BDB6803F4E0620449044B1343E9
:10A9F000CB60BFF34F8F00BF00BFFDE700ED00E06D
:10AA00000400FA0541DF704700BF184680B584B0E6
:10AA100000AF78607B68002B0AD0074B43F001033E
:10AA2000FB607B689B01BB60FB68B868984700E0EF
:10AA300000BF1037BD4680BDD080070080B582B012
:10AA400000AF78607B68002B0AD04FF47A70FFF774
:10AA5000DDFF7B68013B7B607B68002BF5D100E06C
:10AA600000BF0837BD4680BD80B584B000AF7860B8
:10AA7000454A464BD31ADB081B0443F00500444A01
:10AA8000032344492EF0D0F900BF2EF061FA0346AB
:10AA9000002BFAD10023FB6029E03B4A3B4BD31A41
:10AAA000DB081B0443F005007A68FB6813441B783D
:10AAB0001A4639492EF0A5F900BF2EF049FA03468F
:10AAC000002BFAD1F968354BA3FB01231A09134671
:10AAD0001B019B1A5B00CA1A002A05D100BF2EF089
:10AAE00037FA0346002BFAD1FB680133FB60FB68A1
:10AAF000022BD2D9244A254BD31ADB081B0443F07E
:10AB00000503274918462EF06DF900BF2EF020FAF4
:10AB10000346002BFAD100BF2EF01AFA0346002B91
:10AB2000FAD11B2200211F4816F0E4F90346002B3E
:10AB300007D01B22FF211B4816F0DCF90346002B2F
:10AB400001D101231BE00023FB7214E0FA7A1346C3
:10AB50005B00134403F58073134A13440322194620
:10AB6000786848F0A5FD0346002B01D1012306E0DB
:10AB7000FB7A0133FB72FB7A082BE7D900231846D6
:10AB80001037BD4680BD00BF702F0800102F080091
:10AB9000A07C0700AC7C0700BC7C07008988888803
:10ABA000C47C0700C0B70020C0B6002080B500AF4D
:10ABB000144A154BD31ADB081B0443F00503134A50
:10ABC000134918462EF01DF900BF2EF0C1F90346B7
:10ABD000002BFAD100BF2EF0BBF90346002BFAD1AF
:10ABE0000C4B1B7D302B09D100200BF0FDFD0346E3
:10ABF000022B01D1052302E0062300E006231846BC
:10AC000080BD00BF702F0800102F0800948007003F
:10AC1000C87C0700C0B6002080B582B000AF0346F4
:10AC2000FB71274A274BD31ADB081B0443F00503AB
:10AC3000254A264918462EF0E4F800BF2EF088F980
:10AC40000346002BFAD100BF2EF082F90346002BF9
:10AC5000FAD11F4B1B7D302B2BD1FB79012B12D14D
:10AC600000200BF0C1FD0346022B01D0042323E09A
:10AC7000184A137843F001031370164A13786FF3E0
:10AC80004103137017E0FB79022B14D100200BF065
:10AC9000ABFD0346012B01D005230DE00D4A1378CF
:10ACA0006FF3000313700B4A137843F00203137021
:10ACB00001E0062300E0002318460837BD4680BDAA
:10ACC000702F0800102F0800A8800700C87C07001C
:10ACD000C0B6002010B9002080B584B000AF786005
:10ACE0007B68002B17DA0F2010F032F905F06AFFAD
:10ACF0000023FB7307F10F03184628F09DFB224B3E
:10AD00004FF47A721A60FB7B184628F0ABFB786828
:10AD100003F040FA34E07B680F2B31D07B68632B63
:10AD200017D113F04DF8194A194BD31ADB081B043D
:10AD300043F00503174918462EF054F800BF2EF0D3
:10AD400007F90346002BFAD16420FFF777FEFFF7DF
:10AD500043FE7B68622B02D110F0E0F810E07B68C4
:10AD6000022B0DD10023BB7307F10E03184628F008
:10AD700063FB054B64221A60BB7B184628F072FB0C
:10AD800000BF1037BD4680BDB0440020702F0800C2
:10AD9000102F0800D07C070080B500AF18F08AFBA8
:10ADA0000346172B03D800F005F8012300E0002329
:10ADB000184680BD80B500AF18F07CFB0346032B1E
:10ADC00094BF01230023DBB2184680BD80B500AFDD
:10ADD00018F070FB0346112B94BF01230023DBB254
:10ADE000184680BD80B400AF00231846BD465DF80C
:10ADF000047B704780B400AF00BFBD465DF8047BA4
:10AE00007047000080B500AF1E220021034848F0C3
:10AE100085FD034B01221A7000BF80BD10B90020D0
:10AE20000542002080B582B000AF0346FB80FB885E
:10AE3000002B03D10C2010F08BF802E00B2010F057
:10AE400087F800BF0837BD4680BD000080B500AF61
:10AE5000024817F0CCF90346184680BDC0B7002061
:10AE600080B500AF024817F0D8F90346184680BDF8
:10AE7000C0B7002080B500AF044B93F8F3301846FC
:10AE800016F033FB0346184680BD00BFC0B6002055
:10AE900080B500AF044816F01EF90346184616F0B8
:10AEA00042FB0346184680BDB4B7002080B584B08D
:10AEB00000AF786039603968786815F048FE03465D
:10AEC000002B30D00123FB730123BB7307F038FB49
:10AED000034683F00103DBB2002B03D00023BB73D6
:10AEE00007F021FB15F006FF034683F00103DBB2F8
:10AEF000002B03D00023FB7315F014FF7B68013394
:10AF0000184615F091FDFB7B83F00103DBB2002BAB
:10AF100001D015F0FBFEBB7B83F00103DBB2002BFD
:10AF200001D007F0F9FA00BF1037BD4680BD80B5EB
:10AF300082B000AF0123FB710123BB7107F000FB5E
:10AF4000034683F00103DBB2002B03D00023BB7167
:10AF500007F0E9FA15F0CEFE034683F00103DBB2F9
:10AF6000002B03D00023FB7115F0DCFE15F0AEF9C9
:10AF70003860FB7983F00103DBB2002B01D015F0C0
:10AF8000C5FEBB7983F00103DBB2002B01D007F0D3
:10AF9000C3FA3B6818460837BD4680BD80B584B00B
:10AFA00000AF0346FB80284A284BD31ADB081B045A
:10AFB00043F00503264A274918462DF022FF00BF1B
:10AFC0002DF0C6FF0346002BFAD100BF2DF0C0FFC5
:10AFD0000346002BFAD12049204802F01EFF034609
:10AFE00083F00103DBB2002B02D014200FF0B0FF7E
:10AFF000FFF7D2FE0346FB73FB8803F00203002B2E
:10B0000003D1FB881846FFF70DFFFB8803F001030F
:10B01000002BFEF799FF13F00FFB13F035FFFCF741
:10B02000EBFBFFF729FB03F0E5FD03F0A7FBFFF7C0
:10B03000E9FE10F00DFA05F0D7FD11F05BF900BF45
:10B040001037BD4680BD00BF702F0800102F0800CC
:10B05000D8800700C87C070040B90020C0B6002097
:10B0600080B500AFFFF7C6FE10F040FAFCF7DEFB3C
:10B0700013F0E8FA00BF80BD80B582B000AF10F0D9
:10B0800067F90346002B10D00CF00EF80346002B96
:10B090000BD011F0C7F80346002B06D0FCF758FB85
:10B0A0000346002B01D0012300E00023FB71FB7954
:10B0B00003F00103FB71FB7918460837BD4680BDDC
:10B0C00080B582B000AF00233B6000237B6000238B
:10B0D0003B603B68012B20D03B68032B1DDD3B68A8
:10B0E000062B1ADCA64A537843F004035370A54B91
:10B0F00000221A70A44AA54BD31ADB081B0443F0A4
:10B100000503A34918462DF06DFE00BF2DF020FF6A
:10B110000346002BFAD13B687B60386805F034FCAD
:10B120003868FFF7D9FD3B68002B1DDA994B93F87F
:10B13000E2310133DAB2974B83F8E221924A934B22
:10B14000D31ADB081B0443F00503924A92F8E2216C
:10B15000914918462DF055FE00BF2DF0F9FE03462B
:10B16000002BFAD13B688BE13B68002B11D0864A5B
:10B17000864BD31ADB081B0443F00500874A3B6863
:10B1800087492DF051FE00BF2DF0E2FE0346002B53
:10B19000FAD1FEF759FF38603B68002B12DA7A4A81
:10B1A0007A4BD31ADB081B0443F005033A687D4948
:10B1B00018462DF026FE00BF2DF0CAFE0346002BD8
:10B1C000FAD127E03B68002B04D06D4A137843F096
:10B1D000040313703B68012B03D1734805F0E1FCB5
:10B1E00018E03B68032B15DD3B68062B12DC664A32
:10B1F000664BD31ADB081B0443F005036B49184662
:10B200002DF0F0FD00BF2DF0A3FE0346002BFAD178
:10B210003B687B60386805F0B7FB3868FFF75CFD7A
:10B220003B68002B1DDA5B4B93F8E2310133DAB255
:10B23000584B83F8E221544A544BD31ADB081B04C1
:10B2400043F00503534A92F8E221534918462DF082
:10B25000D8FD00BF2DF07CFE0346002BFAD13B68E1
:10B260000EE13B68002B11D0474A484BD31ADB084C
:10B270001B0443F005004E4A3B6849492DF0D4FDBC
:10B2800000BF2DF065FE0346002BFAD1FCF768FAEB
:10B2900038603B68002B12DA3B4A3C4BD31ADB0880
:10B2A0001B0443F005033A68424918462DF0A9FDF6
:10B2B00000BF2DF04DFE0346002BFAD139E03B686C
:10B2C000012B05D12E4A137843F08003137030E030
:10B2D0003B681A2B02D100233B602AE03B68642BB9
:10B2E00006D1354805F05DFC2F4805F05AFC20E0FA
:10B2F0003B68032B1DDD3B68062B1ADC2E4805F04E
:10B3000050FC214A214BD31ADB081B0443F00503F0
:10B310002A4918462DF066FD00BF2DF019FE0346A0
:10B32000002BFAD13B687B60154A137843F0800309
:10B330001370386805F028FB3868FFF7CDFC3B68D0
:10B34000002B3DDA134B93F8E2310133DAB2114BA3
:10B3500083F8E2210C4A0D4BD31ADB081B0443F09F
:10B3600005030C4A92F8E2210B4918462DF049FDDD
:10B3700000BF2DF0EDFD0346002BFAD13B687FE0C6
:10B3800010B9002005420020702F0800102F08007F
:10B39000E47C070040B90020047D0700147D07000D
:10B3A000187D0700307D07009ABB0020487D07000C
:10B3B0006C7D0700747D070099BB00208C7D070021
:10B3C0003B68002B11D0304A304BD31ADB081B04EA
:10B3D00043F005002E4A3B682E492DF025FD00BFA5
:10B3E0002DF0B6FD0346002BFAD101F03BF8386092
:10B3F0003B68002B07D03B68032B04DD3B68062B22
:10B4000001DC3B687B60386805F0BEFA3868FFF7FE
:10B4100063FC3B68002B1DDA1F4B93F8E2310133CC
:10B42000DAB21D4B83F8E221174A184BD31ADB0816
:10B430001B0443F00503184A92F8E2211749184605
:10B440002DF0DFFC00BF2DF083FD0346002BFAD169
:10B450003B6815E03B68002B11D00B4A0B4BD31A0D
:10B46000DB081B0443F005000D4A3B6809492DF039
:10B47000DBFC00BF2DF06CFD0346002BFAD17B688E
:10B4800018460837BD4680BD702F0800102F0800F1
:10B49000AC7D0700187D070040B90020047D07003F
:10B4A000B07D070080B500AF094B1B7883F0010326
:10B4B000DBB2002B02D00F200FF04AFD054B00221B
:10B4C0001A70054B012283F8502100BF80BD00BFD8
:10B4D00006420020A0B6002040B9002080B584B00C
:10B4E00000AF0023FB600023BB6000237B60FFF7FD
:10B4F000E7FDF860FB68002B1ED0FB68032B04DD22
:10B50000FB68062B01DCFB68BB60FB68002B13DAD1
:10B51000724A734BD31ADB081B0443F00503FA6825
:10B52000704918462DF06DFC00BF2DF011FD03464B
:10B53000002BFAD1FB68CCE010F0CAF8F860FB6889
:10B54000002B1ADA654A664BD31ADB081B0443F05A
:10B550000503FA68644918462DF053FC00BF2DF02E
:10B56000F7FC0346002BFAD1FB6813F12C0F2DD109
:10B57000FFF798FF0023FB6028E0FB68032B25DD25
:10B58000FB68062B22DC594A537843F001035370C1
:10B59000524A534BD31ADB081B0443F005035449AA
:10B5A00018462DF01FFC00BF2DF0D2FC0346002BE7
:10B5B000FAD1FB68BB60BB68052B01D1522300E0C8
:10B5C00051231A460021002002F0F2FEF86805F02F
:10B5D000DBF9F868FFF780FBFB68002B1DDA454BB1
:10B5E00093F8E2310133DAB2424B83F8E2213B4A6D
:10B5F0003B4BD31ADB081B0443F005033D4A92F88A
:10B60000E2213D4918462DF0FCFB00BF2DF0A0FCC7
:10B610000346002BFAD1FB685BE003F0F7FA786091
:10B620007B68012B18D07B68032B15DD7B68062B0C
:10B6300012DC2A4A2A4BD31ADB081B0443F0050309
:10B640002E4918462DF0CEFB00BF2DF081FC03469D
:10B65000002BFAD17B68BB60786805F095F97868B3
:10B66000FFF73AFB7B68002B1DDA224B93F8E2319F
:10B670000133DAB21F4B83F8E221184A184BD31A70
:10B68000DB081B0443F005031A4A92F8E2211A4929
:10B6900018462DF0B6FB00BF2DF05AFC0346002BD8
:10B6A000FAD17B6815E07B68002B11D00B4A0C4B5C
:10B6B000D31ADB081B0443F00500114A7B681149CB
:10B6C0002DF0B2FB00BF2DF043FC0346002BFAD156
:10B6D000BB6818461037BD4680BD00BF702F0800FC
:10B6E000102F0800B87D0700D87D070010B9002092
:10B6F000F07D070040B90020047D0700107E0700A0
:10B70000347E0700187D070080B582B000AFFFF7D8
:10B7100079F978607B683B603B68002B05D0054A6F
:10B7200040F20B21386826F08FFD00BF0837BD4678
:10B7300080BD00BF3C7E070080B483B000AF0346ED
:10B74000FB80FB8803F003039BB218460C37BD4611
:10B750005DF8047B7047000080B483B000AF0346FF
:10B76000FB71FB79022B10D1154A137843F00103CA
:10B770001370134A13786FF341031370104A137850
:10B780006FF386131370012314E0FB79012B10D1A2
:10B790000B4A137843F002031370094A13786FF3CE
:10B7A00000031370064A13786FF386131370012396
:10B7B00000E0002318460C37BD465DF8047B704757
:10B7C00010B9002080B500AF14F0D0FE0346034A44
:10B7D0001360024B1B68184680BD00BF0842002062
:10B7E00080B400AF034B1B681846BD465DF8047B70
:10B7F000704700BF08420020F0B58BB006AF03468B
:10B80000FB710B46BB7113467B717F4A7F4BD31A8A
:10B81000DB081B0443F005037D4A7E4918462DF0E2
:10B82000F0FA00BF2DF094FB0346002BFAD100BFC5
:10B830002DF08EFB0346002BFAD1FB79002B13D0A1
:10B84000754A764B03F5C3731C6858689968DD68C0
:10B85000146050609160D5601C69586999691461E1
:10B86000506191619B8B9383BB79002B00F08980A1
:10B8700000200AF0B9FF0346FB72FB7A1846FFF777
:10B880006BFF034683F00103DBB2002B79D05E4AE5
:10B890005E4BD31ADB081B0443F0050360491846CE
:10B8A0002DF0A0FA00BF2DF053FB0346002BFAD178
:10B8B000554A564BD31ADB081B0443F0050359497C
:10B8C00018462DF08FFA00BF2DF042FB0346002BE7
:10B8D000FAD14D4A4D4BD31ADB081B0443F0050344
:10B8E0004F4918462DF07EFA00BF2DF031FB03467C
:10B8F000002BFAD101200AF077FF0346FB72FB7A96
:10B900001846FFF729FF034683F00103DBB2002B43
:10B9100037D03D4A3D4BD31ADB081B0443F00503E7
:10B920003F4918462DF05EFA00BF2DF011FB03468B
:10B93000002BFAD1344A354BD31ADB081B0443F0F1
:10B940000503394918462DF04DFA00BF2DF000FBD4
:10B950000346002BFAD12C4A2C4BD31ADB081B04CC
:10B9600043F005032E4918462DF03CFA00BF2DF098
:10B97000EFFA0346002BFAD1274A137843F040032D
:10B9800013707B79002B03D0FFF71CFFF86002E0F7
:10B99000FFF726FFF860214B1F4A03F5C3731468B5
:10B9A00050689168D5681C6058609960DD601469C2
:10B9B000506991691C6158619961928B9A83164B09
:10B9C0001A684FF0000E96465A684FF0000C9446E5
:10B9D0009A68002616466C4603F10C0528686968CB
:10B9E000AA68EB680FC42B8A2380714662463346EF
:10B9F000F86835F023FD084B00221A7000225A70B7
:10BA000000BF1437BD46F0BD702F0800102F08008E
:10BA1000EC800700C87C070010B9002040B9002066
:10BA2000547E07008C7E0700A47E070080B400AF20
:10BA300000BFBD465DF8047B704700002DE9F04172
:10BA40008CB006AF00233B6100237B61FFF7EEFF64
:10BA5000824A834BD31ADB081B0443F00503814958
:10BA600018462DF0BFF900BF2DF072FA0346002BE7
:10BA7000FAD17A4A7A4BD31ADB081B0443F0050348
:10BA8000794918462DF0AEF900BF2DF061FA034652
:10BA9000002BFAD1714A724BD31ADB081B0443F016
:10BAA0000503704918462DF09DF900BF2DF050FA9E
:10BAB0000346002BFAD16D4B00221A70FFF724FECB
:10BAC00005F068F8FFF70AFD38613B69002B14DACE
:10BAD000624A634BD31ADB081B0443F005033A693F
:10BAE000634918462DF08DF900BF2DF031FA034659
:10BAF000002BFAD108F0EAF81DE03B69012B1AD0BF
:10BB00003B69032B17DD3B69062B14DC534A544B6E
:10BB1000D31ADB081B0443F00503564918462DF0E1
:10BB200061F900BF2DF014FA0346002BFAD13B69EE
:10BB30007B6105F007FE3B69002B11D0474A484B5B
:10BB4000D31ADB081B0443F005004B4A3B694B4901
:10BB50002DF06AF900BF2DF0FBF90346002BFAD156
:10BB6000474B1B7819467869FEF7B6FD38613B698B
:10BB7000002B12DA394A3A4BD31ADB081B0443F084
:10BB800005033A693F4918462DF03BF900BF2DF0F7
:10BB9000DFF90346002BFAD101E13B69092B03D001
:10BBA0003B69082B40F0FB802C4A2D4BD31ADB0855
:10BBB0001B0443F00503344918462DF013F900BF68
:10BBC0002DF0C6F90346002BFAD1304B304A03F56D
:10BBD000D274154628686968AA68EB680FC428699A
:10BBE0006969AA6907C4AB8B23803B69082B53D1D1
:10BBF00008F06CF8194A1A4BD31ADB081B0443F0FF
:10BC00000503184918462DF0EDF800BF2DF0A0F9F6
:10BC10000346002BFAD1114A114BD31ADB081B043F
:10BC200043F005031B4918462DF0DCF800BF2DF04A
:10BC30008FF90346002BFAD1084A094BD31ADB08C7
:10BC40001B0443F00503074918462DF0CBF800BF4D
:10BC50002DF07EF90346002BFAD153E0702F080037
:10BC6000102F0800547E0700BC7E0700064200200B
:10BC7000CC7E0700EC7E0700147F0700187D0700CC
:10BC800005420020207F07003C7F070040B90020CC
:10BC900010B90020507F07003B69092B32D16F4A51
:10BCA0006F4BD31ADB081B0443F005036D4918469C
:10BCB0002DF098F800BF2DF04BF90346002BFAD178
:10BCC000664A674BD31ADB081B0443F00503664939
:10BCD00018462DF087F800BF2DF03AF90346002BE7
:10BCE000FAD15E4A5E4BD31ADB081B0443F005030E
:10BCF0005C4918462DF076F800BF2DF029F903466F
:10BD0000002BFAD10BF0D0F9034683F00103DBB22C
:10BD1000002B44D0554B564A03F5C3731468506842
:10BD20009168D5681C6058609960DD60146950693D
:10BD300091691C6158619961928B9A83474A484B7B
:10BD4000D31ADB081B0443F005034A4918462DF0BB
:10BD500049F800BF2DF0FCF80346002BFAD1FFF79D
:10BD600031FD0646424B1A684FF0000890465A686B
:10BD70004FF0000E96469A684FF0000C94466C46C1
:10BD800003F10C0528686968AA68EB680FC42B8A60
:10BD90002380414672466346304635F04FFB3B698F
:10BDA000092B06D03B69082B03D03B69002B80F29E
:10BDB000EA800BF079F90346002B00F0E480274A73
:10BDC000274BD31ADB081B0443F005033A692A49C1
:10BDD00018462DF016F800BF2DF0BAF80346002BD8
:10BDE000FAD13B69002B19DA09F02CFA3B6913F1FF
:10BDF0003E0F04D16FF03D00FEF76EFF62E00023BE
:10BE0000FB71FB1D184627F017FB1C4B4FF4FA6221
:10BE10001A60FB79184627F025FB53E009F006FA73
:10BE2000174B5B78092B03D0154B5B780A2B29D174
:10BE3000134B1B7D302B25D13B69092B22D10023CD
:10BE4000BB71BB1D184627F0F7FA0C4B40F2DC52D1
:10BE50001A60BB79184627F005FB20E0702F080018
:10BE6000102F0800547E0700647F070040B90020AF
:10BE700010B90020787F0700987F0700B0440020A9
:10BE8000C0B6002000237B717B1D184627F0D4FA32
:10BE90008B4B64221A607B79184627F0E3FA894AB3
:10BEA000894BD31ADB081B0443F00503844A12684C
:10BEB000864918462CF0A5FF00BF2DF049F803462F
:10BEC000002BFAD13B6913F1170F4BD17D4A7E4B02
:10BED000D31ADB081B0443F005037D4918462CF0F8
:10BEE00081FF00BF2DF034F80346002BFAD1754ACC
:10BEF000754BD31ADB081B0443F00503754918463C
:10BF00002CF070FF00BF2DF023F80346002BFAD170
:10BF10006C4A6D4BD31ADB081B0443F005036C49D4
:10BF200018462CF05FFF00BF2DF012F80346002BDF
:10BF3000FAD1694B1B889BB21846FFF7FDFB0346FD
:10BF40001A46654B1A80644A137843F04003137015
:10BF500056220021002002F02BFA012200210020AD
:10BF6000FFF74AFC574A584BD31ADB081B0443F02F
:10BF700005035A4918462CF035FF00BF2CF0E8FFA6
:10BF80000346002BFAD13B69002B11D04D4A4E4B92
:10BF9000D31ADB081B0443F00500514A3B695149A1
:10BFA0002CF042FF00BF2CF0D3FF0346002BFAD148
:10BFB0000BF07AF80346002B1AD0474B1B889BB234
:10BFC000002B15D03F4A404BD31ADB081B0443F02B
:10BFD0000503454918462CF005FF00BF2CF0B8FFBB
:10BFE0000346002BFAD1012201210020FFF704FCB7
:10BFF0007B69002B01D000237B6100233B713B1D3B
:10C00000184627F019FA394B1B68FB602C4B1B684C
:10C01000BB603B79184627F025FABB68002B04D19A
:10C02000FFF72AF80346002B05D1FB6844F620628F
:10C03000934200D842E5234A234BD31ADB081B0462
:10C0400043F00500FB68BA6829492CF0EDFE00BFFB
:10C050002CF07EFF0346002BFAD11A4A1A4BD31A52
:10C06000DB081B0443F00503224918462CF0BAFEF6
:10C0700000BF2CF06DFF0346002BFAD102F01AFD31
:10C080001D4801F093FE02F0BBFD1C4B01221A700B
:10C090000C4A0D4BD31ADB081B0443F00503184967
:10C0A00018462CF09FFE00BF2CF052FF0346002BD9
:10C0B000FAD100BF00BF1837BD46BDE8F08100BF10
:10C0C000B0440020702F0800102F0800C07F070028
:10C0D000547E0700E87F070010B9002000800700A9
:10C0E00014800700187D07001C800700B84400205A
:10C0F0003C8007006C80070040B900200642002009
:10C100008080070080B586B002AF6E4A6E4BD31AAE
:10C11000DB081B0443F005036C4918462CF062FE53
:10C1200000BF2CF015FF0346002BFAD1654A664B81
:10C13000D31ADB081B0443F00503654918462CF0AD
:10C1400051FE00BF2CF004FF0346002BFAD15D4ADC
:10C150005D4BD31ADB081B0443F005005D4A5E49C2
:10C160005E4B00930B465E492CF074FE00BF2CF032
:10C17000EFFE0346002BFAD14FF08043D3F8003492
:10C18000BB60504A504BD31ADB081B0443F0050335
:10C19000BA68544918462CF034FE00BF2CF0D8FE83
:10C1A0000346002BFAD1BB6803F00203002B10D02A
:10C1B000444A454BD31ADB081B0443F005034A49A4
:10C1C00018462CF00FFE00BF2CF0C2FE0346002BD9
:10C1D000FAD14FF080531B6E3B604FF080535B6E83
:10C1E0007B60384A384BD31ADB081B0443F0050345
:10C1F0003E4A3F4918462CF004FE00BF2CF0A8FE32
:10C200000346002BFAD10023FB602AE02D4A2E4B77
:10C21000D31ADB081B0443F00500FB689B003A4679
:10C2200013441B681A4633492CF0EBFD00BF2CF079
:10C230008FFE0346002BFAD1F9682F4BA3FB012395
:10C240001A0913461B019B1A5B00CA1A002A05D162
:10C2500000BF2CF07DFE0346002BFAD1FB680133B2
:10C26000FB60FB68012BD1D9164A174BD31ADB08A8
:10C270001B0443F00503214918462CF0B3FD00BF11
:10C280002CF066FE0346002BFAD100BF2CF060FEB6
:10C290000346002BFAD10B4A0B4BD31ADB081B04C5
:10C2A00043F00503094918462CF09CFD00BF2CF013
:10C2B0004FFE0346002BFAD100BF00BF1037BD462A
:10C2C00080BD00BF702F0800102F080004810700F8
:10C2D0003C81070000BC0700E0BB0700ECBB070087
:10C2E0004C81070060810700788107008C8107007E
:10C2F00098810700A081070089888888A8810700A5
:10C3000080B582B002AF13F049FAFFF7FBFE06F0EA
:10C31000B7F9FBF767FA39F007F906F017FA03F0F7
:10C3200029FF002006F02CFA0020FEF737FE184AFD
:10C33000184BD31ADB081B0443F00500164A1749B3
:10C34000174B00930B4617492CF084FD00BF2CF0CF
:10C35000FFFD0346002BFAD10123012212491348A5
:10C3600000F0F4FAFFF76AFB0BF0B6FC084A094B41
:10C37000D31ADB081B0443F005030D4918462CF0C3
:10C3800031FD00BF2CF0E4FD0346002BFAD1CEE7CF
:10C39000702F0800102F080000BC0700E0BB07004A
:10C3A000ECBB07004C81070040B90020C0B600205C
:10C3B000AC81070080B584B000AF78607B68002B4B
:10C3C0000AD0074B43F00103FB607B689B01BB6015
:10C3D000FB68B868984700E000BF1037BD4680BDD5
:10C3E0005082070080B582B000AF78607B68002B78
:10C3F0000AD04FF47A70FFF7DDFF7B68013B7B606A
:10C400007B68002BF5D100E000BF0837BD4680BD3A
:10C4100080B5A4B000AF5023FB716E23BB7107231E
:10C420007B710023C7F88C3007F1080382220021BA
:10C43000184647F073FA05F085F9BA1D791DF81D05
:10C44000012312F00EFDFA7907F108031146184690
:10C4500012F0F6FCF97907F108030022184639F0CA
:10C46000D9F8EAE72DE9F0438BB004AF2DF066FB75
:10C470000346FB72FB7AFF2B00F07781BE4ABF4B6D
:10C48000D31ADB081B0443F00503FA7ABC491846AB
:10C490002CF0B7FC00BF2CF05BFD0346002BFAD15B
:10C4A000FB7A613B182B00F2618101A252F823F064
:10C4B0005BC702006DC70200A7C6020015C50200D7
:10C4C00025C50200B3C602006DC70200BBC602004C
:10C4D00055C602006DC7020065C702006DC70200A5
:10C4E0006DC702006DC702009BC602006DC7020047
:10C4F0007FC502006DC7020095C60200D9C60200C2
:10C5000019C502006DC702002BC502006DC70200ED
:10C51000D1C6020063232AE1FC220021002001F0A1
:10C5200047FF23E102F0E8F820E100233B810023EC
:10C53000FB601FE03B8901339BB23B818E4A8F4BEE
:10C54000D31ADB081B0443F00503FA688D4918462B
:10C550002CF057FC00BF2CF0FBFC0346002BFAD15B
:10C5600007F1080300220021184601F021FFFB68B3
:10C570000133FB60FB68B3F5FA6FDBD3F6E0002311
:10C580007B6162E07C4A7D4BD31ADB081B0443F0DD
:10C5900005037A697C4918462CF033FC00BF2CF067
:10C5A000D7FC0346002BFAD100233B612DE0724AF1
:10C5B000724BD31ADB081B0443F00504786901F0C1
:10C5C0007CFC02463B6913441B781A466F4920469F
:10C5D0002CF017FC00BF2CF0BBFC0346002BFAD15B
:10C5E00039696B4BA3FB01231A0913461B019B1AE4
:10C5F0005B00CA1A002A05D100BF2CF0A9FC034633
:10C60000002BFAD13B6901333B613B690F2BCED93B
:10C61000594A5A4BD31ADB081B0443F005035D4902
:10C6200018462CF0DFFB00BF2CF092FC0346002BD9
:10C63000FAD100BF2CF08CFC0346002BFAD101206C
:10C64000FFF7D0FE7B6901337B617B69B3F5FA6F3D
:10C6500098D38BE0484A494BD31ADB081B0443F0BC
:10C6600005034D4A4D4918462CF0CBFB00BF2CF07A
:10C670006FFC0346002BFAD100BF2CF069FC034687
:10C68000002BFAD101200AF0AFF84FF47A70FFF7CF
:10C69000A9FEF7E70BF020FB68E040F6B831012077
:10C6A0000AF0F2F862E04FF4FA7102200AF0ECF8B6
:10C6B0005CE0032009F076FF58E0002300934FF47C
:10C6C000FA734FF4FA720321032017F0C1F94DE019
:10C6D000334814F0BBF949E0274A284BD31ADB084A
:10C6E0001B0443F0050413F0F1FD03461B78984644
:10C6F00013F0ECFD034601331B78994613F0E6FD79
:10C70000034602331B781D4613F0E0FD0346033356
:10C710001B781E4613F0DAFD034604331B787B605A
:10C7200013F0D4FD034605331B7803937B68029313
:10C73000019600954B4642461A4920462CF0D8FBFC
:10C7400000BF2CF005FC0346002BFAD100BF2CF0F3
:10C75000FFFB0346002BFAD108E001F0C7FF00F011
:10C76000E9F803E001F0DAFB00E000BF002318461F
:10C770001C37BD46BDE8F083702F0800102F08005D
:10C78000BC810700D0810700E4810700F481070025
:10C7900089888888FC8107004082070000820700A2
:10C7A000088207001882070080B400AF00BFBD46B2
:10C7B0005DF8047B7047000080B584B000AF7860FE
:10C7C0007B68002B0AD0074B43F00103FB607B68BA
:10C7D0009B01BB60FB68B868984700E000BF10375A
:10C7E000BD4680BD6088070080B582B000AF78602C
:10C7F0007B68002B0AD04FF47A70FFF7DDFF7B686F
:10C80000013B7B607B68002BF5D100E000BF08375F
:10C81000BD4680BD80B582B000AF7860184A194B24
:10C82000D31ADB081B0443F00503174A17491846BF
:10C830002CF0E7FA00BF2CF08BFB0346002BFAD15B
:10C8400000BF2CF085FB0346002BFAD10C4A0D4BA0
:10C85000D31ADB081B0443F005037A680C49184619
:10C860002CF0CFFA00BF2CF073FB0346002BFAD15B
:10C87000786801F0F5FF00BF0837BD4680BD00BFF6
:10C88000702F0800102F0800288807005882070022
:10C890006082070080B582B000AF7860184A194BFB
:10C8A000D31ADB081B0443F00503174A174918463F
:10C8B0002CF0A7FA00BF2CF04BFB0346002BFAD15B
:10C8C00000BF2CF045FB0346002BFAD10C4A0D4B60
:10C8D000D31ADB081B0443F005037A680C49184699
:10C8E0002CF08FFA00BF2CF033FB0346002BFAD15B
:10C8F000786801F0C3FF00BF0837BD4680BD00BFA8
:10C90000702F0800102F0800448807005882070085
:10C910006082070080B582B000AF786039607868C7
:10C92000FFF778FF3868FFF7B5FF00BF0837BD464F
:10C9300080BD000080B500AF02490348FFF7EAFF61
:10C9400000BF80BD40B90020C0B60020F0B59DB04A
:10C9500004AFF860B96011461A460B46FB711346E6
:10C96000BB71FB79002B00F0B387BB4ABB4BD31ADA
:10C97000DB081B0443F00500FB68F2331A46B84994
:10C980002CF03FFA00BF2CF0E3FA0346002BFAD15B
:10C99000B14AB24BD31ADB081B0443F00500B14A7D
:10C9A000B14B1B78B1492CF03FFA00BF2CF0D0FA04
:10C9B0000346002BFAD100BF2CF0CAFA0346002B25
:10C9C000FAD1A54AA54BD31ADB081B0443F0050096
:10C9D000FB6893F8F2301A46A5492CF012FA00BF12
:10C9E0002CF0B6FA0346002BFAD19B4A9B4BD31A84
:10C9F000DB081B0443F005039E4A9F4918462CF0B0
:10CA000000FA00BF2CF0A4FA0346002BFAD1002351
:10CA1000FB652BE0904A914BD31ADB081B0443F0D3
:10CA20000500FB6803F1F302FB6D13441B781A4603
:10CA300092492CF0E6F900BF2CF08AFA0346002B4D
:10CA4000FAD1F96D8E4BA3FB01231A0913461B0182
:10CA50009B1A5B00CA1A002A05D100BF2CF078FA95
:10CA60000346002BFAD1FB6D0133FB65FB6D022BF6
:10CA7000D0D9794A794BD31ADB081B0443F005035C
:10CA8000804918462CF0AEF900BF2CF061FA03463D
:10CA9000002BFAD100BF2CF05BFA0346002BFAD131
:10CAA0006D4A6E4BD31ADB081B0443F00500FB688C
:10CAB00093F8F6301A4674492CF0A3F900BF2CF015
:10CAC00047FA0346002BFAD1634A644BD31ADB08BA
:10CAD0001B0443F00500FB689B781A466B492CF059
