:020000021000EC
:10C0000000000120B9AD0300E1AD0300AD9D0200C9
:10C01000E5AD0300E7AD0300E9AD0300000000005B
:10C02000000000000000000000000000EBAD030075
:10C03000EDAD030000000000EFAD0300F1AD030023
:10C0400079360300F3AD0300ED150300BD2C0300AA
:10C0500065230300F3AD030091140300C116030030
:10C06000F3AD03002522030039220300F3AD0300E2
:10C07000F3AD0300F52B0300F3AD0300F3AD0300B4
:10C0800085160300713E0300F3AD0300F3AD03001A
:10C09000F3AD0300F3AD030099760300F3AD0300A5
:10C0A000F3AD0300F3AD03004D2203006122030052
:10C0B000F3AD0300F3AD030000000000000000003A
:10C0C000F3AD0300F3AD0300F3AD0300F3AD0300E4
:10C0D000F3AD0300F3AD0300F3AD03000000000077
:10C0E0000000000000000000000000000000000050
:10C0F0000000000000000000000000000000000040
:10C10000000000000000000000000000000000002F
:10C11000000000000000000000000000000000001F
:10C12000000000000000000000000000000000000F
:10C1300000000000000000000000000000000000FF
:10C1400000000000000000000000000000000000EF
:10C1500000000000000000000000000000000000DF
:10C1600000000000000000000000000000000000CF
:10C1700000000000000000000000000000000000BF
:10C1800000000000000000000000000000000000AF
:10C19000000000000000000000000000000000009F
:10C1A000000000000000000000000000000000008F
:10C1B000000000000000000000000000000000007F
:10C1C000000000000000000000000000000000006F
:10C1D000000000000000000000000000000000005F
:10C1E000000000000000000000000000000000004F
:10C1F000000000000000000000000000000000003F
:10C2000010B5054C237833B9044B13B10448AFF390
:10C2100000800123237010BD402800200000000092
:10C22000E051040008B5034B1BB103490348AFF3C9
:10C23000008008BD0000000044280020E0510400F8
:10C24000154B002B08BF134B9D46A3F5803A0021E8
:10C250008B460F461348144A121A1FF0D9F80F4B99
:10C26000002B00D098470E4B002B00D098470020A1
:10C27000002104000D000D48002802D00C48AFF347
:10C2800000801EF06DFF2000290002F013FF1EF059
:10C2900053FF00BF00000800000001200000000064
:10C2A0000000000040280020409F00200000000007
:10C2B0000000000008B50A4817F010FB094B0A48B7
:10C2C0001A680A4B0A49C01AC008000440F0050069
:10C2D0001AF00AFE1AF0AEFC0028FBD108BD00BF20
:10C2E000602800208028002028530400C852040041
:10C2F000F0CF030070B50388112B6CD0522B00F0E7
:10C300009280102B66D1584C584B5949E41AE408D6
:10C31000240444F0050420461AF0E2FD1AF08AFCD9
:10C320000028FBD1534920461AF0DAFD1AF082FCAE
:10C330000028FBD14E4920461AF0D2FD1AF07AFCB3
:10C3400005460028FAD14C4B05225A7101260222DB
:10C350005A701E709A7006F0FDFE484B484A4948D4
:10C360001D60314617F07CFA30F0080303D0464ACE
:10C370007A2117F0B5F9454800224FF4005117F023
:10C380008BFA18B1404A802117F0AAF9404B1A786D
:10C3900002BB404A106840F6B83188421AD8116092
:10C3A0002046012232491A701AF09AFD1AF042FC16
:10C3B0000028FBD1384920461AF092FD1AF03AFCC9
:10C3C0000028FBD12A4920461AF08AFD1AF032FCD7
:10C3D0000028FBD170BD244C244B2549E41AE40805
:10C3E000240444F0050420461AF07AFD1AF022FCD9
:10C3F0000028FBD1294920461AF072FD1AF01AFCD8
:10C400000028FBD11A4920461AF06AFD1AF012FCE6
:10C410000028FBD1184B5871587006F09BFEBDE800
:10C420007040FFF747BF104C104B1149E41AE40865
:10C43000240444F0050420461AF052FD1AF0FAFBD9
:10C440000028FBD1164920461AF04AFD1AF0F2FBEB
:10C450000028FBD1064920461AF042FD1AF0EAFBFB
:10C460000028FBD1B6E700BF28530400C8520400DF
:10C470000CD0030042D003008D95002080280020BE
:10C48000A5C40100D4D003004ED0030060280020D2
:10C4900085280020CC31002064D0030075D0030033
:10C4A00084D0030008B50F4B1A68FA321A601A6874
:10C4B00042F210739A4214D90B4B5B78022B10D1C5
:10C4C0000A480B4B0B49C01AC008000440F0050095
:10C4D0001AF006FD1AF0AEFB0028FBD1064B012234
:10C4E0001A7008BD802800208D9500202853040074
:10C4F000C8520400A6D003008428002013B50023EE
:10C500000DF107008DF8073017F01EFD044B9DF864
:10C5100007005C7817F048FDE4B2204602B010BD79
:10C520008D95002007B5134B1348144A1449C01ABF
:10C53000C008000440F005001AF0D6FC1AF07AFB9F
:10C540000028FBD11AF076FB0028FBD18DF80700FC
:10C550000DF1070017F0F8FC0A4B9DF807000122C7
:10C560005A7017F021FD0CF0DFFAFFF7A3FE03B0BD
:10C570005DF804FBC852040028530400C8D003002F
:10C58000C0D003008D95002008B5064B1A781AB16B
:10C5900000221A70FFF7C6FF06F060FB024B5B78C3
:10C5A00008BD00BF842800208D95002000F0C0BE8B
:10C5B00010B5FFF7E9FF154B1C7894B1144B1B78AD
:10C5C000023B012B20D906F063FA00F0FDFD044682
:10C5D00010B900F05FFE0446102C04D10D4B01226F
:10C5E0001A70204610BD622C03D10BF0EFFC6424BE
:10C5F000F7E7084B1A78012AF3D11A2CF1D100225F
:10C600001A700BF0E3FCECE70024EAE760960020E8
:10C61000589B00208628002001480CF005BB00BF75
:10C62000F5C20100084A08B500231370074A1370C9
:10C63000074A137006F068FA06F0C6FA00F07AFEB0
:10C64000BDE8084006F088BD589B00208D9500206D
:10C650008528002008B506F0FFFA00F06DFEBDE861
:10C66000084006F077BD00002DE9F84F7B4DB5F886
:10C670003234042B52D17A4A7A4C7B49A41AE4080A
:10C68000240444F00504794A20461AF036FC1AF0D6
:10C69000D1FA0028FBD1764FDFF8FC81064617F867
:10C6A000012B414620461AF01FFC1AF0C3FA00285D
:10C6B000FBD11EB91AF0BEFA0028FBD10136042EB8
:10C6C000EDD16C4920461AF00BFC1AF0B3FA0028A1
:10C6D000FBD11AF0AFFA0028FBD1B5F82222664947
:10C6E000A5F8342420461AF0FFFB1AF0A3FA00281C
:10C6F000FBD1B5F83424B2F5007F0BD95F494FF474
:10C70000007320461AF0F9FB1AF094FA0028FBD1C6
:10C71000012073E000F0EEFE00206FE0B5F8341465
:10C720004A1D9A42F8DA05F50874002204312046C1
:10C7300018F07AFA0746B5F83404043020440EF0B5
:10C740000AFA0EF03FFA474C454B4D49E41AE4080B
:10C75000240444F0050406463A4620461AF0C4FB79
:10C760001AF068FA0028FBD14649324620461AF0F2
:10C77000BBFB1AF05FFA0028FBD1B74264D1B5F8D1
:10C7800032344149A5F8303420461AF0A9FB1AF09A
:10C7900051FA0028FBD1B5F832343C4A3C492046D6
:10C7A0001AF0ABFB1AF046FA0028FBD1DFF8C08084
:10C7B000DFF8E4A0DFF8E4B006464FF01409B5F85E
:10C7C00032349E421CD32B4920461AF089FB1AF0C2
:10C7D00031FA0028FBD11AF02DFA0028FBD12A49A2
:10C7E00020461AF07DFB1AF025FA0028FBD1A5F8A7
:10C7F0003404A5F83204C5F838040220BDE8F88FE7
:10C8000018F8012B514620461AF06EFB1AF012FA66
:10C810000028FBD1771CB7FBF9F309FB13733BB975
:10C82000594620461AF05CFB1AF004FA0028FBD1A6
:10C830001E23B6FBF3F003FB10661EB91AF0FAF9DB
:10C840000028FBD13E46BAE7124920461AF048FBC1
:10C850001AF0F0F90028FBD15AE700BFA028002009
:10C86000C852040028530400E3D00300D8D00300CA
:10C87000C02A0020B7D20300F6D003000CD1030079
:10C8800033D1030045D103000CD0030056D103007F
:10C890005DD103006CD10300F0D00300B6D20300D9
:10C8A0000388502B25D004D8102B0ED0112B10D07C
:10C8B0007047572B1CD1114BB3F80422C2B11A7820
:10C8C000022A15D101225A7070470D4B00221A70AE
:10C8D00070470C4A0023A2F83434A2F83234C2F86C
:10C8E0003834064AA2F80432A2F808320123137041
:10C8F0007047034A13780133DBB2F8E7E02C0020DD
:10C90000EC2E0020A02800202DE9F04F4C4B4D4C80
:10C910004D4AE41AE408240485B044F00504CDE946
:10C9200001104A4920461AF0DFFA1AF083F900286C
:10C93000FBD11AF07FF907460028FAD140F2E9331B
:10C940000093434B43F0010380460393019B9845BA
:10C9500001D1012722E0019BA3EB0806142E029BC4
:10C96000A8BF142603EB08095FFA86FA4946504629
:10C970000CF01CF943F2040398425646054630D0A9
:10C9800013282ED0052801D008280BD13149204684
:10C990001AF0A6FA1AF04EF90028FBD1384605B075
:10C9A000BDE8F08F00283DD12B4A2C495346204644
:10C9B0001AF0A3FA1AF03EF90028FBD14FF01E0B33
:10C9C000AA451AD1264920461AF08AFA1AF032F9F5
:10C9D0000028FBD11AF02EF90028FBD1B0441FFA31
:10C9E00088F80A25039B4FF47A409847013DF9D116
:10C9F000009B013B0093A9D1D0E719F8012B1949FD
:10CA000020461AF071FA1AF015F90028FBD1B5FB8F
:10CA1000FBF30BFB13531BB91AF00CF90028FBD1E5
:10CA20000135CDE7104920461AF05AFA1AF002F9FA
:10CA30000028FBD10D4AE721284616F051FED0E729
:10CA4000C852040028530400B9D20300C0D0030028
:10CA5000E0D2030078D10300DED10300E3D003006D
:10CA6000B7D20300F0D0030082D103008CD10300C1
:10CA70002DE9F04F954B964D964AED1AED0889B089
:10CA80002D0445F0050500900F46284692491AF0FE
:10CA90002BFA1AF0CFF80028FBD11AF0CBF8064693
:10CAA0000028FAD1FFF72AFD02280AD08B49284630
:10CAB0001AF016FA1AF0BEF80028FBD109B0BDE84A
:10CAC000F08F874C8749207028461423A4F804620D
:10CAD000B7FBF3F3A4F806620193A4F802721AF00C
:10CAE000FFF91AF0A7F80028FBD17F4A7F493B469F
:10CAF00028461AF002FA1AF09DF80028FBD1DFF858
:10CB000008A2DFF808B206464FF01409B74253D81E
:10CB1000774928461AF0E4F91AF08CF80028FBD17E
:10CB20001AF088F80028FBD16E4928461AF0D8F987
:10CB30001AF080F80028FBD1DFF8D4B106464FF098
:10CB40001408019AB3B29A425BD8B7FBF8F208FB1B
:10CB5000127292B2002AB1D0DDE9001303A808FBDB
:10CB60000311A4F808221EF045FC94F8086203A9FA
:10CB700030460CF01BF843F204029042A4F80A621B
:10CB800002D0132840F08780B4F804325948324666
:10CB900003A918441EF02EFCB4F80432B4F80A229B
:10CBA000554913442846A4F804321AF099F91AF0AA
:10CBB00041F80028FBD181E7009B51469A5D284649
:10CBC0001AF092F91AF036F80028FBD106F10108A4
:10CBD000B8FBF9F309FB13833BB9594628461AF011
:10CBE0007FF91AF027F80028FBD11E23B6FBF3F0DB
:10CBF00003FB10661EB91AF01DF80028FBD146464B
:10CC000084E7009B08FB06F903EB090A142251464E
:10CC100003A81EF0EFFB03A914200BF0C7FF43F29B
:10CC200004029042A4F80A8201D0132811D1A7EB84
:10CC3000090751462F483A461EF0DCFB2F49A4F85D
:10CC4000047228461AF04CF919F0F4FF0028FBD1C1
:10CC500034E770B9B4F80632594614332846A4F8BC
:10CC600006321AF03DF919F0E5FF0028FBD1013634
:10CC700067E70828FBD0052807D10023A4F8043271
:10CC8000A4F808320123237018E71D4A40F233113B
:10CC900016F026FDEBE768B9B4F8062219491644E8
:10CCA0002846A4F806621AF01BF919F0C3FF002801
:10CCB000FBD103E708283FF401AF0528DDD0104A77
:10CCC0004FF4A87116F00CFDF8E600BFC85204003E
:10CCD00028530400CED20300C0D00300A9D1030022
:10CCE000E02C00200CD00300DAD103005DD103005A
:10CCF000B7D20300E22C0020F2D10300E1D10300FF
:10CD00008CD10300FBD10300F0D00300B6D20300A6
:10CD1000EAD103002DE9F84F764B774C774DE41AB2
:10CD2000E408B5F83E84240444F0050411FA88F8B8
:10CD300007460E46204672491AF0D2F81FFA88F8C4
:10CD4000A94619F077FF0028FBD16E4A6E49334699
:10CD500020461AF0D2F819F06DFF0028FBD1DFF859
:10CD6000C4B105464FF01E0AAE4276D86749204648
:10CD70001AF0B6F819F05EFF0028FBD119F05AFF3F
:10CD80000028FBD1B8F5007FC0F0A480B9F83EA41C
:10CD9000B9F83E04CAF1000A0AF0FF0A52463946C1
:10CDA000A6EB0A0619FA80F007EB0A081EF022FB30
:10CDB0003246414651481EF01DFBB3B2A9F83E343D
:10CDC000B9F83E24524992B220461AF08DF819F073
:10CDD00031FF0028FBD14F49524620461AF084F813
:10CDE00019F028FF0028FBD14B4A4C4920461AF085
:10CDF0007BF819F01FFF0028FBD1DFF828B10546AA
:10CE00004FF01E09AA453CD8404920461AF068F860
:10CE100019F010FF0028FBD119F00CFF0028FBD1FE
:10CE20003F4A3E4920461AF05FF819F003FF0028F8
:10CE3000FBD1DFF8F09005461E27AE4235D13349CD
:10CE400020461AF04DF819F0F5FE0028FBD119F034
:10CE5000F1FE0028FBD1BDE8F88F7A5D59462046E7
:10CE60001AF042F819F0E6FE0028FBD1B5FBFAF300
:10CE70000AFB13531BB919F0DDFE0028FBD1013565
:10CE800072E77A5D594620461AF02EF819F0D2FE64
:10CE90000028FBD1B5FBF9F309FB13531BB919F0BB
:10CEA000C9FE0028FBD10135ACE718F8012B494633
:10CEB00020461AF019F819F0BDFE0028FBD1B5FB89
:10CEC000F7F307FB13531BB919F0B4FE0028FBD18D
:10CED0000135B2E7B9F83E043246394619FA80F016
:10CEE0001EF088FAB9F83E1416FA81F6B6B2A9F81F
:10CEF0003E64B0E7C852040028530400A028002074
:10CF00000CD0030056D10300E3D00300B7D20300D6
:10CF100003D203000FD203001AD2030033D203005E
:10CF200039D20300F0D003002DE9F74F954C0023D0
:10CF30000DF107008DF8073017F006F8B4F83E54ED
:10CF40009DF8070017F030F8B4F83C34ADB29D42BC
:10CF500033D9ED1AADB2002601277DB3B4F83C04F5
:10CF6000B4F83214421C92B24B1C9BB2B2F5007F53
:10CF70002144205CA4F83C2428BFA4F83C64B3F509
:10CF8000007FA4F8323481F8200236D294F8382495
:10CF9000002A4AD194F83934002B40F0E28094F80A
:10CFA0003A34002B40F0E58094F82032022B0CD16B
:10CFB00084F83874013DADB2CFE703D3002003B04D
:10CFC000BDE8F08F05F50075C3E7402B02D184F86A
:10CFD0003974EFE7802B02D184F83A74EAE76A48A3
:10CFE0006A4B6B49C01AC008000440F0050019F0F4
:10CFF00077FF19F01FFE0028FBD16348634B65499A
:10D00000C01AC008000440F0050019F069FF19F0CB
:10D0100011FE0028FBD1604BA4F834040122A4F8CF
:10D020003204C4F838041A70C9E7022B04D194F80A
:10D030002132A4F83434BDE7B4F834140A1D9A42FE
:10D04000B8DA033189B255484F4D0DF0A5FEB4F85A
:10D05000343453492344074693F824924B4BED1A3A
:10D06000ED082D0445F005050246284619F03CFF61
:10D0700019F0E0FD0028FBD14A494A46284619F03C
:10D0800033FF19F0D7FD0028FBD14749284619F096
:10D0900027FF19F0CFFD0028FBD1B4F83234434A02
:10D0A0004349284619F029FF19F0C4FD0028FBD197
:10D0B000DFF810A106464FF0140BB4F832349E424C
:10D0C00021D33C49284619F00BFF19F0B3FD002885
:10D0D000FBD119F0AFFD0028FBD13349284619F0E8
:10D0E000FFFE19F0A7FD0028FBD14F4530D1B4F861
:10D0F0003234A4F83404A4F83204C4F83804A4F890
:10D10000303401205BE71AF8012B2B49284619F02F
:10D11000EBFE19F08FFD0028FBD106F10108B8FBEA
:10D12000FBF30BFB13833BB92449284619F0D8FEC7
:10D1300019F080FD0028FBD11E23B6FBF3F003FBA2
:10D1400010661EB919F076FD0028FBD14646B4E7FB
:10D150001B49284619F0C4FE19F06CFD0028FBD1CC
:10D160004BE7FFF781FA022809D001287FF422AFAC
:10D1700043E7FFF779FA0228F7D11E201FE71B20AB
:10D180001DE700BFA028002028530400C852040057
:10D1900044D2030088D2030087280020C12A00203F
:10D1A00059D203006BD203000CD0030056D1030008
:10D1B0005DD10300B7D20300F0D00300B6D2030064
:10D1C0007CD20300C02A002073B5204C0DF107006B
:10D1D00000258DF8075016F0B7FE66789DF8070019
:10D1E000F6B216F0E1FEEEB10DF107008DF8075032
:10D1F00016F0AAFE9DF80700657016F0D5FE1448DB
:10D20000144B1549C01AC008000440F0050019F07D
:10D2100067FE19F00FFD0028FBD1B4F804120F4887
:10D22000FFF726FCB4F80222B4F806329A4209D17C
:10D230002378022B06D10023A4F80432A4F8083284
:10D240000123237005F022FA02B070BDE02C00200B
:10D2500028530400C85204009AD20300E22C002094
:10D2600038B50B4DB5F8301405F5087005F068FFBA
:10D27000044658B9FFF758FE012807D1B5F8301415
:10D2800005F50870BDE8384005F062BF204638BD9E
:10D29000A028002010B586B0FFF746FE01280446FE
:10D2A0000ED11F48B0F8301400F5087004F08CFB64
:10D2B000044640F6C41004F063FA204606B010BDE0
:10D2C0001B2821D11748184B1849C01AC008000460
:10D2D00040F0050019F004FE19F0ACFC0028FBD169
:10D2E0000623012101A88DF80430FFF7C1FB0C498A
:10D2F00001A8B1F8302401F5087105F0B5FA019BD9
:10D30000012B18BF1C46D8E71E28D6D0431CD4D109
:10D310001523012101A88DF80430FFF7A9FBCCE704
:10D32000A028002028530400C8520400AFD20300F4
:10D3300005F0A0B905F08EBA13B50E4B1B78B3B14A
:10D3400000240DF107008DF8074016F0FDFD4FF4A5
:10D350008862214608481EF05BF808484FF40372C3
:10D3600021461EF055F89DF8070016F01DFE02B08C
:10D3700010BD00BF87280020A0280020E02C00203E
:10D3800026280CD006D850B1083803288CBF0020BE
:10D3900001207047A0F1890358425841704701208D
:10D3A0007047000010B5094C627B6AB1002104F19E
:10D3B0000E000DF07DFB38B1627B04F10E00FF2101
:10D3C000BDE810400DF074BB10BD00BFCE9800202A
:10D3D00010B5074B5B780A2B08BF89230B700446F6
:10D3E0000449054808221EF005F8044B5C7310BD83
:10D3F000809600206C9D0020DC980020CE980020B4
:10D4000008B51049104805221DF0F4FF0F491048D7
:10D4100001221DF0EFFF0F490F4801221DF0EAFF26
:10D420000E48032200210DF043FB28B10B480322D4
:10D43000FF210DF03DFB18B90423094A537308BDC1
:10D440000723FAE7C4950020DC980020CD95002042
:10D45000E1980020CF950020E2980020E09800207D
:10D46000CE980020002808B506DD054802F074FEBD
:10D47000BDE808400AF0AABDBDE8084002F090B837
:10D480008096002010B50A460C46014602481DF061
:10D49000B1FF024B1C7010BDF02E0020F82E0020B2
:10D4A00008B50D480D4B0E4A0E49C01AC0080004BD
:10D4B00040F0050019F018FD19F0BCFB0028FBD165
:10D4C00019F0B8FB0028FBD1074B1870074B1870F8
:10D4D000074B01225A7008BD28530400C8520400AB
:10D4E00046D60300C0D00300EF2E0020EE2E002011
:10D4F000589B002008B50B480B4B0C4A0C49C01A2E
:10D50000C008000440F0050019F0EEFC19F092FB91
:10D510000028FBD119F08EFB0028FBD1054B02221D
:10D520005A7008BD28530400C852040056D60300A0
:10D53000C0D00300589B002038B51148114B124A47
:10D540001249C01AC008000440F0050019F0CCFCD4
:10D5500019F070FB0028FBD119F06CFB0446002881
:10D56000FAD10B4D297A05F10900FFF78BFF21460F
:10D57000284611221DF04CFFBDE83840FFF790BF50
:10D5800028530400C852040067D60300C0D003002B
:10D59000639D00201A481B4B1B4A1C49C01AC00837
:10D5A000000410B540F0050019F09EFC19F042FB94
:10D5B0000028FBD119F03EFB04460028FAD1144B99
:10D5C00001461870082213481DF022FF112221463F
:10D5D00011481DF01DFF7022214610481DF018FF54
:10D5E0000F48082221461DF013FF0E4B1C700E4BF6
:10D5F0001C700E4B5C700E4B1C600E4B1C7010BDF3
:10D6000028530400C85204007AD60300C0D0030097
:10D61000F82E0020F02E0020639D0020C0950020F1
:10D62000F92E0020EF2E0020EE2E0020589B002027
:10D63000A0310020012F00202DE9F04F85B0FF23FD
:10D640008DF80F30974B5B78023B012B04D80024F8
:10D65000204605B0BDE8F08F11F036F90028F6D06D
:10D66000914B1A681AB1914A1278002AEFD04FF400
:10D6700016721A608E4D8F4B8F4A9049ED1AED0845
:10D680002D0445F00505284619F02EFC19F0D2FAB4
:10D690000028FBD119F0CEFA0028FBD1834F3B784C
:10D6A000002B40F08A801921854B864A08F0D2FF72
:10D6B00085490446284619F013FC19F0BBFA0028E6
:10D6C000FBD182492246284619F00EFC19F0B2FA25
:10D6D0000028FBD17C49284619F002FC19F0AAFA6F
:10D6E00006460028FAD1012C794B2AD193F83E3115
:10D6F000312B06D1724B187BFFF742FE08B10BF0BD
:10D700000BF874492246284619F0EEFB19F092FAFC
:10D710000028FBD1012C40F068836F486F4A037AE0
:10D7200012789A4236D16E4909301DF055FE88BBF9
:10D730006C49284619F0D4FB19F07CFA0028FBD17B
:10D7400085E7E11D9A780CD1312ADAD1664811F0CB
:10D75000B5FB0028D5D0604B07221E741A72012435
:10D76000CFE7312A0DD16149284619F0B9FB19F0EC
:10D7700061FA01460028FAD1102251481DF048FEF6
:10D78000EDE793F83E01A0F1310CDCF1000444EB2D
:10D790000C04B6E74A49564B087B1870FFF7F0FDBA
:10D7A00048B151480DF094F9002840D1514B012265
:10D7B0001A70FFF7F7FD01233B704F4F01973B783D
:10D7C000002B7FF444AF4A4C2078FFF7D9FD0028A6
:10D7D00000F0A4803E4E96F82431312B3FF437AF51
:10D7E000444B1A781AB901221A70FFF7DBFD434B3C
:10D7F0005B78002B3FF42BAF2378002B40F08E801A
:10D80000B378312B00F08A8096F88831312B40F0C4
:10D81000E9820AF081FF6FF0480439492246284620
:10D8200019F062FB19F006FA0028FBD110E7354E1B
:10D83000FFF7E6FD737B344A3449284619F05DFB57
:10D8400019F0F8F90028FBD1DFF8C880DFF8C8A08C
:10D8500004464FF01E09737B9C420CD32C4928468A
:10D8600019F03EFB19F0E6F90028FBD119F0E2F9B6
:10D870000028FBD19AE718F8012B5146284619F0E9
:10D8800033FB19F0D7F90028FBD1B4FBF9F309FBFE
:10D8900013430BB10134DEE719F0CCF90028FBD1BA
:10D8A000F8E700BF589B0020A0310020EE2E00209A
:10D8B00028530400C852040088D60300C0D00300D7
:10D8C000C095002035FC03000CD0030039D50300BF
:10D8D000809600206BD50300639D0020F82E002069
:10D8E000F02E00208BD503006C9D00204ED5030048
:10D8F000ED2E0020012F0020EF2E0020609600204A
:10D9000036D60300CE980020A0D50300E3D0030054
:10D91000B7D20300DC980020F0D003002278262A3A
:10D920006BD8262A70D8DFE802F0AE147E8082849D
:10D9300086888A8C8E90926F6F6F6F9496989A9C5F
:10D940009EA0A2A4A6A8AA6F6F6F6F6F6F6F6F6F74
:10D95000AC009A4A9A49284619F0C6FA19F06AF9B1
:10D960000028FBD1974EB378312B00F09680964972
:10D9700096480B7B8DF80F300DF0AAF8002800F0C8
:10D980001481DFF8F082FFF73BFD98F80D30904AE4
:10D990009049284619F0B1FA19F04CF90028FBD14A
:10D9A000DFF8D892DFF8D8B207464FF01E0A98F891
:10D9B0000D209742C0F0E3808749284619F090FA7D
:10D9C00019F038F90028FBD119F034F90028FBD1FF
:10D9D0003378012B75D022781A2A03D87F4BD34095
:10D9E000DF076ED47E4800F0A3FE002869D1B3782B
:10D9F000312B60D06FF024040FE7BC2A45D00CD83F
:10DA0000892A44D0A52A44D07649284619F06CFAD0
:10DA100019F010F90028FBD1A4E7BD2A3BD0FE2A5B
:10DA2000F2D1714A96E7714A94E7714A92E7714AD6
:10DA300090E7714A8EE7714A8CE7714A8AE7714A2A
:10DA400088E7714A86E7714A84E7714A82E7714A3A
:10DA500080E7714A7EE7714A7CE7714A7AE7714A4A
:10DA600078E7714A76E7714A74E7714A72E7714A5A
:10DA700070E7714A6EE7714A6CE7714A6AE7714A6A
:10DA800068E7714A66E7714A64E7714A62E7714A7A
:10DA900060E7714A5EE7714A5CE72078FFF770FC47
:10DAA00000283FF464AF6E49284619F019FA19F0BE
:10DAB000C1F80028FBD16B4B0DF10F01187AFFF76D
:10DAC00087FC019A68480123137003F0BEFE674982
:10DAD000284619F005FA19F0ADF80028FBD1644981
:10DAE000284619F0FDF919F0A5F80028FBD15F4987
:10DAF000284619F0F5F919F09DF80028FBD15D4F83
:10DB00009DF80F205C49BA70284619F0EDF919F01C
:10DB100091F80028FBD19DF80F30262B00F2B2803F
:10DB2000002B00F05D81013B252B00F25981DFE8DD
:10DB300013F0060157015701570157010C01570116
:10DB4000B400AC00B4005701570157015701570109
:10DB50005701570157012101260157013B012901B6
:10DB600042002F013E0157012C0157015701570177
:10DB7000570157015701570157015701B40019F8D0
:10DB8000012B5946284619F0AFF919F053F800282F
:10DB9000FBD1B7FBFAF20AFB12720AB1013706E7B2
:10DBA00019F048F80028FBD1F8E7B378312B82D080
:10DBB0006FF00A0431E663244AE500BF01D5030093
:10DBC000A9D5030080960020C09500206C9D002000
:10DBD000A0D50300E3D00300B7D203001E008006E7
:10DBE000C9950020B4D5030022D5030011D303004A
:10DBF00020D303002FD303003ED303004ED30300F2
:10DC00005FD3030071D3030085D303009BD30300CC
:10DC1000AFD30300C4D30300D9D30300ECD3030074
:10DC200003D4030013D4030029D4030039D4030020
:10DC30004DD403005FD403006FD4030089D40300E4
:10DC4000A0D40300ADD40300C1D40300FED203006E
:10DC5000D5D40300E5D4030010D50300E6D20300B9
:10DC6000D6D50300639D0020599B00200CD00300F3
:10DC7000E9D50300CE98002004D60300DC980020EC
:10DC8000F0D00300892B40F0AB80797B5B4804F037
:10DC900075FE044600287FF4DBAC594B93F8303115
:10DCA000042B3FF4D4AC9DF80F20262A05D17378BD
:10DCB000093B012B94BF09220822B378312B0AD1EA
:10DCC000504B7A7B4D49012003F0FCFB0446002CAD
:10DCD000BFF6BEAC13E071780A2917D102F07F03BA
:10DCE000092B14BF00230123B3B94749284619F073
:10DCF000FBF818F09FFF0028FBD16FF0100440489C
:10DD000001F016FC00233B707B70A1E48A4201D035
:10DD1000892AE6E70123E7E7892A0ED10939012993
:10DD20000BD8082006F0ACFA0821364A042008F087
:10DD3000FBFC01280446C3D0C9E70721F5E709F039
:10DD40001BFB0446FFF78EFB82E4304B30499C7B83
:10DD5000322C08BF07232246284608BFBB7019F0A3
:10DD6000C3F818F067FF0028FBD1204609F080FBBC
:10DD700004466DE4274B987909F01EF8F8E709F09E
:10DD800059F9DEE709F08AF9DBE708F0F1FDEFE782
:10DD9000002007F033FC012802D14FF0FF3457E494
:10DDA00009F0BEFF042453E409F094FBE0E71449B2
:10DDB000194802F0D3F90028EFD1144BD97B587BD6
:10DDC000A1F131046142A0F131056141684268412D
:10DDD000012209F021FF104802F0BEF90AF0F6F81E
:10DDE000012435E46FF0410417E5002C3FF42FAC1B
:10DDF000E31D7FF412AD10F071FF28E4DC980020E1
:10DE000000990020D095002018D60300C09500206E
:10DE100028D60300639D00208096002010B50B4695
:10DE2000104900228A70104991F82441312C16D0F3
:10DE3000B4F1320118BF012101220EF0CFFE0B4BCD
:10DE40000B4896221A6000210C221DF0E1FA094AC3
:10DE500000231370084A1370084A137010BD012183
:10DE6000EBE700BF589B002080960020A4310020E3
:10DE70003A960020032F0020052F0020042F0020B9
:10DE80000EF09CBE08B500F003FCB0F57A6F05D823
:10DE9000BDE808404FF47A6000F022BC08BD0000E5
:10DEA00038B5134D2B78012B0C461CD102291AD101
:10DEB0000A4610491DF090FA0146B0B90E480822F2
:10DEC00001721DF0A5FA2C700C4D4FF4FA7445F058
:10DED00001054FF47A40A847013CFAD1192009F016
:10DEE00039FFFFF7CFFF012038BD0020FCE700BF5E
:10DEF0008C950020182600203A96002020D7030099
:10DF000008B5124A1378022B1CD1022918D8002315
:10DF1000137001290CBF037843780D49303BDBB205
:10DF200081F826300B4B312183F814120A4B002163
:10DF300019721B200323137009F00CFFFFF7A2FFD7
:10DF4000012002E0D81E18BF012008BD8C950020DA
:10DF500080960020009900203A960020014B002274
:10DF60001A7070478C9500200F48104B104A1149C9
:10DF7000C01AC008000410B540F0050018F0B4FF46
:10DF800018F058FE0028FBD118F054FE0446002873
:10DF9000FAD101460C2208481DF03AFA074B1C60E2
:10DFA000074B1C7010BD00BF28530400C85204006A
:10DFB0000DD70300C0D003003A960020A431002002
:10DFC000032F00202DE9F74F0EF0EEFDB64B9B78A6
:10DFD000023B012B064604D80024204603B0BDE8CE
:10DFE000F08FB24BDFF818831B781BB998F85031CB
:10DFF000012BF1D098F83031042BEDD0AC4F97F8CD
:10E000004C32312B01D03D2EE6D0AA4C00230DF12D
:10E0100007008DF8073015F097FF25689DF8070079
:10E0200015F0C2FF002DD7D1A34B1A7802B11D7095
:10E03000A6F1300A5FFA8AF9B9F10D0F9F4B02D9A8
:10E0400001221A70C8E71A78002AC5D000229C4D18
:10E050001A709C4B9C49ED1AED082D0445F00505FE
:10E06000284618F03DFF18F0E5FD0028FBD1DFF849
:10E0700094B29649DBF80020284618F035FF18F0D6
:10E08000D9FD0028FBD19049284618F029FF18F047
:10E09000D1FD0028FBD1DBF80030C72B9CD98DF8CF
:10E0A00007000DF1070015F04FFF96239DF80700BC
:10E0B000236015F079FF062009F04CFE82492846BE
:10E0C00018F00EFF18F0B6FD0028FBD1804952462B
:10E0D000284618F009FF18F0ADFD0028FBD17A4959
:10E0E000284618F0FDFE18F0A5FD01460028FAD1DB
:10E0F000B9F1090F48D88DF807000DF1070015F0A8
:10E1000023FF744B744C19689DF8070040F6B73232
:10E1100091429CBF40F6B8321A6015F045FF237A51
:10E12000052B00F20D815A1C22726C49E6542246DE
:10E13000284618F0D9FE18F07DFD0028FBD1237A7F
:10E140003BB106F0E3FC237A012B02D9644803F0CB
:10E150007CFB217A6048FFF7A3FE002800F0F380E3
:10E160000024231F022B00F2CF805B4B00221A7287
:10E170005C4B1B78032B7FF430AF1A2009F0EAFDCB
:10E180004B4801F0E9FF28E73A2E0FD15248082208
:10E1900001721DF03DF9544B1C780134E4B21C703F
:10E1A000052C4FF0FF3498BF0024DAE73D2E28D12C
:10E1B00097F84C32312BD3D14748047A2CB9494BCC
:10E1C00001221A70FFF75EFECBE72146FFF798FEAB
:10E1D0000028C5D1404C4549227A284618F084FED3
:10E1E000A14618F027FD04460028FAD199F8081036
:10E1F000394804F0D7FB824608B389F808400F2459
:10E20000EBE63B2E36D197F84C32334C312B06D10E
:10E21000217A71B9334B01221A70FFF733FE237A4A
:10E22000002BD7D1324B1C780134E4B21C70022C85
:10E23000B7E72046FFF764FE0028F0D1CAE799F857
:10E240000810254803F030F92A4989F808A0044647
:10E250000246284618F048FE18F0ECFC0028FBD1D6
:10E260007B78093B012B02D9234803F0EEFAFFF734
:10E270007BFE76E71449284618F032FE18F0DAFCE7
:10E280000028FBD11D490122284618F02DFE18F068
:10E29000D1FC0028FBD10C49284618F021FE18F0CB
:10E2A000C9FC0028FBD15BE7589B0020609600204A
:10E2B00080960020A4310020022F0020032F002090
:10E2C00028530400C85204000CD0030095D6030064
:10E2D000ACD60300CC3100203A960020C2D6030011
:10E2E000599B00208C950020042F0020D3D60300DA
:10E2F000052F0020DDD603005A9B0020F5D6030031
:10E3000000990020C8310020002C0EDA0F4A0023AB
:10E310001372302287F8263088F8303188F81422BA
:10E32000A8F8183188F81A3157E67FF456AE3A2E1D
:10E330003FF452AE064B1C78B4FA84F464094CE600
:10E340006FF0170449E64FF0FF3446E63A96002096
:10E350008C95002008B51748174B184A1849C01A61
:10E36000C008000440F0050018F0BEFD18F062FC83
:10E370000028FBD118F05EFC0028FBD1114B5A7D20
:10E38000322A10D0FF2A11D040F6C41041F2883151
:10E39000312A08BF08461B7D302B08BF0020BDE88E
:10E3A000084007F025B942F21070F4E74FF47A7094
:10E3B000F1E700BF28530400C852040083D70300CC
:10E3C000C0D003008096002007F04EBD031F022B33
:10E3D0002DE9F04105460F4655D807F035FC0028D9
:10E3E00051D0002009F0B6FC052D41D0644B654E9C
:10E3F000062D0EBF4FF003084FF001081E466B1F9D
:10E40000012B39D9604C614B6149E41AE4082404BA
:10E4100044F00504204618F063FD18F00BFC0028BA
:10E42000FBD15C493246204618F05EFD18F002FC34
:10E430000028FBD15649204618F052FD18F0FAFB8F
:10E440000028FBD1052D04D00CF088F8524BC3F8FE
:10E450004401404607F06AF910F14C0F044600F001
:10E460008C8017B1072009F075FC2046BDE8F081CB
:10E470004A4E4FF00208C2E700F0F5F90028C1D07B
:10E480006FF03D04F1E707F06DFE40B1444B03220D
:10E4900000211A7059705722084601F061FF07F0F9
:10E4A000DDFB022824D0032845D0012865D1364C55
:10E4B000364B3749E41AE408240444F005042046A6
:10E4C00018F00EFD18F0B6FB0028FBD135492046A8
:10E4D00018F006FD18F0AEFB0028FBD12C492046B1
:10E4E00018F0FEFC18F0A6FB0028FBD10924BCE7BD
:10E4F00007F08EFD244C254B2549E41AE40824043A
:10E5000044F00504204618F0EBFC18F093FB0028BB
:10E51000FBD12549204618F0E3FC18F08BFB0028BE
:10E52000FBD11B49204618F0DBFC18F083FB0028C8
:10E53000FBD1082499E7144C144B1549E41AE4085C
:10E54000240444F00504204618F0CAFC18F072FBBD
:10E550000028FBD11549204618F0C2FC18F06AFBD0
:10E560000028FBD10A49204618F0BAFC18F062FBDB
:10E570000028FBD16FF0160477E7002475E700BF91
:10E5800031D703004B1E040028530400C852040076
:10E590000CD003003BD703000099002026D70300CE
:10E5A000CE9800204FD7030061D7030074D7030033
:10E5B00041DF704737B5041E18DA0F2009F0CAFB97
:10E5C00003F04AF900230DF107008DF8073015F02C
:10E5D000BBFC284B9DF807004FF47A721A6015F0C7
:10E5E000E3FC204601F0AEFF03B030BD0F2C02D19A
:10E5F00004F05CFAF8E7632C25D10AF0D7FD1E4839
:10E600001E4B1F49C01AC008000440F0050018F056
:10E6100067FC18F00FFB0028FBD11A4D642445F06D
:10E6200001054FF47A40A847013CFAD1BFF34F8F60
:10E630001549164BCA6802F4E0621343CB60BFF37E
:10E640004F8F00BFFDE7622C02D109F0BFFCCBE782
:10E65000022CC9D100230DF107008DF8073015F009
:10E6600073FC044B9DF8070064221A6015F09CFCB3
:10E67000BAE700BFCC31002028530400C852040080
:10E6800092D7030080DA030000ED00E00400FA05F1
:10E6900013B500230DF107008DF8073015F054FC79
:10E6A0000B4B9DF807001C6815F07EFC09480A4BCF
:10E6B0000A49C01AC0080004224640F0050018F0BC
:10E6C00013FC18F0B7FA0028FBD1204602B010BDA9
:10E6D000CC31002028530400C8520400A3D7030003
:10E6E00013B5002304460DF107008DF8073015F02F
:10E6F0002BFC0B4B9DF807001C6015F055FC0948DE
:10E70000094B0A491B1ADB081B04224643F005008B
:10E7100018F0EAFB18F08EFA0028FBD102B010BD09
:10E72000CC310020C852040028530400B9D703009C
:10E73000F8B5264B264C274A2749E41AE408240456
:10E7400044F0050406460323204618F0D6FB18F0D3
:10E7500071FA05460028FAD1204F725D39462046ED
:10E7600018F0C2FB18F066FA0028FBD11DB918F0AA
:10E7700061FA0028FBD10135032DEED1184920465E
:10E7800018F0AEFB18F056FA0028FBD118F052FA38
:10E7900004460028FAD101461B221248114F0CF002
:10E7A00087F988B11B22FF2138460CF081F958B156
:10E7B00025460322791930461CF00EFE20B10335A0
:10E7C0001B2DF6D12046F8BD0124FBE7C8520400FA
:10E7D00028530400CFD70300E3D00300F0D0030098
:10E7E000B7D203008097002008B51048104B114A9B
:10E7F0001149C01AC008000440F0050018F074FB6D
:10E8000018F018FA0028FBD118F014FA0028FBD1F0
:10E810000A4B1B7D302B06D106F0F0FE02280CBF00
:10E820000520042008BD0620FCE700BF2853040093
:10E83000C85204004FDA0300C0D0030080960020C5
:10E8400008B50DF0E3F905288CBF0020012008BDB4
:10E8500008B50DF0DBF91E2803D8FFF7F1FF012002
:10E8600008BD0020FCE708B50DF0D0F916288CBFD4
:10E870000020012008BD00207047000001480CF076
:10E8800099BD00BF8097002001480CF099BD00BFE2
:10E8900080970020024B93F8F3000CF0E4B900BF1E
:10E8A0008096002008B503480CF055F9BDE80840F3
:10E8B0000CF0E2B97497002070B504F075FD0446C1
:10E8C00008B904F05FFD0CF00BF8054608B90CF030
:10E8D00017F80BF069FD06460DB90CF007F80CB9F6
:10E8E00004F048FD304670BD38B52A4B2A4A2B4902
:10E8F00004462B481B1ADB081B0443F0050018F0E4
:10E90000F3FA18F097F90028FBD118F093F90028D2
:10E91000FBD12449244801F021FC10B9142009F04E
:10E9200019FAFFF795FFA307054603D484BB0C2013
:10E9300009F010FAB4FA84F029464009FFF76EFA9C
:10E9400040F201131C4203D040F6C410FFF706FB4F
:10E95000FEF720FE0AF02AFE0BF00CF8FDF762FE2F
:10E96000FFF7F8FC01F0F6FF01F0AEFE1E220021D9
:10E970000E481CF04DFD0E4A012313700D4A5370D2
:10E980001370937002F070FFBDE8384009F002BFC9
:10E990000B20CDE72853040061DA0300C0D0030048
:10E9A000C85204000099002080960020CE980020D4
:10E9B000062F00206096002008B5FDF74BFEBDE84D
:10E9C00008400AF0F5BD00002DE9F74FBB4BBC4DE8
:10E9D000BC49ED1AED082D0445F00505284618F050
:10E9E0007FFA18F027F90028FBD1B749284618F01C
:10E9F00077FA18F01FF90028FBD1B249284618F021
:10EA00006FFA18F017F90028FBD1B04FDFF814A304
:10EA1000DFF81493DFF814833870FFF7C9FD20B1D5
:10EA2000524640F20B2114F05BFE02F00DFFFFF79F
:10EA3000C9FA041E80F2B180A5492246284618F082
:10EA400053FA18F0F7F80028FBD14FF0000B2046DE
:10EA500002F040FE2046FFF7ADFD002C80F2B380AF
:10EA60009C4B9D4993F8E2210132D2B2284683F8AB
:10EA7000E22118F039FA18F0DDF80028FBD1231F45
:10EA8000022B40F2AF81002C80F2DF8193492246B5
:10EA9000284618F029FA18F0CDF80028FBD1904943
:10EAA0002246284618F020FA18F0C4F80646002836
:10EAB000FAD105F081F98B4A8B492346284618F094
:10EAC0001CFA18F0B7F80028FBD199F8001030466E
:10EAD000FFF77CFC041E80F2DB8184492246284635
:10EAE00018F002FA18F0A6F80028FBD1A4F10803E8
:10EAF000012B40F23982002CC0F236824CB17C4AA4
:10EB000079492346284618F0F8F918F093F80028B8
:10EB1000FBD100230DF107008DF8073015F014FA32
:10EB2000744B9DF807001E68D8F8004015F03CFAB9
:10EB300044B907F089F828B109F0E2FD10B1FDF7FA
:10EB400035FD20B944F620639E427FF666AF6A49E0
:10EB500033462246284618F0D0F918F06BF8002802
:10EB6000FBD16649284618F0BBF918F063F8002875
:10EB7000FBD101F0B7FE574801F0CCFA01F0ECFEF2
:10EB800001235F493B70284618F0AAF918F052F8A3
:10EB90000028FBD103B0BDE8F08F231F022B3FF606
:10EBA00054AF584A5849537843F0040353702846E9
:10EBB000002389F8003018F093F918F03BF800288A
:10EBC000FBD1A34643E724D1FEF736FD041E2BDA22
:10EBD0004E492246284618F087F918F02BF80028ED
:10EBE000FBD1204602F076FD2046FFF7E3FC002C27
:10EBF00033DA384B384993F8E2210132D2B2284651
:10EC000083F8E22118F070F918F014F80028FBD10D
:10EC100035E73F4A34492346284618F06EF918F084
:10EC200009F80028FBD1CFE7DBD0364A1378012C56
:10EC300043F00403137003D1364802F006FED0E718
:10EC4000231F022BCDD83449284618F049F917F074
:10EC5000F1FF0028FBD1A346C3E724D1FDF7A8FCB0
:10EC6000041E65DA2D492246284618F03DF917F0B2
:10EC7000E1FF0028FBD1204602F02CFD2046FFF7E3
:10EC800099FC002C7EDA134B134993F8E2210132F0
:10EC9000D2B2284683F8E22118F026F917F0CAFF0D
:10ECA0000028FBD1EBE61E4A0F492346284618F000
:10ECB00024F917F0BFFF0028FBD1CFE7C8520400AA
:10ECC000285304000CD00300DBD70300072F0020DB
:10ECD000FFD703000099002027FA0300BFD80300E4
:10ECE00005D9030048D9030039D8030051D90300DE
:10ECF000F5D90300C8310020FBD9030029DA03004D
:10ED00003DDA0300CE98002019D8030051D8030043
:10ED1000D0F003005A9B002068D8030089D8030074
:10ED20009EDC0300E8D70300062F0020CC31002032
:10ED3000012C05D1B94A137843F0800313709AE788
:10ED40001A2C1DD0642C06D1B54802F07EFDB548C2
:10ED500002F07BFD8FE7231F022B8CD8B04802F016
:10ED600074FDB149284618F0BBF817F063FF00287E
:10ED7000FBD1AA4A137843F080031370A3467AE7C5
:10ED8000002478E71FD100F063FA0646041F022C26
:10ED900094BF04465C4602F09DFC3046FFF70AFC37
:10EDA000002E1BDAA14BA24993F8E2210132D2B224
:10EDB000284683F8E22118F097F817F03BFF002867
:10EDC000FBD134465BE69B4A9B492346284618F014
:10EDD00094F817F02FFF0028FBD1D4E72AD1002C9C
:10EDE0007FF44DAE01F0BAFD031F022B064608D892
:10EDF0009249284618F074F817F01CFF0028FBD140
:10EE00003446304602F066FC3046FFF7D3FB002E56
:10EE10001DDA864B864993F8E2210132D2B22846A8
:10EE200083F8E22118F060F817F004FF0028FBD106
:10EE3000344634E6824A80493346284618F05DF865
:10EE400017F0F8FE0028FBD1C9E70024CAE709D073
:10EE50007C4A79493346284618F04FF817F0EAFE05
:10EE60000028FBD1012C0FD0231F022B0BD8764991
:10EE7000284618F035F817F0DDFE0028FBD103F026
:10EE800069FE264617E60CB1002614E626461CE667
:10EE9000A4F10803012B3FF62EAE6C49284618F06A
:10EEA0001FF817F0C7FE0028FBD1204603F0B0FD85
:10EEB0005A4B674A03F1180E9C4618685968164663
:10EEC00003C6083373453246F7D1186830609B8813
:10EED000B380082C2BD104F06FFF5E49284617F051
:10EEE000FFFF17F0A7FE0028FBD15B49284617F06B
:10EEF000F7FF17F09FFE0028FBD15649284617F070
:10EF0000EFFF17F097FE0028FBD106F09DFE0028CA
:10EF10007FF4ECAD414B514A03F11C0153F8040B53
:10EF200042F8040B8B42F9D11B881380DEE59CF874
:10EF3000020005F0BDFD4749284617F0D1FF17F044
:10EF400079FE0028FBD14649284617F0C9FF17F083
:10EF500071FE0028FBD13F49284617F0C1FF17F08A
:10EF600069FE0028FBD1D0E706F06EFE00283FF4D2
:10EF7000C5AD3C492246284617F0B6FF17F05AFEA9
:10EF800006460028FAD1002C72DA05F02BFD14F1A8
:10EF90003E0F0BD12046FFF70DFB3349284617F0F3
:10EFA0009FFF17F047FE0028FBD1A7E50DF10700F2
:10EFB0008DF8076014F0C8FF4FF4FA639DF807005E
:10EFC000C8F8003014F0F0FF14F1170FE5D1214913
:10EFD000284617F085FF17F02DFE0028FBD12349A6
:10EFE000284617F07DFF17F025FE0028FBD11949B0
:10EFF000284617F075FF17F01DFE01460028FAD1CC
:10F00000064B1A8802F003021A801A7842F0400276
:10F010001A70562201F0A4F9BFE700BFCE98002075
:10F02000599B00205A9B00209FD803000099002084
:10F0300027FA03005DEB030039D80300DDD8030095
:10F0400069D40300FFD8030023D903006DD903005E
:10F05000A49A00200CD003007FD90300869A0020D8
:10F0600092D90300A4D90300E1D90300C9D9030050
:10F0700005F0AEFC0E4B1B7D302B10D1092C0ED1B0
:10F080000DF107008DF8076014F05EFF40F2DC53CD
:10F090009DF80700C8F8003014F086FF7DE70023D4
:10F0A0000DF107008DF8073014F04EFF6423EFE7F1
:10F0B000809600208FB50AF067FE544C544B55499A
:10F0C000E41AE408240444F00504204617F008FF7D
:10F0D00017F0B0FD0028FBD14F49204617F000FF84
:10F0E00017F0A8FD0028FBD14C4D4D4E4D4F4E4919
:10F0F000009733462A46204617F009FF17F09AFD7D
:10F100000028FBD14FF080434849D3F800842046C3
:10F11000424617F0E9FE17F08DFD0028FBD118F0EC
:10F12000020F07D04249204617F0DAFE17F082FDA1
:10F130000028FBD14FF080533E4A3F49D3F86090FE
:10F14000D3F86480204617F0CFFE17F073FD002837
:10F15000FBD13A494A46204617F0C6FE17F06AFD31
:10F160000028FBD117F066FD0028FBD13349424649
:10F17000204617F0B9FE17F05DFD0028FBD130499D
:10F18000204617F0ADFE17F055FD0028FBD117F013
:10F1900051FD0028FBD11F49204617F0A1FE17F0B2
:10F1A00049FD0028FBD1039004F032F9FDF734FA51
:10F1B00004F046F902F0CAF90398DFF86C80DFF832
:10F1C0008890DFF888A004F05FF90398FFF78CFBC4
:10F1D000009733462A464146204617F098FE17F01E
:10F1E00029FD0028FBD10123494650461A4600F06C
:10F1F000DFF9FFF7E9FB06F0EBFF1249204617F0B5
:10F200006FFE17F017FD0028FBD1E1E7285304003B
:10F21000C85204000CD0030086DA0300350B04004A
:10F22000200B04002C0B040095DA0300A8DA03007D
:10F23000C0DA0300D2DA030033D20300F0D00300B7
:10F24000B7D20300DBDA030000990020809600208B
:10F250002DE9F04389B018F00FF9C4B2FF2C01D1A9
:10F26000002048E08A4D8B4B8B49ED1AED082D04A8
:10F2700045F005052246284617F036FE17F0DAFC61
:10F280000028FBD1613C182CEAD801A353F824F0E4
:10F290007FF4010061F2010005F40100F5F20100C4
:10F2A00009F301000DF4010061F2010015F4010001
:10F2B000BDF3010061F2010089F4010061F2010077
:10F2C00061F2010061F20100F9F3010061F2010055
:10F2D00049F3010061F20100F3F3010031F4010090
:10F2E000FDF2010061F201000FF3010061F2010083
:10F2F00029F40100632009B0BDE8F0830021FC225D
:10F30000084601F02DF8ABE701F0BAF9A8E70026AE
:10F31000624FADF81E60BDF81E30324601333946EB
:10F320002846ADF81E3017F0DFFD17F083FC0028EB
:10F33000FBD10246014601360DF11E0001F010F826
:10F34000B6F57A7FE7D18BE7554FDFF86C81002661
:10F3500047F0010732464146284617F0C5FD17F031
:10F3600069FC0028FBD1DFF854910446304600F0D8
:10F370002AFF4946025D284617F0B6FD17F05AFCF1
:10F380000028FBD11CB917F055FC0028FBD1013433
:10F39000102CEBD14349284617F0A2FD17F04AFC88
:10F3A0000028FBD117F046FC0028FBD14FF47A402F
:10F3B0000136B847B6F57A7FCCD151E73A4A3B4996
:10F3C000284617F091FD17F035FC0028FBD117F007
:10F3D00031FC0028FBD1324C44F00104012006F03E
:10F3E0000DF94FF47A754FF47A40A047013DFAD1F8
:10F3F000F4E706F0EDFE33E740F6B831012006F001
:10F40000D9FB2DE74FF4FA710220F8E7032006F04C
:10F410008DF925E700244FF4FA73032100941A466E
:10F4200008460CF0D1FD1BE721480BF0CDF917E79A
:10F430000AF0BAFF027805920AF0B6FF4378049307
:10F440000AF0B2FF84780AF0AFFFC6780AF0ACFF8A
:10F4500007790AF0A9FF4179DDE90432CDE90271AB
:10F46000CDE900461349284617F07BFD17F0E2FB73
:10F470000028FBD117F0DEFB0028FBD1F0E601F0FD
:10F48000FDF800F08DF8EBE600F0AEFEE8E600BF18
:10F4900028530400C8520400EADA0300FCDA03002F
:10F4A00060DB0300B7D2030052DB0300C0D00300CF
:10F4B0001EDB03002DDB030010DB0300F0D0030094
:10F4C00070470000024B4FF47A4043F001031847A5
:10F4D00000E1030038B5114C114B124A1249E41AED
:10F4E000E408240444F005040546204617F0FCFC1B
:10F4F00017F0A0FB0028FBD117F09CFB0028FBD1E4
:10F500000A492A46204617F0EFFC17F093FB002823
:10F51000FBD12846BDE8384001F014B92853040057
:10F52000C85204005EE00300C0D0030066DB0300A5
:10F5300038B5114C114B124A1249E41AE40824045C
:10F5400044F005040546204617F0CEFC17F072FB88
:10F550000028FBD117F06EFB0028FBD10A492A4690
:10F56000204617F0C1FC17F065FB0028FBD12846A8
:10F57000BDE8384001F0ECB828530400C85204003C
:10F580007AE00300C0D0030066DB030010B50C4630
:10F59000FFF7A0FF2046BDE81040FFF7C9BF0000FD
:10F5A00001490248FFF7F2BF009900208096002031
:10F5B0002DE9F04F87B005460F460593002A40F02D
:10F5C0002B81059B002B00F00581844B844C854AE0
:10F5D0008549E41AE408240444F00504082320467D
:10F5E00017F08BFC17F026FB0028FBD1DFF8088210
:10F5F0003E46054616F8012F4146204617F074FC9A
:10F6000017F018FB0028FBD1002D00F047850135CD
:10F61000082DEFD17549204617F062FC17F00AFB60
:10F620000028FBD117F006FB0028FBD17B7C704A39
:10F630007049204617F061FC17F0FCFA0028FBD156
:10F6400017F0F8FA0028FBD1DFF8C4A1DFF8C4B145
:10F6500007F1120805462B46524659462046EEB29F
:10F6600017F04BFC17F0E6FA0028FBD1814618F89A
:10F6700009206149204617F037FC17F0DBFA002813
:10F68000FBD1B9F1000F00F00F8509F10109B9F1C3
:10F69000080FECD117F0CEFA0028FBD10323B6FBFC
:10F6A000F3F303EB4303F31A13F0FF0F40F002856B
:10F6B000002D00F002854D49204617F011FC17F08F
:10F6C000B9FA0028FBD10135FFF7FCFE1E2D08F129
:10F6D0000808C0D14549204617F002FC17F0AAFAE5
:10F6E0000028FBD1454A40490823204617F005FC75
:10F6F00017F0A0FA0028FBD107F20116DFF8F89006
:10F70000B046054618F8012F4946204617F0ECFB95
:10F7100017F090FA0028FBD1002D00F0D8840135B5
:10F72000082DEFD13149204617F0DAFB17F082FAA5
:10F730000028FBD117F07EFA0028FBD1304A2A4975
:10F740000823204617F0D9FB17F074FA0028FBD1E4
:10F75000DFF8A480054616F8012F4146204617F031
:10F76000C3FB17F067FA0028FBD1002D00F0B58429
:10F770000135082DEFD11D49204617F0B1FB17F0D8
:10F7800059FA0028FBD117F055FA0028FBD197F859
:10F7900018311C4A1749204617F0AFFB17F04AFAF8
:10F7A0000028FBD117F046FA0028FBD197F8192161
:10F7B0001549204617F098FB17F03CFA0028FBD1BA
:10F7C00097F81A211149204617F08EFB17F032FAEC
:10F7D0000028FBD107B0BDE8F08F00BFC85204007D
:10F7E0002853040080D30300E3D00300B7D2030002
:10F7F000F2DE0300B6DB0300F0D0030016DF0300E7
:10F800001FDF030027DF03003EDF030056DF030096
:10F8100009DF03007CDC0300C54CC64BC649E41A73
:10F82000E408240400F1F20944F005044A462046A5
:10F8300017F05AFB17F0FEF90028FBD1DFF84883D8
:10F84000BE4A98F80030BE49204617F056FB17F024
:10F85000F1F90028FBD117F0EDF90028FBD195F85C
:10F86000F220B849204617F03FFB17F0E3F90028D3
:10F87000FBD1B54AB549204617F036FB17F0DAF947
:10F880000028FBD1DFF8ECA2064619F8012F5146FB
:10F89000204617F029FB17F0CDF90028FBD1002EE8
:10F8A00000F0A1830136032EEFD1A949204617F0BD
:10F8B00017FB17F0BFF90028FBD117F0BBF90028A0
:10F8C000FBD195F8F620A349204617F00DFB17F061
:10F8D000B1F90028FBD1AA789F49204617F004FB14
:10F8E00017F0A8F90028FBD16A789C49204617F048
:10F8F000FBFA17F09FF90028FBD198F80330984ADB
:10F900008F49204617F0F9FA17F094F90028FBD137
:10F9100017F090F90028FBD195F8F93095F8F82008
:10F920009049204617F0E9FA17F084F90028FBD136
:10F930002A7D8D49204617F0D7FA17F07BF9002869
:10F94000FBD18A4A8149204617F0CEFA17F072F9A6
:10F950000028FBD1DFF81C9205F16F08064618F865
:10F96000012F4946204617F0BFFA17F063F9002827
:10F97000FBD1002E00F03C830136082EEFD17449F4
:10F98000204617F0ADFA17F055F90028FBD117F013
:10F9900051F90028FBD1DFF8F4B105F178090646EA
:10F9A000734A3346594620465FFA86F817F0A5FA9F
:10F9B00017F040F90028FBD1824619F80A206D495A
:10F9C000204617F091FA17F035F90028FBD1BAF16B
:10F9D000000F00F012830AF1010ABAF1080FECD10E
:10F9E00017F028F90028FBD10323B8FBF3F303EB4E
:10F9F0004303A8EB030313F0FF0F40F00383002E33
:10FA000000F003835249204617F06AFA17F012F902
:10FA10000028FBD10136FFF755FD052E09F1080935
:10FA2000BED14B49204617F05BFA17F003F90028C6
:10FA3000FBD1514A4549204617F056FA17F0FAF81B
:10FA40000028FBD1DFF82C9105F19F08064618F835
:10FA5000012F4946204617F047FA17F0EBF8002827
:10FA6000FBD1002E00F0DA820136082EEFD13849A2
:10FA7000204617F035FA17F0DDF80028FBD117F013
:10FA8000D9F80028FBD1DFF804B105F1A809064632
:10FA90003A4A3346594620465FFA86F817F02DFA5F
:10FAA00017F0C8F80028FBD1824619F80A2031491E
:10FAB000204617F019FA17F0BDF80028FBD1BAF16B
:10FAC000000F00F0B0820AF1010ABAF1060FECD182
:10FAD00017F0B0F80028FBD10323B8FBF3F303EBD6
:10FAE0004303A8EB030313F0FF0F40F0A182002EA5
:10FAF00000F0A1821649204617F0F2F917F09AF8A3
:10FB00000028FBD10136FFF7DDFC072E09F10609BD
:10FB1000BED10F49204617F0E3F917F08BF8002803
:10FB2000FBD1174A17491823204617F0E6F92FE0B2
:10FB300028530400C852040083DB03009FDB03004A
:10FB4000B6DB0300C1DB0300D4DB030033D20300C8
:10FB5000B7D20300E3DB0300FBDB030015DC03008B
:10FB60002BDC030006E2030045DC030062DC03003B
:10FB700070DC0300F0D003008DDC030098DC030090
:10FB8000A3DC0300E3D00300809600207CDC0300AC
:10FB900017F050F80028FBD1DFF8409305F1D908A1
:10FBA000064618F8012F4946204617F09DF917F030
:10FBB00041F80028FBD1002E00F046820136182EB5
:10FBC000EFD1C249204617F08BF917F033F800281F
:10FBD000FBD117F02FF80028FBD1BD4ABD4992F8A0
:10FBE0005B3092F82C20204617F087F917F022F8A6
:10FBF0000028FBD1DFF82CA3DFF8D0B28046062323
:10FC000003FB08564FF0000996F82E20019296F853
:10FC10002D2000924B4642465146204617F083F96C
:10FC200017F008F80028FBD109F10109B9F1030F19
:10FC300006F10206E8D15946204617F051F916F0B0
:10FC4000F9FF0028FBD108F10108B8F1070FD6D160
:10FC5000DFF8D4B205F5807906469F4A3346594607
:10FC600020465FFA86F817F048F916F0E3FF0028FF
:10FC7000FBD1824619F80A209849204617F034F93A
:10FC800016F0D8FF0028FBD1BAF1000F00F0E18197
:10FC90000AF1010ABAF1030FECD116F0CBFF0028EC
:10FCA000FBD10323B8FBF3F303EB4303A8EB0303FC
:10FCB00013F0FF0F40F0D281002E00F0D281834973
:10FCC000204617F00DF916F0B5FF0028FBD10136DC
:10FCD000FFF7F8FB092E09F10309BED17B49204645
:10FCE00017F0FEF816F0A6FF0028FBD195F82720A4
:10FCF0007B49204617F0F8F816F09CFF0028FBD14E
:10FD000095F826207749204617F0EEF816F092FF76
:10FD10000028FBD195F827207349204617F0E4F816
:10FD200016F088FF0028FBD195F81B216F4920466B
:10FD300017F0DAF816F07EFF0028FBD16C4A6D4907
:10FD4000204617F0D1F816F075FF0028FBD1DFF838
:10FD50008C9105F21B18064618F8012F49462046DB
:10FD600017F0C2F816F066FF0028FBD1002E00F055
:10FD700081810136062EEFD15449204617F0B0F8A4
:10FD800016F058FF0028FBD116F054FF0028FBD1D5
:10FD900095F824215849204617F0A6F816F04AFF96
:10FDA0000028FBD195F82D31029395F82C31019361
:10FDB00095F82B31009395F82A3195F829214F4970
:10FDC000204617F0BEF816F035FF0028FBD1404D55
:10FDD0004B4A95F8F7304B49204617F08EF816F04D
:10FDE00029FF0028FBD116F025FF0028FBD195F84C
:10FDF0008031454A4349204617F07FF816F01AFF34
:10FE00000028FBD116F016FF0028FBD1B5F882318F
:10FE10003E4A3C49204617F070F816F00BFF0028C8
:10FE2000FBD116F007FF0028FBD1394A39491023CE
:10FE3000204617F062F816F0FDFE0028FBD1364E82
:10FE4000DFF89880054616F8012B4146204617F04A
:10FE50004BF816F0EFFE0028FBD1002D00F00F81CB
:10FE60000135102DEFD11949204617F039F816F059
:10FE7000E1FE0028FBD116F0DDFE0028FBD1274A69
:10FE800024490323204617F038F816F0D3FE002843
:10FE9000FBD1234EDFF84480054616F8012B41467E
:10FEA000204617F021F816F0C5FE0028FBD1002DE2
:10FEB00000F0EA800135032DEFD10449204617F008
:10FEC0000FF816F0B7FE0028FBD12FE0B7D20300E1
:10FED00080960020B5DC0300F4DC0300F0D00300C2
:10FEE00001DD030027DD030045DD030068DD0300BD
:10FEF00081DD030033D203008DDD0300A1DD0300AB
:10FF000009DE0300B6DB030021DE030047DE030049
:10FF10006EDE0300E3D003000A9800207BDE0300BE
:10FF20001A980020D5DC03007CDC030016F082FE6A
:10FF30000028FBD16C4D6D4A95F89D316C492046E7
:10FF400016F0DBFF16F076FE0028FBD116F072FEED
:10FF50000028FBD195F89E31664A6549204616F087
:10FF6000CCFF16F067FE0028FBD116F063FE0028D8
:10FF7000FBD195F89F31604A5D49204616F0BDFFE0
:10FF800016F058FE0028FBD116F054FE0028FBD1D5
:10FF90005A4A5B491023204616F0AFFF16F04AFE7E
:10FFA0000028FBD1574EDFF86881054616F8012B73
:10FFB0004146204616F098FF16F03CFE0028FBD183
:10FFC000002D66D00135102DF0D14F49204616F096
:10FFD00087FF16F02FFE0028FBD116F02BFE00281D
:10FFE000FBD1FFF7EEBA16F025FE0028FBD159E44D
:10FFF00016F020FE0028FBD1BEE416F01BFE002800
:020000022000DC
:10000000FBD1E8E4042E3FF4FDAC4049204616F055
:1000100067FF16F00FFE0028FBD1FBE416F00AFE86
:100020000028FBD120E516F005FE0028FBD14AE5AB
:10003000062E3FF45FAD3549204616F051FF16F00D
:10004000F9FD0028FBD15DE516F0F4FD0028FBD199
:10005000B4E516F0EFFD0028FBD119E6082E3FF4B9
:100060002EAE2A49204616F03BFF16F0E3FD00288D
:10007000FBD12CE616F0DEFD0028FBD179E616F068
:10008000D9FD0028FBD1EBE616F0D4FD0028FBD10A
:1000900010E716F0CFFD0028FBD193E716F0CAFD5C
:1000A0000028FBD1FFF7B3BA16F0C4FD0028FBD13E
:1000B000FFF7EBBA1D2D3FF4FEAA1449204616F0B7
:1000C0000FFF16F0B7FD0028FBD1FFF7FCBA16F0C2
:1000D000B1FD0028FBD1FFF722BB16F0ABFD0028D5
:1000E000FBD1FFF745BB00BF8096002083DE0300F5
:1000F000B6DB0300A6DE0300C9DE0300E7DE030073
:10010000E3D003007B980020B7D2030089DC030012
:10011000F0D0030010B50C4B0C4A0D4904460D48B5
:100120001B1ADB081B0443F0050016F0DDFE16F079
:1001300081FD0028FBD116F07DFD0028FBD1204673
:10014000BDE8104000F00ABB2853040094E003000F
:10015000C0D00300C852040000F01CBB70B500F111
:10016000F30604460D460322002130460AF0A0FCA7
:1001700008B9002070BD0322FF2130460AF098FC28
:100180000028F6D06378013BDBB2FD2BF1D895F85F
:100190004831013BDBB2FD2B88BF002304F580749E
:1001A00088BF85F848310322002120460AF080FCF0
:1001B0000028DED00322FF2120460AF079FC003817
:1001C00018BF0120D6E700F001BB0000054BD3F8B3
:1001D0003C3183428CBF03F1FF3303F2E733181A3B
:1001E00000F0F4BA009900202DE9F047434B444C4D
:1001F000444A4549E41AE408240444F0050420462E
:1002000016F072FE16F016FD0028FBD116F012FD56
:100210000028FBD13D49204616F062FE16F00AFD8B
:100220000028FBD13A4B3B49D3F83C21204616F03D
:100230005BFE16F0FFFC0028FBD13449204616F087
:100240004FFE16F0F7FC0028FBD1DFF8D880DFF86E
:10025000D890DFF8D8A00546284600F0B7FA074640
:10026000B0B92D492A46204616F03EFE16F0E2FCB3
:100270000028FBD10135B5F57A7FEDD1274920461D
:1002800016F02EFE16F0D6FC0028FBD1BDE8F08754
:10029000102200210AF00CFC0028E2D01022FF21DD
:1002A00038460AF005FC0028DBD02B46424649467A
:1002B000204616F022FE16F0BDFC0028FBD10646B3
:1002C000BA5D5146204616F00FFE16F0B3FC00282A
:1002D000FBD11EB916F0AEFC0028FBD10136102E62
:1002E000EED10F49204616F0FBFD16F0A3FC0028C6
:1002F000FBD116F09FFC0028FBD1BBE7C8520400DD
:1003000028530400AEE00300C0D003000CD003006B
:100310000099002078DF03009ADF0300B1DF0300BB
:10032000B7D203000DD403007CDC0300F0D003003F
:1003300038B50A4D044601460622681C1BF05AF8DF
:100340000722A11DA8181BF055F8637B2B70A37B17
:10035000AB73E37BEB73284638BD00BF082F00204A
:100360002DE9FF416A4C6B4BE41AE408240444F085
:10037000050407460D4616466749684A204616F0AA
:10038000B3FD16F057FC0028FBD116F053FC0028F3
:10039000FBD163493246204616F0A6FD16F04AFC12
:1003A00001460028FAD1102268461BF031F8FEF70A
:1003B00083FA0622014668461BF01CF82FB1022280
:1003C00039460DF10D001BF015F82DB10722294615
:1003D0000DF106001BF00EF8524DD5F83C31B3F587
:1003E0007A7F24BF0023C5F83C31D5F84031D5F8D9
:1003F0003C11002E08BFFF26B3F57A7F38BF0133CA
:10040000684638BFC5F840318DF80F6000F0EDF94F
:10041000D5F83C31444A4549204616F06EFD16F0A9
:1004200009FC0028FBD1DFF818816F46064617F853
:10043000012B4146204616F057FD16F0FBFB002825
:10044000FBD11EB916F0F6FB0028FBD10136102EA9
:10045000EDD13749204616F043FD16F0EBFB00289E
:10046000FBD116F0E7FB0028FBD1D5F83C0100F0EA
:10047000ADF9D5F83C312F4A2C490746204616F0F5
:100480003CFD16F0D7FB06460028FAD1DFF8B08015
:10049000BA5D4146204616F027FD16F0CBFB00283A
:1004A000FBD11EB916F0C6FB0028FBD10136102E79
:1004B000EED11F49204616F013FD16F0BBFB0028B5
:1004C000FBD116F0B7FB0028FBD110226946384655
:1004D0001AF082FF38B11849204616F001FD16F0D7
:1004E000A9FB0028FBD1D5F83C3114490133B3F501
:1004F0007A7F28BF00232046C5F83C3116F0F0FC77
:1005000016F098FB0028FBD104B0BDE8F08100BFD5
:1005100028530400C8520400C0D00300D2E00300F6
:10052000C8DF030000990020E0DF03007CDC03004B
:10053000B7D20300ECDF0300F7DF03000BE003009A
:10054000F0D003002DE9FF47414C424B0190E41AE3
:10055000E408240444F005043F4A4049204616F0CC
:10056000C3FC16F067FB0028FBD116F063FB0028E4
:10057000FBD1DFF8FC90DFF8FCA0DFF8FC8005463B
:100580002846FFF723FE102307464A4651462046D9
:1005900016F0B3FC16F04EFB06460028FAD1BA5D01
:1005A0004146204616F0A0FC16F044FB0028FBD183
:1005B0001EB916F03FFB0028FBD10136102EEED1FC
:1005C0002749204616F08CFC16F034FB0028FBD19E
:1005D00016F030FB0028FBD1FA7BFE2A32D02149ED
:1005E0002B46204616F089FC16F024FB0028FBD190
:1005F0001D49204616F074FC16F01CFB0028FBD1A8
:100600001A49204616F06CFC16F014FB0028FBD1AA
:100610001549204616F064FC16F00CFB0446002831
:10062000FAD1082201460DEB02001AF0F1FE01A9F1
:10063000022202A81AF0DEFEFE2202A92046FFF7DF
:100640008FFE02E00135052D9AD104B0BDE8F08798
:1006500028530400C8520400C2E00300C0D00300C5
:10066000B7D2030028E003000CD003004CE00300E5
:100670001DE00300E3D00300F0D0030000F0B2B8A7
:1006800010B50B4C40F24E22FF2120461AF0C0FE5E
:100690002046084C00F07EF820464FF40672FF21F9
:1006A0001AF0B6FE2046BDE81040FFF733BD00BF8C
:1006B00080960020009900200149024800F0AEB861
:1006C00000990020809600201748184B184A1949B5
:1006D000C01AC008000410B540F0050016F004FC74
:1006E00016F0A8FA0028FBD116F0A4FA0446002858
:1006F000FAD10146202210481AF08AFE2022FF215A
:100700000E481AF085FE00F075F80D4BD3F8402125
:100710000132D3F83C2108BFC3F84041013204BF85
:100720000022C3F83C2110BD28530400C852040025
:10073000E8E00300C0D00300389B0020189B002095
:1007400000990020014640F24E2200200AF03FBEF0
:1007500001464FF4067201200AF039BE10B50C496B
:1007600004464FF4067201200AF031FE08494FF4A6
:10077000067220461AF030FE40B1012321464FF4A4
:100780000672BDE8104018460AF024BE10BD00BF36
:10079000402F002010B50C49044640F24E220020A4
:1007A0000AF015FE084940F24E2220461AF014FEC7
:1007B00040B121460123BDE8104040F24E22002006
:1007C0000AF008BE10BD00BF402F002010B5044C39
:1007D0000146224602200AF032FE204610BD00BF2C
:1007E000202F002000200AF02CBE02460023022009
:1007F0000AF020BE08B5012240F24E2100200AF086
:1008000024FE012210464FF406710AF01EFEBDE8D8
:10081000084001221C2103200AF017BE70B58EB0DB
:100820001C2205460C46684600211AF0F1FD2B4BB0
:100830001A88ADF800209B788DF802301C224FF406
:10084000067340F24E260DEB02000021CDE9016354
:100850001AF0DEFD102122480AF05AF9204902461A
:1008600003A81AF0C7FD0122314600200AF0EBFD73
:10087000324620B3002128461AF0CAFD0122104654
:100880004FF406710AF0DFFD4FF40672D8B1002173
:1008900020461AF0BDFD4FF47A72102102200AF0B2
:1008A000D2FD01221C2103200AF0CDFD1C2278B1CB
:1008B00000210DEB02001AF0ABFD0EB070BD294611
:1008C0000AF085FDDAE7214601200AF080FDE2E723
:1008D0000DEB020103200AF07AFDEEE706E10300CA
:1008E000600B0400F7B509F05FFD0646002004F038
:1008F00085FE022825D0304602F0C0F90546304674
:1009000002F064FBA842074628BF2F467B1C044622
:100910001AD0694638460AF041FC30460AF0D0FB4E
:10092000B84211D80A4BAC422CBF012402240DF16D
:10093000020083F83041C3F82C7109F075FF03B051
:10094000F0BD4FF0FF35DAE709F0A0FFF7E700BF91
:100950000099002007F05ABB07F05EBBF7B5284F9F
:10096000284C0DF1070000268DF8076013F0ECFA13
:100970003D889DF8070005F0010513F015FB55B300
:100980003B7866F300033B7094F830310BB90020DC
:1009900016E009F009FD05460AF092FBD4F82C3167
:1009A0009842F4D194F83031C4F82C61012B09D16C
:1009B000A87902F001FA144A137843F01003137077
:1009C00003B0F0BD022B16D102F054FB0E4A13788F
:1009D00043F00803F3E794F83031002BD7D009F047
:1009E000E3FC0AF06DFBD4F82C319842CFD394F895
:1009F0003031C4F82C51042BC9D102F089FBC6E771
:100A0000609D002000990020CE9800202DE9F84339
:100A10000E46174601462A222648274C98461AF0C9
:100A2000E9FC264B264A2749E41AE408240444F04A
:100A300005040423204616F060FA16F0FBF800289F
:100A4000FBD1DFF890900546725D4946204616F0CE
:100A50004BFA16F0EFF80028FBD11DB916F0EAF8B2
:100A60000028FBD10135042DEED11749204616F0A0
:100A700037FA16F0DFF80028FBD116F0DBF8044651
:100A80000028FAD10422114831461AF0B3FC104B69
:100A9000B8F1310F06BF012283F85B2083F85B4079
:100AA000312F02BF93F85B2042F0020283F85B20F3
:100AB000BDE8F883AD96002028530400C852040016
:100AC00009E10300E3D00300B7D20300D79600206A
:100AD00080960020F0D0030070B50A4D044600F166
:100AE00014060822002128461AF092FC21462846C6
:100AF000042204341AF07EFCB44205F10805F0D15A
:100B000070BD00BFF8960020C84000F0010070479B
:100B10002DE9F0411A4B1B4D1B4A1C49ED1AED08FB
:100B20002D0445F005050646284616F0DDF916F0B9
:100B300081F80028FBD116F07DF80028FBD114497C
:100B40003246284616F0D0F916F074F8044600280C
:100B5000FAD1104FDFF8408026FA04F3DB070AD5FC
:100B600057F8243022464146284616F0C6F916F0BA
:100B700061F80028FBD101341C2CEDD1BDE8F081D7
:100B8000C85204002853040034E40300C0D003001A
:100B900014E10300C4E3030029E10300830704D543
:100BA0004B7B13B1014A82F8F230704780960020E7
:100BB0002DE9F043C40342BF904B0A7A9A70904CDF
:100BC000904BE41A0746E4082404F8078DB00D465C
:100BD00044F0050439D48C4A8C49204616F084F937
:100BE00016F028F806460028FAD1DFF84482AA5DFC
:100BF0004146204616F078F916F01CF80028FBD183
:100C0000002E32D00136042EF1D18149204616F053
:100C100067F916F00FF80028FBD116F00BF8002842
:100C2000FBD128460AF04EF820BB05F12C094946B5
:100C3000784804221AF0DEFB79064DD4FB05C7F391
:100C400000205DD40DB0BDE8F0836C4B00221A701B
:100C5000CA79497A197520466F495A7016F044F9D5
:100C600015F0E8FF0028FBD1B5E715F0E3FF0028F9
:100C7000FBD1C7E7BA07D8D50422294667481AF03E
:100C8000B9FB674A6149204616F02EF915F0D2FFEC
:100C900006460028FAD1DFF89881AA5D4146204631
:100CA00016F022F915F0C6FF0028FBD17EB10136FF
:100CB000042EF2D15649204616F012F915F0BAFF6B
:100CC0000028FBD115F0B6FF0028FBD1ADE715F0E9
:100CD000B1FF0028FBD1EAE7484E2B7C86F8FF30B5
:100CE00005F1110806F5807641463046032208F1E9
:100CF00003081AF07FFBC14506F10306F4D19DE716
:100D00000A3504220021284609F0D2FE002873D0BB
:100D10000422FF21284609F0CBFE00286CD0414A6E
:100D2000414928460AF01CF93F49082208A81AF050
:100D300061FB3C4906220AA81AF05CFB0E22002146
:100D400008A809F0B5FE002856D00E22FF2108A8F9
:100D500009F0AEFE00284FD0082208A903A81AF017
:100D600049FB06220AA901A81AF044FB06220DF14C
:100D70000E0105A81AF03EFB062201A90DF11A008A
:100D80001AF038FB294A2149204616F0ADF815F033
:100D900051FF0028FBD1264F05AE054616F8012B62
:100DA0003946204616F0A0F815F044FF0028FBD184
:100DB000EDB101350C2DF1D11549204616F090F812
:100DC00015F038FF0028FBD115F034FF0028FBD1C7
:100DD00005A809F0F9FC01280ED01649204616F0A6
:100DE0007FF815F027FF0028FBD101202AE715F036
:100DF00021FF0028FBD1DCE7002023E780960020BC
:100E000028530400C85204003FE1030033D203001A
:100E1000B7D20300209700204CE103007397002015
:100E200062E10300F49D0020E49D00206EE10300D8
:100E3000F0D0030079E103002DE9F7435A4B5B4CF6
:100E4000E41AE4082404030307460E4644F00504AC
:100E50007DD4FD074AD5564D96F824205549EA70B1
:100E6000204616F041F815F0E5FE0028FBD16B781E
:100E7000093B012B3AD8CDE9000006F122010222FC
:100E8000684609F03EFF0146002800F083804A488A
:100E9000042269461AF0AEFA484A4949042320461A
:100EA00016F02BF815F0C6FE05460028FAD1DFF83B
:100EB0000881DFF8249118F8012B4946204616F0E6
:100EC00013F815F0B7FE0028FBD1002D67D00135CF
:100ED000042DF0D13B49204616F002F815F0AAFE89
:100EE0000028FBD115F0A6FE0028FBD1380242BF36
:100EF0002F4B96F8252083F8892196F82620324931
:100F0000204615F0F1FF15F095FE0028FBD1284B87
:100F100096F826209A75B90144BF96F8272083F8E1
:100F20002E217A0110D596F82A2083F84C224FF40E
:100F30004052DA84254B302283F81422312283F880
:100F40001821002283F8302103B0BDE8F083088C1B
:100F5000174D09F037FE09F08FFE1D49A5F88201F3
:100F6000204615F0BDFF15F065FE0028FBD1B5F851
:100F700082211849204615F0B7FF15F05BFE0028C6
:100F8000FBD11349204615F0ABFF15F053FE0028A6
:100F9000FBD15EE7082208481AF03AFA7CE715F020
:100FA00049FE0028FBD192E7C852040028530400F0
:100FB000809600209EE1030040980020B1E10300EC
:100FC000E3D00300B7D20300BDE103000099002085
:100FD0000CD0030084E10300F0D003000348FF219C
:100FE00080F82C1030222D301AF012BA8096002092
:100FF000030610B50C461AD50D4A0E4891F82F304D
:101000000D49801AC00800041A4640F0050015F08A
:1010100074FF15F00FFE0028FBD194F82F3004F177
:101020002A0120461A46BDE81040FFF7EFBC10BD6C
:10103000C852040028530400D5E1030038B5174B0B
:10104000174A184904461848C01AC008000440F05E
:10105000050015F049FF15F0EDFD0028FBD115F056
:10106000E9FD01460028FAD104F1100503222846C3
:1010700009F01EFD88B10322FF21284609F018FD62
:1010800058B10A4B204604F1340250F8041B43F8CF
:10109000041B9042F9D102881A8038BDC85204005E
:1010A00047E40300C0D00300285304000A9800203E
:1010B00008B503F0C5FC034B00225A7483F8E22103
:1010C00008BD00BF00990020C10708B5034605D43C
:1010D000820703D45B06C0F3801003D5FFF7E8FF57
:1010E000012008BD064A074B82F826003022A3F8EB
:1010F000180183F81A0183F8300183F81422F0E70D
:101100008096002000990020F8B5430505460C465E
:1011100009D50822002165481AF07AF963480422AB
:1011200021461AF067F9AF0502D5201DFFF7D4FC60
:10113000AE0614D5082200215D481AF069F904F1C1
:1011400019015B48032209F0DCFD014618B9584833
:1011500006221AF05DF9574B227E83F81B2168079F
:1011600042BF544B227F83F8F720290642BF514BE0
:10117000627F83F82C202A071AD54F4B4F4894F8EA
:1011800020204F49C01AC008000494F82B3040F0CA
:10119000050015F0B2FE15F04DFD0028FBD1454BC2
:1011A00094F8202083F8F82094F82B2083F8F92075
:1011B00015F4804F3F4E1CBF94F8213073752B04FB
:1011C00005D594F8220009F04EFD86F8FE000023B4
:1011D000EF06A6F82A31A6F82C312AD594F8233048
:1011E00086F8263094F82530344F86F82730324B75
:1011F0003449FF1AFF083F0447F00507384615F049
:101200006FFE15F017FD0028FBD196F8273096F8F1
:1012100026202D49384615F070FE15F00BFD0028EC
:10122000FBD12849384615F05BFE15F003FD002878
:10123000FBD196F82600002833D1002386F826300B
:10124000224B00222805A3F8182183F81A2183F8DD
:10125000502113D51948184B94F827201C49C01A5F
:10126000C008000440F0050015F03EFE15F0E2FC59
:101270000028FBD194F8273086F82431A90244BF16
:1012800094F82C3086F83E312A0344BF94F82D3070
:1012900086F88031EB0244BF94F82E3086F888310E
:1012A000F8BD09F023FD0028C7D0C9E7F09600205B
:1012B0009C97002080960020C85204002853040008
:1012C00000E203000CD0030023E203000099002099
:1012D0008DDD030038B583020C4620D5104D11F882
:1012E000013B85F83F310F2205F5A0701AF082F816
:1012F000237C85F84F3104F111010F2205F5A87008
:101300001AF078F894F8203085F85F3104F1210163
:1013100005F5B0700F22BDE838401AF06BB838BD43
:101320008096002030B5474B474D484A4849ED1A52
:10133000ED082D0445F00505044687B0284615F054
:10134000D3FD15F077FC0028FBD115F073FC0146A6
:101350000028FAD10722204609F0AAFBF0B10722A3
:10136000FF21204609F0A4FBC0B1A3790393637960
:10137000029323790193E37800936278A378354947
:10138000284615F0EEFD15F055FC0028FBD115F0B0
:1013900051FC0028FBD1601C09F0EAF8237A312BBC
:1013A00008D12D4B94F8242083F8262094F825208A
:1013B00083F82720637A312B08D1274B94F8232018
:1013C00083F82A2194F8272083F82C21A37AA3F10B
:1013D0003102012A15D8204D032204F1200104A86E
:1013E00085F81B3109F08DFC58B10822002105F564
:1013F0008E701AF00DF8062204A905F58E7019F00A
:10140000F9FFE37A312B03D104F10C00FFF764FB01
:1014100094F82830312B02BF0F4B94F8292083F821
:101420002B2194F82B30312B02BF0B4B94F82C203E
:101430009A7094F82A3013B1074A82F8243107B021
:1014400030BD00BFC8520400285304005DE403000F
:10145000C0D003002DDB0300809600200378312BE1
:1014600002BF094B427883F829218378312B02BFD0
:10147000054BC27883F83E210379312B02BF024B22
:10148000427983F8F720704780960020054B31227F
:1014900083F82C2090F82F3001461A462A31FFF7A6
:1014A000B5BA00BF8096002008B507F0B1F920F06A
:1014B0000203042B04BF024A82F8383108BD00BF82
:1014C00000990020F8B5002B38BF00231D461D4BA6
:1014D0005B78092B06460F461BD00A2B22D0082B1F
:1014E0002CD12B4602F09AFF041E1DDB052C14D1D3
:1014F000012E0CBF0222032205F120003946FEF71F
:101500002FFF114B204683F8386100F0E3F82046A6
:10151000F8BD2B4602F004FDE6E7012E0CBF0122C8
:101520000422E9E74FF0FF34204600F0D3F81D22F3
:10153000394605F12000FEF713FFE8E74FF0FF34CE
:10154000E5E700BF809600200099002010B54E4BC3
:101550004E4C4F49E41AE408240444F005042046A4
:1015600015F0BEFC15F066FB0028FBD1494920466A
:1015700015F0B6FC15F05EFB0028FBD1464A474942
:10158000204615F0B1FC15F055FB0028FBD1444A6C
:101590004249204615F0A8FC15F04CFB0028FBD171
:1015A000404A3E49204615F09FFC15F043FB0028B9
:1015B000FBD13D4A3949204615F096FC15F03AFB1F
:1015C0000028FBD1394A3549204615F08DFC15F02D
:1015D00031FB0028FBD1364A3049204615F084FC07
:1015E00015F028FB0028FBD1324A2C49204615F083
:1015F0007BFC15F01FFB0028FBD12F4A2749204612
:1016000015F072FC15F016FB0028FBD12B4A23497C
:10161000204615F069FC15F00DFB0028FBD1284A87
:101620001E49204615F060FC15F004FB0028FBD194
:10163000244A1A49204615F057FC15F0FBFA0028F9
:10164000FBD1214A1549204615F04EFC15F0F2FA5F
:101650000028FBD11D4A1149204615F045FC15F024
:10166000E9FA0028FBD11A49204615F039FC15F09B
:10167000E1FA0028FBD10649204615F031FC15F0AF
:10168000D9FA0028FBD110BDC85204002853040029
:101690000CD003007EE4030069D4030094E403004B
:1016A00098E40300A4E40300B3E40300BDE40300F2
:1016B000CAE40300DFE40300EAE40300FAE4030001
:1016C00012E5030026E5030038E503004EE50300BC
:1016D000B6D2030008B50246A8B10B480B4B1B1A43
:1016E000DB081B0443F0050002F14903AC2B96BF55
:1016F0000749084B51F82330074915F0FEFB15F058
:1017000099FA0028FBD108BDC852040028530400F0
:1017100018ED03005EE5030066E50300144B1A684C
:1017200032B11A68312A8ABF1A680022323A1A6026
:10173000104B19686FF0704291423EBF1A68323206
:101740001A600D4B1A6832B11A68312A8ABF1A68BA
:101750000022323A1A60094B1A68312A1A6802D9F3
:10176000323A1A607047002AFCD00022F9E700BF25
:10177000CC310020C8310020A0310020A43100204D
:1017800013B5002304460DF107008DF8073012F061
:10179000DBFB064B9DF807001A686434944288BF4F
:1017A0001C6012F001FC02B010BD00BFCC31002063
:1017B00013B500240DF107008DF8074012F0C4FBAB
:1017C000114B9DF807001C60104B41F288321A60E3
:1017D00012F0EAFB0E4A0F48012112F041F80246CE
:1017E00038B1082803D00C4A812111F079FF02B0EA
:1017F00010BD0A4840F2666112F04EF80028F6D09B
:10180000054A8B21F1E700BFC8310020CC31002010
:101810001D170200E8EF0300CCEF0300A831002001
:1018200008B5074812F05AF830F0080303D0054A0B
:10183000982111F055FFBDE808400AF017BC00BF21
:10184000A8310020CCEF030070470378012B1CBFA8
:101850000323037070470000024B03229A705A70F2
:101860001A707047589B00207047000038B50C462E
:10187000054601461022204609F0C5F9A0B90B48DB
:101880000B4B0C491B1ADB081B0443F0050015F039
:1018900027FB15F0CFF90028FBD129462046082266
:1018A000BDE8384019F0A6BD38BD00BFC8520400DD
:1018B00028530400ECEF030070B59D1DECB201331A
:1018C00052FA85F55370D1700323611E02261670FB
:1018D000907005F8023C00235354541801238B42A6
:1018E00001DB104670BDD05C257801336840207064
:1018F000DBB2F4E770B5122206460C461748174DC6
:10190000002119F085FDECB915490222281D19F0B6
:1019100071FDFCF7BFFF1349A8710222124809F0BC
:10192000F0F920B910480422302119F071FD314638
:101930000A4A0C234D20FFF7BFFFBDE8704012217B
:10194000FBF796B8012C02D108490222DEE7022CEF
:101950000BBF0749074922460222D7E7609B0020B8
:10196000DBEC030074970020679B00209E1E0400A0
:1019700050E203000AF0030070B50A4D04460E461B
:1019800011220021284619F043FD21462A460B2347
:101990004D202E71FFF790FFBDE870401121FAF73E
:1019A000B3BF00BF609B0020062807B509D01528EB
:1019B00007D0062301210DF107008DF80730FBF752
:1019C00057F803B05DF804FB2DE9F04F254B264C8A
:1019D000264AE41AE408240444F0050406460D46A9
:1019E0008BB02349204615F07FFA15F023F9002823
:1019F000FBD115F01FF90028FBD1F77896F802808B
:101A00003846FFF7D1FFB8F16D0F40F00786294641
:101A1000304601F095FB002800F00486154A144971
:101A2000204615F061FA15F005F90028FBD115F0F4
:101A300001F90028FBD110493A46204615F054FA26
:101A400015F0F8F801460028FAD16F2F00F0F08267
:101A5000722F13D0662F00F08585054628460BB0FF
:101A6000BDE8F08FC852040028530400B9F1030008
:101A7000C0D00300A8F103000DF0030001F03CF812
:101A80000290002800F0D1851022311DB54819F0D0
:101A9000B1FCB54AB549204615F026FA15F0CAF84A
:101AA0000028FBD1AF4EB24F054616F8012B394640
:101AB000204615F019FA15F0BDF80028FBD11DB924
:101AC00015F0B8F80028FBD10135102DEDD1A9494A
