:020000040007F3
:1010000000000120B5120700DD120700DF12070003
:10101000E1120700E3120700E512070000000000DC
:10102000000000000000000000000000ED1E0700AE
:10103000E912070000000000EB120700ED120700A4
:10104000EF120700EF120700EF120700EF12070080
:10105000EF120700EF120700EF120700EF12070070
:10106000EF120700EF120700EF120700EF12070060
:10107000EF120700EF120700EF120700EF12070050
:10108000C53C0700EF120700EF120700EF12070040
:10109000EF120700EF12070071210700EF1207009F
:1010A000EF120700EF120700EF120700EF12070020
:1010B000EF120700EF120700000000000000000020
:1010C000EF120700EF120700EF120700EF12070000
:1010D000B5350700EF120700EF120700000000000F
:1010E0000000000000000000000000000000000000
:1010F00000000000000000000000000000000000F0
:1011000000000000000000000000000000000000DF
:1011100000000000000000000000000000000000CF
:1011200000000000000000000000000000000000BF
:1011300000000000000000000000000000000000AF
:10114000000000000000000000000000000000009F
:10115000000000000000000000000000000000008F
:10116000000000000000000000000000000000007F
:10117000000000000000000000000000000000006F
:10118000000000000000000000000000000000005F
:10119000000000000000000000000000000000004F
:1011A000000000000000000000000000000000003F
:1011B000000000000000000000000000000000002F
:1011C000000000000000000000000000000000001F
:1011D000000000000000000000000000000000000F
:1011E00000000000000000000000000000000000FF
:1011F00000000000000000000000000000000000EF
:1012000010B5054C237833B9044B13B10448AFF340
:1012100000800123237010BD1C5A00200000000034
:10122000C482070008B5034B1BB103490348AFF361
:10123000008008BD00000000205A0020C482070082
:10124000154B002B08BF134B9D46A3F5803A002198
:101250008B460F461348144A121A06F0A7FD0F4B8F
:10126000002B00D098470E4B002B00D09847002051
:10127000002104000D000D48002802D00C48AFF3F7
:10128000008006F053FD2000290001F063FF06F006
:1012900039FD00BF00000800000001200000000030
:1012A000000000001C5A0020E87F00200000000021
:1012B000000000000649074A074B9B1A03DD043B68
:1012C000C858D050FBDC00F013F8FFF7B9FF00005E
:1012D00020830700685900201C5A0020FEE7FEE723
:1012E000FEE7FEE7FEE7FEE7FEE7FEE7FEE7FEE7D6
:1012F00030B49F4B1B68591C04BF9E4B1B78062BB8
:1013000005D19D4B9D4A1B68C3F304231360994B81
:101310001B78062B00F0EC80954B1B685A1C04BF11
:10132000944B1B78062B05D1954B964A1B68C3F34B
:10133000423313608F4B1B78062B00F0C6808C4B1A
:101340001B685D1C04BF8B4B1B78062B08D14FF02C
:1013500080430022C3F80C21C3F81021C3F83825BC
:10136000844B1B78062B00F09080814B1A68541C2C
:1013700014D0854B062A1B6818D04FF01023D3F8E1
:101380000022002AC0F22C81D3F80432002BC0F2D4
:1013900027817E4B7E4A1A6030BC704775497D4B71
:1013A00009781B680629E8D1C3F30313033B032B19
:1013B00040F2B5804FF08052774BD2F80414C3F856
:1013C0002015D2F80814C3F82415D2F80C14C3F869
:1013D0002815D2F81014C3F82C15D2F81414C3F839
:1013E0003015D2F81814C3F83415D2F81C14C3F809
:1013F0004015D2F82014C3F84415D2F82414C3F8C9
:101400004815D2F82814C3F84C15D2F82C14C3F898
:101410005015D2F83014C3F85415D2F83414C3F868
:101420006015D2F83814C3F86415D2F83C14C3F828
:101430006815D2F840144E48C3F86C15D2F844141D
:101440000268C3F87015501C00F08B80062A94D1F6
:10145000524B474A1B685249126803F04F030B6016
:10146000511C61D0062A88D14FF08043D3F8003454
:10147000DA0765D4444B1B68033B032B49D9494A1F
:10148000136843F48063136077E7424B1B68C3F330
:101490000313033B032B3FF668AF434AD25C12B100
:1014A000424A03211160424AD35C002B3FF45DAFF6
:1014B000404A414C4149424B052010600125002023
:1014C0003F22256008601A604FE7324B1B68C3F368
:1014D0000313033B032B3FF632AF3A4AD35C002B96
:1014E0003FF42DAF384AD36823F08073D36026E7EA
:1014F000284B1B68C3F30313033B032B3FF60CAFCE
:10150000324AD35C002B3FF407AF314B314A1A60AB
:1015100002E7314AD35C002B3FF42FAFAFE72F49EE
:10152000CB5C002B8FD045E7124B1B78062B7FF44A
:1015300024AF4FF08043D3F80034DB077FF51DAFB5
:101540000B4B1B684FF080426FF00101062BC2F875
:1015500000147FF412AF0C4B1B68033B032B8ED897
:10156000D7E7044B1B78062B3FF472AF05E700BFAB
:1015700030010010E00F00F024030010403501405E
:10158000440200103C05004034010010685900205E
:101590000090D003E80F00F000C000405802001097
:1015A000E40E00403C170040F07D0700A00500401D
:1015B000F07D070010560040885600401856004045
:1015C00014560040F07D0700F0ED00E0F07D0700CC
:1015D00074C007400DF0ADBAEC7D0700E87D070050
:1015E000184A0123C2F80435D2F80034002BFBD08E
:1015F0004FF010231521134AC3F80012D2F800341B
:10160000002BFBD04FF0102315210E4AC3F8041213
:10161000D2F80034002BFBD000230A49C2F804356D
:10162000D1F80034002BFBD0BFF34F8F0649074B96
:10163000CA6802F4E0621343CB60BFF34F8F00BF70
:10164000FDE700BF00E0014000ED00E00400FA0506
:101650002DE9F04F0F7991F805C00C784A780D7B91
:101660000E7A4B7A91F814E03F0647EA0C472406BD
:1016700091F80FC044EA0244CA784CEA056591F833
:1016800002C014433606CA7C46EA034644EA0C24E8
:101690000B7C91F807C042EA036247EA0C07CB7D56
:1016A00091F806C0CDB047EA0C2743EA0E6391F8E3
:1016B0000BE00D978F7A91F80DC00C9446EA0E0658
:1016C00046EA07260E964F7D8E7B45EA0C4591F83B
:1016D00011C045EA062543EA07438E7D8F7C0F95AE
:1016E00042EA0C4242EA072243EA06230F7ECDE992
:1016F0001023CB7E4A7E0D7F91F81FC091F82060A9
:1017000091F828E091F8308043EA076343EA024306
:101710008A7E91F8237043EA022312934B7F91F85B
:101720002F204CEA056C4CEA034C8B7F91F8245037
:101730004CEA0323139391F8213091F825C047EA2E
:10174000066791F8276047EA034791F8223046EA96
:10175000056691F82B5047EA032791F82630149735
:1017600045EA0E6546EA0C4691F82CE091F829C04E
:1017700091F82D7046EA032642EA0E62159691F81A
:1017800033E091F82A6091F8313045EA0C4545EA9A
:10179000062542EA074291F8326091F82E701695BC
:1017A0004EEA086E4EEA034342EA072243EA062362
:1017B000CDE9172391F8346091F8375091F838C08B
:1017C00091F83C7091F83B2091F83F30019045EA48
:1017D000066591F8356045EA064591F8366042EABB
:1017E0000C6243EA076391F839C091F83D7045EA0D
:1017F000062591F83A6091F83E10199542EA0C429C
:1018000043EA074342EA062243EA0123CDE91A23C9
:101810000CA810254FEAF24C8CEA724C8CEA92220A
:1018200002EB040C4FEA7341D0E90164D0E90927C7
:1018300081EAF34181EA932139444FEAF4130CEB36
:1018400002074FEAB64282EAF61283EAB44382EA1A
:10185000D602314483EAD40302353A440B443E2D88
:10186000C0E9102300F10800D4D1DDE943143A9B0C
:101870000A93019B0B941C6D0294DDE948209C6D3A
:1018800004941C6E06945C6E07944FEA72445D6D7E
:10189000039584EAF244DDE93B67DD6D059584EA52
:1018A00092240A9A9D6EDB6E099311444FEAF0432D
:1018B0000B9A08954FEAB7484FEAF61583EA70434A
:1018C00085EAB645B21888EAF71883EA902385EAD4
:1018D000D60588EAD7082144134429444344CDE976
:1018E0004A13DDE9026CDFF8C0E0DDE9047B0DF1AD
:1018F0002C0ADDE90659DDE9088105E0C84667469E
:10190000A946B44625461E465EF8043F5AF8042F01
:101910004FEAF52080EAB5101A4405EA090480EA86
:10192000756028EA0503104463404FEA76328CEA7A
:101930000704034482EAB60234400CEA070044403C
:1019400082EAB6520B44224403EB0B041344154ABB
:101950009645BB464146D1D11846029B03441846E2
:10196000039B33441E46049B63449C46059B3B44B7
:101970001F46069B23441C46079B2B441D46089B81
:101980004B441946099B43441A46019BC3E9156C15
:10199000C3E91774C3E919511865DA664DB0BDE89B
:1019A000F08F00BFF07E0700F07D07000000000010
:1019B000E8B1F0B410A7D7E90067034610A5D5E950
:1019C000004511A1D1E90001C3E9146710A7D7E9C7
:1019D0000067C3E9184500240025C3E91601C3E9DF
:1019E0001A67C3E9124500201864F0BC70470E2046
:1019F000704700BFAFF3008067E6096A85AE67BB3A
:101A00007F520E518C68059B72F36E3C3AF54FA5E0
:101A1000ABD9831F19CDE05B30B31AB321B3F8B54E
:101A20000A44036C0446561E4D1E002715F8012F6C
:101A3000E2540133402B236403D0B542F6D1002099
:101A4000F8BD21462046FFF703FED4E9123213F514
:101A5000007342F10002B542C4E912322764EED0AD
:101A60000023E3E7002070470E207047002800F0B5
:101A70008F81F8B50D46002900F08C81036C372B5F
:101A80001646044600F2D1804FF08002C25403F1A2
:101A9000010208BF37233FD0C3F136010229C3F149
:101AA000370C2DD94FEA9C0100270129875010449B
:101AB00021D0022947601ED0032987601BD004294A
:101AC000C76018D00529076115D00629476112D0D3
:101AD000072987610FD00829C7610CD0092907623F
:101AE00009D00A29476206D00B29876203D00D2945
:101AF000C76208BF07632CF0030161450A440BD09D
:101B00000021372AA15402F1010005D0362A2154C0
:101B100002F1020000D02154D4E912010822E2FBB4
:101B20000301070E47EA0127030C002243EA0143A1
:101B300067F30702070A47EA01674FEA116C63F38C
:101B40000F22002367F317426CF307030F0C67F3B0
:101B50000F230F0A67F3174360F31F6261F31F63DC
:101B6000C4E91201C4E90E3221462046FFF770FD98
:101B7000002E00F0B480E36E2B70A36E2B71636EA9
:101B80002B72236E2B73E36D2B74A36D2B75636D1A
:101B90002B76236D2B77E36E1B0A6B70A36E1B0AEB
:101BA0006B71636E1B0A6B72236E1B0A6B73E36DA2
:101BB0001B0A6B74A36D1B0A6B75636D1B0A6B7636
:101BC000236D1B0A6B77B4F86E30AB70B4F86A30D3
:101BD000AB71B4F86630AB72B4F86230AB73B4F882
:101BE0005E30AB74B4F85A30AB75B4F85630AB769F
:101BF000B4F85230AB7794F86F30EB7094F86B30E8
:101C0000EB7194F86730EB7294F86330EB7394F8EF
:101C10005F30EB7494F85B30EB7594F85730EB76EB
:101C200094F85330EB770020F8BD5A1C80213F2AEE
:101C3000C15449D8C3F13E010229C3F13F0337D94A
:101C4000990800270129875010442CD002294760A9
:101C500029D00329876026D00429C76023D005290D
:101C6000076120D0062947611DD0072987611AD056
:101C70000829C76117D00929076214D00A294762C9
:101C800011D00B2987620ED00C29C7620BD00D2909
:101C9000076308D00E29476305D00F2918BF3946BE
:101CA000876318BFC16323F0030199420A440BD034
:101CB00000233F2AA35402F1010105D03E2A6354B8
:101CC00002F1020100D0635421462046FFF7C0FC18
:101CD00038220021204606F069F8236C1CE794F8AE
:101CE00053302B7094F857302B7194F85B302B7273
:101CF00094F85F302B7394F863302B7494F867304A
:101D00002B7594F86B302B7694F86F302B77B4F8F2
:101D100052306B70B4F856306B71B4F85A306B7245
:101D2000B4F85E306B73B4F862306B74B4F866303C
:101D30006B75B4F86A306B76B4F86E306B77236DE0
:101D40001B0AAB70636D1B0AAB71A36D1B0AAB72F0
:101D5000E36D1B0AAB73236E1B0AAB74636E1B0A25
:101D6000AB75A36E1B0AAB76E36E1B0AAB77236DD4
:101D7000EB70636DEB71A36DEB72E36DEB73236E30
:101D8000EB74636EEB75A36EEB76E36EEB774AE76D
:101D90000E2070470E20F8BD43689B68184700BFAF
:101DA00008B5034608305B685A7901F051F9002004
:101DB00008BD00BF2DE9F0430C469BB0084698468D
:101DC0001746FFF7E9FFD4F8049099F80550454508
:101DD00028BF4546064639462A4602A801F02CF996
:101DE00099F8052022990AA801F032F92A460096AE
:101DF00004F108000AAB02A905F018FE002848F219
:101E0000425018BF00201BB0BDE8F08338B1054B2D
:101E10000360054A426001230372002070470E20D0
:101E2000704700BF551E07002D1E070079B10B78C3
:101E3000022B01D008207047022804D0032814BFC9
:101E400008201120704703230B70002070470E20DC
:101E5000704700BFA1B10B78012B10B50C4608D01C
:101E600001D8082010BD033B012B94BF082011208E
:101E700010BD04F041F80028F4D10223237010BDF6
:101E80000E20704770B5164B164A174904468069F4
:101E9000D21A10F8025CA1FB0201C908E5B9266953
:101EA0000B2A16D900221868A84202F101020CD1AF
:101EB000701C02D05868B04207D19D68D4E9000177
:101EC000D4E90223A847206070BD914203F10C03BE
:101ED000E9D80123236070BD4FF0FF36E0E700BF73
:101EE000D0820700DC820700ABAAAAAA1EF0040F6A
:101EF0000CBFEFF30880EFF30980FFF7C3BF00BF0B
:101F000013681F2B09D910B5083014460022FFF7BB
:101F1000ADFD08B92023236010BD48F2145070476E
:101F20000830FFF779BD00BF0830FFF741BD00BFA3
:101F3000007800F00100704710DF704711DF704734
:101F400070B53C4D2B7884B0002B66D13A4E3B499E
:101F5000012302A8337000F045FF039B23B90EE074
:101F600000F04AFF039B53B1D3E9002100209047C2
:101F7000044602A8002CF3D1204604B070BD3049BD
:101F800002A800F02FFF039B4BB1D3E900210020F2
:101F9000904702A800F030FF039B002BF5D1294A9F
:101FA000002312688DF8083002A8019200F07AFA36
:101FB000254901A8FFF7C0FFB0FA80F304465B098A
:101FC0009DF808002B7000F093FA002CD4D11F4B21
:101FD0001F491C70347091F81623EC2352091341E9
:101FE000DB071ED51B4B9A6802B31A6842F48002C5
:101FF0001A60134902A800F0F5FE039B002BBBD02A
:10200000D3E900210120904702A800F0F5FE039BD0
:10201000002BF5D1204604B070BD0824204604B042
:1020200070BD42F2020001F091F8E2E74FF4800344
:102030000B60DEE7395A0020385A00201C7F070069
:10204000347F0700187F0700453107003A5A002007
:1020500000E100E05C7C0020F0B5344D2B7883B0CB
:10206000002B59D0324E334901236846337000F0BB
:10207000B9FE019B23B90EE000F0BEFE019B53B1F7
:10208000D3E900210120904704466846002CF3D193
:10209000204603B0F0BD2849684600F0A3FE019B2E
:1020A0004BB1D3E9002102209047684600F0A4FE1E
:1020B000019B002BF5D1002768468DF8007000F0D9
:1020C000F1F9FFF73BFF04469DF800002F7000F088
:1020D0000FFA002CDCD1194B34709A6802BB184BF4
:1020E0004FF48002C3F88020BFF34F8FBFF36F8F90
:1020F0001149684600F076FE019B002BC8D0D3E959
:10210000002103209047684600F076FE019B002BDB
:10211000F5D1204603B0F0BD0824204603B0F0BD41
:102120001A6822F480021A60E2E700BF395A0020E0
:10213000385A00201C7F0700347F07005C7C002099
:1021400000E100E0054B1B7833B1054B1B780BB168
:10215000FFF782BFFFF7F4BE08207047385A00200F
:10216000395A0020014B1878704700BF395A0020B7
:1021700000B583B00849684600F034FE019B43B1C6
:10218000D3E900209047684600F036FE019B002B03
:10219000F6D103B05DF804FB287F070060DF7047CD
:1021A00069DF704761DF704730B5134DADF5017DD4
:1021B0004FF4FA740DF1020103A8ADF80240FFF7E5
:1021C000F1FF88B9294601A800F00CFE029B002B04
:1021D000F0D0D3E9002103A8904701A800F00CFE3D
:1021E000029B002BF5D1E5E7052801D000F0AEFFFA
:1021F0000DF5017D30BD00BF407F0700024B1B780D
:102200000BB1FFF7D1BF70473B5A002018B1034B09
:102210000360002070470E20704700BF68590020FF
:1022200000295ED070B5304B0B6084B00C4605467B
:102230000C2201A8002105F0B9FD01260623226821
:10224000ADF8083001A920208DF804508DF8066003
:10225000FFF7A6FF01A80C22002105F0A7FD2268C8
:102260008DF8056001A94020FFF79AFF01A80C2214
:10227000002105F09BFDF7232268ADF8063001A987
:1022800023208DF80450FFF78BFF01A80C220021BA
:1022900005F08CFD22688DF8046001A93046FFF737
:1022A0007FFF01A80C22002105F080FD4FF4B063F0
:1022B0002268019301A9A120FFF772FF01A80C2257
:1022C000002105F073FD9DF8043022686FF30003D0
:1022D00001A9A0208DF80430FFF762FF002004B0B0
:1022E00070BD0E20704700BF6859002008B5FFF789
:1022F00055FF10B9014B01221A7008BD3B5A00204E
:10230000F0B4044612F0030011D14B1CDB00094D60
:10231000094E0A4F30709BB213442B60084E094D92
:10232000094B30702C8019803A60F0BC7047072050
:10233000F0BC7047405A00203C5A0020445A00200C
:102340004C5A0020485A00204A5A00202DE9F043F8
:10235000DFF8C480B8F800308B4283B003D2092084
:1023600003B0BDE8F083002605460DF107008DF8A7
:1023700007600C46174600F095F82349234A244B82
:1023800012780888197881425FFA81FC38BF0CF115
:102390000106D2B238BFF6B2B2422DD01E781978FB
:1023A000DFF87890CAB2884286BF0132D2B20022EA
:1023B0009DF807001A70F6B200F09AF8D9F80030CC
:1023C00043F8367003EBC603F70005B124B90020CB
:1023D000988003B0BDE8F0830E4BB8F800001B688E
:1023E000294606FB0030224605F0D2FCD9F8003021
:1023F0001F440020BC80B3E79DF8070000F078F888
:10240000042003B0BDE8F0834A5A00204C5A002053
:102410003C5A0020405A0020485A0020445A0020CC
:102420002DE9F047194C1A4D22782B789A4222D088
:10243000DFF868A0DFF86890164F174E4FF00008DD
:102440002378DAF80020D9F80010388802EBC30CA2
:1024500003FB001052F83330BCF804109847227880
:102460003188D3B201339142DBB206D9237023788D
:102470002A789A42E4D1BDE8F08784F80080227877
:102480002B789A42DCD1BDE8F08700BF4C5A00207F
:102490003C5A0020485A00204A5A0020445A002042
:1024A000405A002070B4EFF3108472B60D4B9A6856
:1024B000AAB90D490D4E01259D60D1F880503540D7
:1024C0001D60C1F88060D1F884505D604FF0FF332B
:1024D000C1F88430027004B962B670BC7047012341
:1024E0000370F8E75C7C002000E100E0FC06FFBD23
:1024F000094B9A6872B168B910B4EFF3108172B6E3
:10250000064A1C6814605C685460986001B962B641
:1025100010BC7047704700BF5C7C002000E100E009
:1025200070B40446002A2FD01068C54351B321442B
:10253000174A4E1E601E10F8013F6B405908DB071A
:1025400048BF51404B08CD0748BF53405908DC07EE
:1025500048BF51404B08C90748BF53405908DB07E3
:1025600048BF51404B08CD0748BF53405908DC07CE
:1025700048BF5140CB074FEA510548BF5540B042D4
:10258000D9D1E84370BC704710464FF0FF35CDE716
:102590002083B8ED89B130B4B2FBF3F403FB14240B
:1025A0000546A0B230B9C5E90010A860AA81EB8148
:1025B00030BC7047092030BC70470E20704700BF08
:1025C00082B050E8022FC188B2EB324F4FF00003C7
:1025D00017BF92B241EA014142EA014104E0426878
:1025E000B2EB324F08BF012340E80212002AE8D1C3
:1025F0008DF807309DF80730002B0CBF112000200C
:1026000002B0704730B482B050E8013F9DB2C48937
:1026100025448489A54228BF2D1B0489A54202BFF9
:10262000BFF32F8F002207E0C5EA030540E80154FD
:10263000002CE9D14FF001028DF803200193019B9A
:102640009DF803200B602AB10B880068184402B083
:1026500030BC704702F0FF03184602B030BC704730
:102660000A884B889A4201D00020704750E8012F19
:10267000C2EA024240E80123002BF7D10120704753
:1026800030B482B050E8023F1FFAA3F5C488A542D7
:1026900002BFBFF32F8F00220DE0C4892544848937
:1026A000A54228BF2D1BC3EA054540E80254002C73
:1026B000E8D14FF001028DF803200193019B9DF8B2
:1026C00003200B602AB14B880068184402B030BC6C
:1026D000704702F0FF03184602B030BC704700BFDD
:1026E0000A884B889A4201D00020704750E8022F98
:1026F000C2EA224240E80223002BF7D101207047B2
:1027000010B40346012253E8000F40EA020143E8F7
:10271000001494F0000FF6D110BC704710B40346BB
:10272000002253E8001F01EA020043E8000494F08D
:10273000000FF6D110BC7047B8B130B4D0E9011227
:10274000521A0468D2B2531E2160DBB242B1016852
:102750000A685C1E551C0D601370E3B2FF2BF6D1A6
:1027600003680020187130BC70470E20704700BF0E
:10277000F0B583B0044600250DF107008DF8075031
:10278000FFF790FED4E900311A688A4210D9511E31
:1027900019602168A3680F6812F8015C0A79268A1B
:1027A000E068DB1BDBB29A4206FB050538BF0B7104
:1027B0009DF80700FFF79CFE284603B0F0BD00BF60
:1027C00030B5054683B000230DF107000C468DF8A7
:1027D0000730FFF767FE2A681368591C1160E96823
:1027E0002A8A641AB4FBF2F41C709DF80700FFF704
:1027F0007FFE03B030BD00BF0B4601601B68114671
:10280000184700BF10B40468E468A44610BC6047D1
:1028100010B404682469A44610BC604718B103686A
:102820000BB1DB69184770B50B4B0C4C0C4E1B1BE6
:10283000A6FB0326132B4FEA161688BF002509D9DD
:10284000236820460135143413B1DB69984710B969
:10285000B542F5D3002070BD1C5A0020085A002054
:10286000CDCCCCCC014B4360002070474C7F07009F
:102870000846704700207047024B1868003818BFA0
:1028800001207047505A002008B50248FFF746FF64
:10289000002008BD505A002008B510461A4605F021
:1028A00077FA002008BD00BF2DE9F047824686B0C8
:1028B0001648884616469946FFF722FF08BB07468A
:1028C0004EB1454604462846013400F0A1FAA6421E
:1028D00005F58055F7D10D48FFF720FFDAF80820FD
:1028E0005AB100230221CDE90469CDF808808DF8A2
:1028F00000100193039368469047384606B0BDE840
:10290000F0871127384606B0BDE8F087505A0020FE
:102910002DE9F041804686B013480F4616461D4605
:10292000FFF7EEFED0B9AA0831460446384600F05B
:102930009FFA0D48FFF7F2FED8F8083053B10C9912
:1029400005910122CDE90147CDE903658DF800200D
:1029500068469847204606B0BDE8F081112420461D
:1029600006B0BDE8F08100BF505A002029DF704753
:1029700028DF70470846704700207047024B187ADE
:10298000003818BF01207047405C0020034B187AC4
:102990000122B0FA80F05A7440097047405C002070
:1029A00008B510461A4605F0F3F9002008BD00BF2F
:1029B00008B514220021044805F0F8F90348FFF790
:1029C000FFFD002008BD00BF405C0020305C0020FF
:1029D00038B50B4C0B4B43602046FFF791FE08B116
:1029E000002038BDFFF7BEFB074905461C234FF406
:1029F000EE7206482574FFF7CDFD002038BD00BFFC
:102A0000405C0020787F0700545A0020305C002092
:102A100030B5384D2B7A87B0002B39D0364B1C6837
:102A200002232B722379002B3DD0012B24D0226866
:102A30009368C3B10023CDE9033302930093A368E5
:102A40000593032301932379002B46D0012B07D153
:102A5000E368616904911B03022102938DF8001061
:102A60009368684698470023244925482B726B6079
:102A7000FFF736FE07B030BDD4E903031844FFF773
:102A800077FF10B31128D2D101232B7207B030BDCC
:102A90001A491B48FFF7F4FD174B0446186000283D
:102AA000BED16860E6E7D4E90520121A142A28BFCF
:102AB0001422D4E903139208012A38BF01220144E9
:102AC0001844FFF753FF0028DCD12B7C002BD1D119
:102AD0000146022000F016F8CCE72069E1680123E6
:102AE000CDE902018DF8003063690493936868466C
:102AF0009847B8E7405C0020585C0020545C0020F8
:102B0000305C0020831E012B3FD810B5324C237A55
:102B100086B0002B37D0022B31D103283AD02F4B6F
:102B200000221B68E2601A79002A40D0012A26D1CF
:102B3000D3E9042101328A421A6120D10020207297
:102B400019688A68BAB10022CDE903220292009284
:102B50009A68019005921A79002A33D0012A07D188
:102B6000DA685B6904931303022202938DF8002054
:102B70008B68684698471A491A48FFF7B1FD637C8D
:102B800023B9FFF745FF06B010BD7047FFF7DAFA2B
:102B900006B010BDE3680133082B01D8E360EEE70F
:102BA0000E4B00221B68E26022720D20C8E7D3E9B9
:102BB0000512881A142894BF1218143291429A618F
:102BC000DDD1BBE7012218698DF80020DA685B6966
:102BD0000493CDE90202CBE7405C0020585C002062
:102BE000545C0020305C00202DE9F04784B007469B
:102BF0000E461A4803A915469A46FFF703FD40B34F
:102C0000044600211C228846DFF8549005F0CEF8D7
:102C10000C9B12482760C4E90356A360C4F814A0B3
:102C200003A984F80480FFF71BFD09F10400FFF7F6
:102C300067FD18B1404604B0BDE8F08799F811303F
:102C4000002BF8D10190FFF7E3FE019804B0BDE836
:102C5000F087042004B0BDE8F08700BF305C00209E
:102C6000405C00202DE9F04385B081460D461948AF
:102C700003A916461F46FFF7C5FC30B304461C22C5
:102C8000002105F093F8DFF850801248C4F8009056
:102C900001232D0BC4E90275666103A92371FFF7B7
:102CA000DFFC08F10400FFF72BFD18B1002005B090
:102CB000BDE8F08398F81130002BF8D10190FFF7B0
:102CC000A7FE019805B0BDE8F083042005B0BDE87B
:102CD000F08300BF305C0020405C002000F0FD036A
:102CE000012B00D0704730B53A4DA0F10100B0FA89
:102CF00080F02B7A4009002287B028746A74002B78
:102D00004AD0354B1C6802232B722379002B4ED0FE
:102D1000012B07D1D4E903031844FFF729FE48B378
:102D200011281BD0226893687BB10023CDE90333BF
:102D300002930093A36805930323019323790BB3B4
:102D4000012B0ED0936868469847002323492448F6
:102D50002B726B60FFF7C4FC07B030BD01232B72F0
:102D6000FAE7E368616904911B03022102938DF87D
:102D70000010E7E72B7C002BEED101460220FFF785
:102D8000C1FEE9E72069E16801238DF8003063693D
:102D90000493CDE90201D5E710491148FFF770FC13
:102DA0000D4B044618600028ADD16860D4E7D4E923
:102DB0000520121A142A28BF1422D4E903139208FA
:102DC000012A38BF012201441844FFF7CFFD002833
:102DD000A6D1CFE7405C0020585C0020545C002066
:102DE000305C002001600B6843604A68934204BF76
:102DF00000234360704700BF436843B10268916895
:102E00000B4443605268934204BF00234360704701
:102E10000A4A0223C2F80435BFF36F8FBFF34F8F06
:102E2000C2F80805D2F80034002BFBD00023C2F80A
:102E30000435BFF36F8FBFF34F8F704700E0014041
:102E40000A4A0123C2F80435BFF36F8FBFF34F8FD7
:102E50000160D2F80034002BFBD00023C2F8043507
:102E6000BFF36F8FBFF34F8F704700BF00E001408B
:102E7000114B30B40124C3F80445BFF36F8FBFF387
:102E80004F8F7AB1041D081F00EB8205641A1A46A1
:102E9000231850F8041F1960D2F80034002BFBD01F
:102EA000A842F5D1044B0022C3F80425BFF36F8F6D
:102EB000BFF34F8F30BC704700E0014030B1036872
:102EC00048F240508B4208BF0020704748F2105033
:102ED000704700BF28B148F21150914208BF00204E
:102EE000704748F210507047D0B110B50C46A1B1F0
:102EF00011460022C4E90020827959B19A4206D1D4
:102F00002046FEF74DFF08B9074B236010BD48F27D
:102F1000115010BD48F2105010BD48F2135010BDB2
:102F200048F21050704700BF7052464D2DE9F047EF
:102F30000C46064608461049DDE9088915461F4635
:102F4000FFF7BCFF08B1BDE8F08763685A794946CE
:102F500052004046FFF7BEFF0028F4D14DB1CDF836
:102F600020803B462A4621463046BDE8F047FEF722
:102F700021BF48F21050E6E77052464D2DE9F04768
:102F8000DDE9087888B361B341601E460B6891465D
:102F900004469847F8B9184D2560B9F1000F20D0C4
:102FA0004EB1636832465B6849462046984790B9FF
:102FB0002368AB4211D1E7B16368D8F80010DA6832
:102FC000914206D34246394620469B68BDE8F04709
:102FD000184748F21450BDE8F08748F20250BDE8A7
:102FE000F08748F21050BDE8F08748F20150BDE884
:102FF000F08748F21350EEE76E524648F8B50B4D95
:103000000B4E0C4FAD1B0123ED083B700AD0002482
:1030100001E0A54206D056F8343001349847002824
:10302000F7D0F8BD02233B700020F8BDC88207002E
:10303000C88207005C5C0020013A821807D201397F
:10304000013811F8013F02F801398242F9D1704785
:10305000F0B4571EC31907D24C1E461E14F8015F68
:1030600003F80159B342F9D11044C31907D23944C6
:10307000421E11F8010F03F801099A42F9D1F0BC80
:10308000704700BF4B1EC21870B408D204462578A2
:10309000167804F8016B02F80159A242F7D20144F4
:1030A000CB1807D20A78187801F8010B03F8012928
:1030B0009942F7D970BC704708B50B4D642445F0B0
:1030C00001054FF47A40A847013CFAD1BFF34F8F76
:1030D0000649074BCA6802F4E0621343CB60BFF3B2
:1030E0004F8F00BFFDE700BFF07F070000ED00E05D
:1030F0000400FA0507280FD8DFE800F00F160E1DB0
:103100000E0F040F4FF0A0434FF480414FF40052D4
:10311000C3F80C15C3F80C2570474FF0A0434FF4CB
:103120000052C3F8082570474FF0A0434FF40052F7
:10313000C3F80C2570474FF0A0434FF48042C3F80A
:103140000825704708B5FFF7B7FF00BF08B5FFF7C0
:10315000B3FF00BF08B500F057FD00F021F84FF0B5
:10316000A0434FF480414FF40052C3F808150020EB
:103170004FF48051C3F8082500F060F928B90648DB
:10318000C0F5FC2100F05AF908B1FFF795FF03489C
:1031900000F060F8F9E700BF00100700F530070005
:1031A0004FF0A0430322C3F83827C3F834277047F1
:1031B00041DF7047014B01221A7070478060002088
:1031C000BFF34F8F0549064BCA6802F4E062134310
:1031D000CB60BFF34F8F00BFFDE700BF00ED00E005
:1031E0000400FA05024B034800221A7002F0D8BD11
:1031F00080600020C1310700042810B504460BD8B8
:10320000022817D801D102F0C7FC0D4B1B6883B10F
:103210002046BDE810401847831F012BF5D8094B05
:10322000094800221A7002F0BBFD054B1B68002BF9
:10323000EED110BD05494FF4701000F0CBFAE4E771
:103240008460002080600020C1310700E531070064
:10325000002070476349644A4FF0A04310B50860EE
:103260000020C3F8402702F035FD08B1032010BD4F
:10327000044600F031FC012800F08B80022800F0A9
:1032800085800028F2D14FF08043D3F80024D0038A
:103290003DD5564C4FF48032C3F80024236A012BED
:1032A00049D143F20402524B12689A420BD194F86E
:1032B0006032626B012B06D04E484FF4805103F010
:1032C00021FB002837D002F0A7FE94F8A132A269B2
:1032D000012B014603D0484803F014FB58B34FF0CC
:1032E000A043D3F81035DA0325D5444B1B6813F0FF
:1032F000B10F20D102F038FE03460028B6D1404A73
:103300004048137002F04CFD00F086F8AEE7D3F8A9
:10331000202502F0F802A82A4DD1D3F82025D107A4
:1033200049D5D3F82025314C02F05602C3F82025A8
:10333000236A012BB5D04FF4701400F0CFFC324A51
:1033400020211820FEF7DCFF90BB2C4A136803F005
:10335000F803B02B24D0FFF77BFF002886D120464E
:103360002A4900F037FA2A4801F088FD00287FF446
:103370007DAF00F015FDFFF753F8FFF719FF00F0E0
:103380000FFDFFF74DF8FFF713FFF2E74FF4A0240E
:10339000D3E71B4B1F481C7002F002FD032010BD39
:1033A0001368DB07D7D5136803F04E031360D2E729
:1033B000FFF7CCFEC9E70D4C236A012BBBD143F2CA
:1033C00004020B4B12689A4207D1626B09484FF412
:1033D000805103F097FA0028ADD002F01DFEA269DB
:1033E000014678E7846000200C000300687C002020
:1033F000DBE5B151C87E0020097F00201C0500409C
:1034000080600020B5310700605C0020E5310700D6
:10341000F9310700C131070008B5074B4FF0FF3203
:10342000C3F88020C3F8802102F0D0F9BDE808403D
:103430004FF4805000F036B800E100E00346C1F3DD
:103440000B0060BBB3F5FE2F29D870B44C1E240BC3
:1034500004EB133401251B0B4FF0804603F01F01D2
:103460005A0905FA01F1032A05D8DFE802F012151E
:103470000A02C6F814169C4203F1010207D0134653
:10348000ECE79C42C6F8101603F10102F7D170BCBC
:103490007047C6F80016EEE7C6F80416EBE70720FB
:1034A000704700BF414B5A42C2F30B0270B504464D
:1034B000002A72D1B3F5FE2F6FD8C3F5FD2202F2B8
:1034C000FF72120B02EB133101261B0B4FF08045EC
:1034D00003F01F02580906FA02F2032805D8DFE8B4
:1034E00000F0330A3002C5F81426994203F10102B4
:1034F00007D01346ECE79942C5F8042603F1010210
:10350000F7D102F089FD2A4B9B695A1EC2F30B02C8
:103510009B1A034403F6FF72C2F30B02002A40D148
:1035200003F6FE731B0B01264FF0804502F01F01CE
:10353000500906FA01F103280BD8DFE800F0102B40
:103540002808C5F81026D0E7C5F80026CDE7C5F84D
:103550001416934202F1010107D00A46E6E79342AE
:10356000C5F8001602F10101F7D1EFF3058300233E
:10357000D4E9001283F3148883F3108883F311884D
:1035800083F3138881F30888BDE870401047C5F8BD
:103590001016DEE7C5F80416DBE70720FFF7D6FDB7
:1035A000AFE70720FFF7D2FDDFE700BF00100700FD
:1035B000687C002070B5804B1A6884B042B17F49A6
:1035C0000A68002001320A6018601B680093009BA3
:1035D0007B4B1A6822B97B4B1A68EAB904B070BDFC
:1035E000794C7A4900221A601B68257B01934FF4BD
:1035F0008033AB40019AC1F808336368002B40F078
:10360000A980A368002B4ED12368002BE3D09847F4
:103610006C4B1A68002AE1D06B4C6C4900221A608E
:103620001B68257F01934FF48033AB40019AC1F8AA
:1036300008336369002B5FD1A36933B92369002B79
:10364000CCD004B0BDE8704018476FF07F429A427A
:10365000D1F804155D4E28BF1A469B1A0A44591E1C
:10366000942998BF963322F07F428CBF63616361D7
:1036700005F5A871564B98BF963A46F8212043F0BD
:1036800001034FF4F86098474D4BAA001344002201
:103690001A601B6803934FF4803303FA05F5039B0C
:1036A000C6F80453CAE76FF07F429A4228BF1A4611
:1036B000D1F804159B1A0A44591E942922F07F421E
:1036C00071D9636005F5A871404E414B46F8212041
:1036D00043F001034FF4F8609847394BAA001344B4
:1036E00000221A601B6803934FF4803303FA05F538
:1036F000039BC6F8045387E76FF07F429A42D1F8E4
:10370000041528BF1A469B1A0A44591E942998BFCB
:10371000963322F07F428CBF6361636105F5A87127
:103720002A4C2B4B98BF963A44F8212043F00103D2
:103730004FF4F8609847224BAA00134400221A6005
:103740001B6802934FF4803303FA05F5029BC4F81B
:10375000045343E76FF07F429A4228BF1A46D1F8DC
:1037600004159B1A0A44591E942922F07F421ED93F
:10377000636005F5A871154C154B44F8212043F002
:1037800001034FF4F86098470D4BAA001344002240
:103790001A601B6802934FF4803303FA05F5029B0D
:1037A000C4F8045317E796336360963A8AE7963372
:1037B0006360963ADDE700BF044102408860002064
:1037C00040410240444102406C5900200040024008
:1037D00000800700F0B5354B354C1A68157B4FF467
:1037E0008033AB4085B0C4F8083308B905B0F0BDEC
:1037F000304B1C78002C29D14FF08044D4F8184469
:10380000E40302D42C4C012525602C4F2C4E2D4D69
:1038100000243C603F680197019F3460366802963F
:10382000029E2C602E68284D0396A026039F85F8E3
:10383000246310266E601E4D244FC5F808450226ED
:1038400001243C602C60C5F804631C706FF07F435A
:10385000174C11608342D4F80415147B144D28BF13
:103860000346C01A0B44411E942996BF96305060FF
:10387000506023F07F4304F5A871154A98BF963B2A
:1038800045F8213042F001024FF4F86090470C4BAC
:10389000A200134400221A601B680093009A4FF4A0
:1038A0008033A340C5F8043305B0F0BD8C59002027
:1038B000004002408C6000200800004000410240AF
:1038C000404102404441024000E100E00840024023
:1038D00000800700F0B5314B314D1A682B789060AD
:1038E00085B033BB4FF08043D3F81834DB0350D599
:1038F0002C4F2D4E2D4C00233B603F680197019FBC
:10390000336036680296029E23602668284C039630
:10391000A026039F84F8246310266660254C264F5A
:10392000C4F80835022601233B602360C4F8046311
:103930002B706FF07F431F4C11608342D4F8041545
:10394000147B1C4D28BF0346C01A0B44411E94290A
:1039500096BF96305060506023F07F4304F5A87105
:10396000164A98BF963B45F8213042F001024FF4C9
:10397000F86090470C4BA200134400221A601B68A9
:103980000093009A4FF48033A340C5F8043305B088
:10399000F0BD0B4B01241C60AAE700BF905900202A
:1039A0008C600020004102404041024044410240FE
:1039B00000E100E0004002400840024000800700B3
:1039C00008000040014B01221A7070478D600020F2
:1039D00070B5194DEB6A6E6AAC6CAC2B1ED07CB125
:1039E00016483246214604F0C5F908B9002070BDDA
:1039F00000F0D6F931462046BDE8704001F0C8BE5F
:103A000002F020FBEB6AAC2B04460AD00B4832468E
:103A1000214604F0AFF90028E8D0E9E76B6B1C44BD
:103A2000F61A06483246A4F5804104F0A3F90028AE
:103A3000D6D1002070BD00BF687C002000100700B8
:103A40002DE9F04F05468846A8EB050A4FEA1A3AD9
:103A500083B002F6FF77164600F040F9BAF1080F7E
:103A600028BF4FF0080A4FEA0A33DFF868B0019325
:103A70003F0B56B3BA452CBFB946D1464FF00002B2
:103A80004946284634BF019C344601F065FEE21CDD
:103A90000346414622F00302284693B901F04CFE4A
:103AA000034670B9DBF830302344CBF8303002F0F5
:103AB000A5F92544A0440346A7EB0907361B0028B7
:103AC000D7D0184603B0BDE8F08F3346184603B090
:103AD000BDE8F08F687C002070B5464CE36AAA2BE5
:103AE0005AD031D8012B66D0A52B53D102F0CAFA97
:103AF000A16C414B42F204028A589A4214D1D4E993
:103B00000C32934210D088420BD0D21A02F6FF72C8
:103B100022F47F6222F00F0219441844FFF790FF4D
:103B200010B9002002F06AF9344802F069FA344B07
:103B3000344800221A7002F061F9002839D1236A52
:103B4000012B54D0012070BDAC2B23D102F09AFA86
:103B5000A16C294B42F204028A589A42E4D1D4E97A
:103B60000C32934213D088420CD0D21A02F6FF7264
:103B700022F47F6222F00F0219441844FFF760FF1D
:103B80000028D1D1002002F039F90028CCD1FFF76C
:103B90001FFFC9E7002070BDFFF71AFF174802F0AA
:103BA0002FFA174B174800221A7002F027F9002845
:103BB000C8D0032070BDA66C656A02F02DFA86425B
:103BC00007D0226BB1181044AA1AFFF739FF00285A
:103BD000E4D102F021FA00222946FEF7A1FCA36AF3
:103BE0009842DBD10123C4E906502362D6E70220C4
:103BF00070BD00BF687C0020DBE5B1518C7C0020EB
:103C00008D600020C539070008B540F6F8700368DC
:103C1000013305D040F6FC700368013308D008BDBD
:103C20000649FFF70DF940F6FC7003680133F6D141
:103C3000BDE808404FF4FC21FFF702B9001007006F
:103C40001E4BD3F80024002A36D0D3F80825D2071B
:103C500044BF1B4AC3F80026184BD3F80825900729
:103C600044BF174AC3F80426144BD3F8082551075C
:103C700044BF134AC3F80826104BD3F8082512078F
:103C800044BF0F4AC3F80C260C4BD3F80825D006C6
:103C900044BF0B4AC3F81026084BD3F808259106F9
:103CA00044BF074AC3F81426044BD3F8082552062C
:103CB00044BF034AC3F81826704700BF0000014004
:103CC0003546526E044B002282B01A601B68019385
:103CD000019B02B0704700BF0001014010B52B4CA2
:103CE0002378002B51D12A4BD3F80024002A4AD044
:103CF000D3F80405D3F8002440F616518842B8BF23
:103D00000846A0F54860002A36D0D3F80825D20727
:103D100044BF204AC3F800261D4BD3F8082591075D
:103D200044BF1C4AC3F80426194BD3F80825520790
:103D300044BF184AC3F80826154BD3F808251107C5
:103D400044BF144AC3F80C26114BD3F80825D206F9
:103D500044BF104AC3F810260D4BD3F8082591062E
:103D600044BF0C4AC3F81426094BD3F80825520661
:103D700044BF084AC3F818260749FFF7ABFD074BB5
:103D80004FF480321A600123237010BD8E60002032
:103D9000000001403546526E413C070000E100E062
:103DA000204BD3F80024002A3AD0D3F80024002A6C
:103DB00036D0D3F80825D20744BF1B4AC3F80026E3
:103DC000184BD3F80825900744BF174AC3F80426B8
:103DD000144BD3F80825510744BF134AC3F80826EB
:103DE000104BD3F80825120744BF0F4AC3F80C261E
:103DF0000C4BD3F80825D00644BF0B4AC3F8102655
:103E0000084BD3F80825910644BF074AC3F8142687
:103E1000044BD3F80825520644BF034AC3F81826BA
:103E2000704700BF000001403546526E0023C0E9D4
:103E30000232C0E900118B881A440261B1F90630E0
:103E40001A4442610888003818BF0120704700BF3B
:103E5000426803461088002831D030B402F11001C6
:103E60005960108A60B91968DA68C3E901108C8852
:103E700022441A61B1F906100A445A6130BC7047F5
:103E80009078158900F03004302C1ED000F0F0013D
:103E9000202915D000F0C0008028196908BF04252A
:103EA00014B9986801309860908A284401441961D7
:103EB000B2F9162011445961012030BC7047704797
:103EC0005089196900FB05F5EAE7917C01F03001A2
:103ED0003029DFD190881969091A19619478002571
:103EE00004F03004DCE700BFF0B445682B461A88C4
:103EF0008A4204D19C7804F00F04082C49D17AB18D
:103F000003F1100444601A8A7AB90368C0E90132E7
:103F1000C2689C8822440261B3F90640224442618F
:103F20009D42E4D10020F0BC70479E78B3F808C0F1
:103F300006F03007302F18D006F0F002202A23D0E8
:103F400006F0C006802E026908BF4FF0040C17B9B6
:103F50008668013686609E8A664432440261B3F9FF
:103F600016301A4442612346DAE79A7C02F03002A6
:103F7000302AE5D19E880269921B02619F784FF03A
:103F8000000C07F03007E2E75E89026906FB0CFCD3
:103F9000DDE70120F0BC7047F0B44468A31843602B
:103FA00029B3571E1AB3E01C401A062822D9072F3E
:103FB00020D922F0030626442346084653F8045B22
:103FC00040F8045BB342F9D122F003039A42A7EB15
:103FD000030701EB030004EB030508D0E25CCA54BD
:103FE0002FB16B784370012F01D0AB788370012023
:103FF000F0BC7047013914F8012B01F8012FA342DE
:10400000F9D10120F0BC70472DE9F041836882B0FE
:104010009BB303680E4601220DF107010446984741
:10402000054650B3A3689DF907209DF80770013B32
:10403000002AA36004DB2846376002B0BDE8F081A7
:1040400007F07F074FF0070801220DF10701204616
:104050009BB12368984780B19DF80710A36801F0D1
:104060007F0202FA08F2013B17430A0608F107082B
:10407000A360E0D5B8F1230FE6D10025284602B0B1
:10408000BDE8F0812DE9F0430026836883B0044643
:1040900088461746B146354601220DF107012046F4
:1040A000FBB123689847A5F12001C5F1200EC0B1EE
:1040B0009DF807C0A3680CF07F0202FA01F122FA12
:1040C0000EFE41EA0E01AA40013B1CF0800F41EABE
:1040D000090946EA020605F10705A36005D0462D49
:1040E000DAD1002003B0BDE8F083B8F80830082B1F
:1040F00013D0042B34464FEAE6751ED0022B11D0A4
:10410000012BEED176B272B2D317AB4208BFA242F6
:104110003E700CBF01200020E4E7C7E9006903B04E
:10412000BDE8F08336B232B2D317AB4208BFA24229
:104130003E800CBF01200020D4E73E6003B0BDE804
:10414000F08300BF2DE9F043D0F808E083B00446C7
:104150000D469046002600274FF0000901220DF180
:1041600007012046BEF1000F23D023689847A9F12C
:104170002003C9F1200EE0B19DF807C0A2680CF041
:104180007F0121FA0EFE01FA03F343EA0E0301FA5E
:1041900009F13B43314302F1FF3E1CF0800F0E4614
:1041A0001F4609F10709C4F808E006D0B9F1460F27
:1041B000D4D1002003B0BDE8F0832B89082B12D0A6
:1041C000042B1AD0022B13D0012BF2D106F0FF02E0
:1041D00088F800600023BB4206BFB24201200020E5
:1041E00003B0BDE8F083C8E9006703B0BDE8F08321
:1041F000B2B2A8F800600023EDE73246C8F80060CC
:104200000023E8E72DE9F0470025836882B00446E3
:1042100088469146AA462E4601220DF10701204606
:10422000EBB123689847A6F12001C6F1200CB0B18C
:104230009DF80770A36807F07F0202FA01F122FAE5
:104240000CFCB24041EA0C01013B15433A0641EA3D
:104250000A0A06F10706A36005D5462EDCD1002028
:1042600002B0BDE8F08705F00106002756EA070313
:104270001BD1B8F808306E08082B46EACA764FEA18
:104280005A071DD0042B26D0022B1ED0012BE6D1BD
:1042900072B289F8002052B2D3179F4206BF9642ED
:1042A0000120002002B0BDE8F087B8F808306D08A2
:1042B00045EACA75082B6FEA05066FEA5A07E1D18D
:1042C000C9E9006702B0BDE8F08732B2A9F8002062
:1042D00012B2D317E1E7C9F800603246F317DCE702
:1042E00070B58CB00A4601466846FFF79FFD00286E
:1042F00047D0002616E013F0C00044D103F030048C
:10430000102C4CD09C0647D4072950D0D168049873
:104310001289002950D003F03BFD6846FFF798FD55
:1043200000282ED0019A937803F00F010829E2D1DA
:10433000049B1C68002CF0D0236826739D6862687B
:10434000294606A8FFF772FD63680A9304F10C037F
:104350000B93AB7803F0C003802B06A805D000F0C8
:104360002FF8A468002CE7D1D7E7231D0A9300F0AB
:1043700027F8A468002CDFD16846FFF769FD002804
:10438000D0D10CB070BD8028C7D1049A9B061660AE
:1043900044BF059B1E80C0E7059B1880BDE7059BB9
:1043A0001870019A917801F00F010729AED1D068F9
:1043B0000499FFF795FFB0E703F0F8FCADE700BF05
:1043C00070B54268937803F00F01082986B01ED0BB
:1043D00013F0C00410D103F03005102D41D09D061C
:1043E0003BD4072945D0D16800691289002945D0FE
:1043F00003F0CEFC06B070BD802CFBD10169002219
:104400000A609B0644BF43691A8006B070BD036909
:104410001C68002CEED00026236826739D68626815
:1044200029466846FFF702FD6368049304F10C0314
:104430000593AB7803F0C003802B684605D0FFF7E7
:10444000BFFFA468002CE7D1D4E7231D0493FFF736
:10445000B7FFA468002CDFD1CCE743691C8006B00D
:1044600070BD43691C704268917801F00F01072903
:10447000B9D10169D068FFF733FFBBE703F096FCC1
:10448000B8E700BF30B5102A836885B015460446EA
:1044900010D90F2B4FF0100269462046A5F11005E8
:1044A00015D92368984790B1A368102DA3F1100384
:1044B000A360EED89D420AD823682A466946204662
:1044C000984720B1A3685D1BA56005B030BD0020F2
:1044D00005B030BD8368032B13D930B5154683B0C2
:1044E000042203680DEB02010446984730B1A3682B
:1044F000019A043BA3602A6003B030BD002003B0E2
:1045000030BD0020704700BF8368072B14D9F0B579
:1045100083B015460368082269460446984740B1AF
:10452000A368DDE90067083BA360C5E9006703B045
:10453000F0BD002003B0F0BD002070478368002B61
:1045400055D02DE9F04182B00F46164603680DF1B3
:10455000070101220446984790B1A3689DF90720FE
:104560009DF80750013B002AA3601CDBBB7803F0D9
:10457000C003802B05F1020202D03B89934203D293
:10458000002002B0BDE8F0813580A368AB42F7D3CC
:104590002368B11C2A46204698470028F0D0A3681B
:1045A0005D1BA560EDE705F07F054FF007080122D0
:1045B0000DF107012046002BE2D023689847002820
:1045C000DED09DF80710A36801F07F0202FA08F21E
:1045D000013B15430A0608F10708A36003D5B8F1AB
:1045E000230FE4D1CCE7B5F5803FC9D2BEE7002068
:1045F000704700BF8368002B5AD02DE9F04182B08C
:104600000E46174603680DF107010122044698473C
:10461000A8B1A2689DF907309DF8075002F1FF3C50
:10462000002BC4F808C020DB0123EB1807D2B278B6
:1046300002F0C002802A02D032899A4203D20020BE
:1046400002B0BDE8F081002F36D0AC4532D32368EC
:104650002A4639462046984760B3A3685B1BA3608F
:1046600000237B5502B0BDE8F08105F07F054FF0D7
:10467000070801220DF107012046BCF1000FDED032
:10468000236898470028DAD09DF80710A26801F047
:104690007F0303FA08F302F1FF3C1D430B0608F108
:1046A0000708C4F808C0BFD5B8F1230FE1D1C6E7A9
:1046B000002070470020D3E7044B22689A42C4D000
:1046C00020462A463946FFF7DDFEC9E7993F070035
:1046D00010B4044C416000210460826010BCC160D1
:1046E000704700BF993F070030B5044683B00529E5
:1046F00008D8DFE801F01E140307070A01A9FFF735
:1047000083FC48BB002003B030BD2D4B02689A42A9
:104710003AD004220021FFF7B5FE03B030BD284B8C
:1047200002689A4223D008220021FFF7ABFE03B0B3
:1047300030BD83680AE0236898470028E2D0A36868
:104740009DF90420013B002AA360DCDA012201A9C3
:104750002046002BEFD1D5E7194B2268019D9A42E4
:104760001FD02A4620460021FFF78CFECBE7836846
:10477000072BC7D908220021FFF70EFC0028C1D063
:10478000A368083BA360BEE78368032BBAD9042261
:104790000021FFF701FC0028B4D0A368043BA3600C
:1047A000B1E7A3689D42ADD82A4600212046FFF715
:1047B000F3FB0028A6D0A3685B1BA360A3E700BFA0
:1047C000993F07002DE9F041836882B0002B3CD06F
:1047D00003680D4601220DF107010446984707467C
:1047E00098B3A3689DF907209DF80760013B002A54
:1047F000A3600DDB94E80F00B24285E80F0024D3DC
:10480000AE60A36838469E1BA66002B0BDE8F0818A
:1048100006F07F064FF0070801220DF10701204640
:104820009BB12368984780B19DF80710A36801F0F9
:104830007F0202FA08F2013B16430A0608F1070854
:10484000A360D7D5B8F1230FE6D10027384602B0D0
:10485000BDE8F0812DE9F04F5768BB7813F0C00632
:1048600014468BB005460A4653D0402E4CD1D4F89E
:104870001080474657F8043B002B00F0D8800229EF
:1048800000F08480012900F0E280052900F09E807C
:10489000002939D103AB01931E46C3F1010A0DF182
:1048A0001609836865E0022A40F0B080042900F20E
:1048B000AD800DF1180949466769FFF783FF064689
:1048C00010B3089B002B00F0DA803A884646134666
:1048D000804610E0B2F808C0226903FB0C22B04702
:1048E000002800F0CF803B8801339BB23B80089AC0
:1048F000002A00F0C3806268B2F80AC09C451146E5
:104900004846E7D8079B6B60002630460BB0BDE8F1
:10491000F08F03F00F01DFF880C103F03003202B8C
:104920005CF82180BFD00AD85BB3102BEDD163694E
:1049300001221A7022696168C0470646E5E7302BFC
:10494000E3D163693A881A80072974D022696168C3
:104950002846C0470646D8E72B6898470028D3D09A
:10496000AB6816F9012B013B002AAB603EDA4E45DD
:10497000CAD031460122284606EB0A0B002BEBD1A8
:10498000C2E722693946C0470646BEE703A9FFF7DA
:104990003BFB0028B8D095E80F000DF1180989E815
:1049A0000F00039B08999942AED3D21AAA600893CC
:1049B00002E0089B002B5DD0D8F8003061683A46D1
:1049C000484698470028F4D106469EE78368032BA3
:1049D0009AD903AB0193194604220368984700282B
:1049E00092D0AB68043BAB604FF0040B019B079384
:1049F000284A06920023CDF820B009936168D8F8C0
:104A000000303A4606A8984706467EE761697A89EB
:104A10000B889A427FF678AF3E892269581C08803D
:104A200003FB062261682846C04706466DE7FFF78C
:104A30005BFE064669E7636820691A89314603F020
:104A4000B5F963682169D868FFF74AFC7EE7836897
:104A5000072B7FF659AF03AB019319460822036871
:104A6000984700283FF450AFAB68083BAB604FF06D
:104A7000080BBBE7079B6B60064646E74646079B6D
:104A80006B6042E7DDE907366B60002E7FF43CAFD8
:104A90003BE700BF993F0700088007002DE9F04F72
:104AA00004468FB002A800260027CDE90067FFF773
:104AB000BDF9A3680BB34FF00008012508A92046F3
:104AC000FFF7A2FAB0B1089EBEB1F708394602A8B6
:104AD00006F00706FFF708FA00283CD1B84564D96C
:104AE00031462046FFF700FE00285AD100200FB0C3
:104AF000BDE8F08FA368002BF9D1DDE9033402A8EB
:104B00009D78FFF7A5F90028F7D115F0300F04D1F3
:104B1000039B1B88002B40F0AE80002C00F0A98086
:104B2000630907D0009A0132E0D1012B02D0019A2B
:104B30000132DBD10EAA02EB830204F01F0352F80C
:104B4000382CC3F120034FF0FF30D840801AB0FA60
:104B500080F04009CBE7039B9B7813F0300F0FD117
:104B6000049B3F2B0CD85A090EA901EB820203F0DB
:104B70001F0352F8381C05FA03F30B4342F8383C84
:104B8000D4F80C90B9F1000F04D0394602AB32468C
:104B90002046C847314602AA2046FFF75BFE0028A0
:104BA000A4D0A368002B89D1A7E7DDF80C8042468A
:104BB00004E0FFF74DF9039A904550D0937803F045
:104BC0000F03082B02A8F4D1B2F80080B84587D8AB
:104BD000069BD4F808C0D3F80090E246B9F1000F64
:104BE0003FF47EAFD9F800E0DEF800B033463A4635
:104BF00049462046BBF1000F0ED0D84700283FF4AD
:104C000075AFD4F808C0D9F808906346B9F1000F21
:104C100028D0E245E6D0C5E7DEF808B0BBF80030A2
:104C20009F42F0D1D9F80420594608A8FFF7FEF8B2
:104C3000D9F804300C9309F10C030D939BF8023062
:104C400003F0C003802B04BF09F104030C9308AAEE
:104C500089F80C5031462046FFF7FCFDCEE74FF0B7
:104C6000FF383DE7D4453FF43BAF002B7FF426AF40
:104C700043E701203BE701344FE700BF8368002B87
:104C800063D02DE9F0470D468AB090460368D5F809
:104C90000CA004A901220446984700283FD0A6682A
:104CA0009DF910309DF81090013E002BA6601CDB92
:104CB00094E80F006F464A4587E80F002FD3A6EB14
:104CC0000906A660EB68CDF8089043B3AB7803F013
:104CD0003003202B4246514625D03846FFF7DEFEF2
:104CE000019B63600AB0BDE8F08709F07F090727E0
:104CF000012204A9204696B12368984778B19DF80F
:104D00001020A66802F07F03BB40013E49EA030978
:104D1000130607F10707A660CAD5232FE8D10020A4
:104D20000AB0BDE8F08704A8FFF780F838B104A8FE
:104D3000FFF746FB04A8FFF78BF80028F7D142469F
:104D400051463846FFF7AAFECAE70020704700BF69
:104D50002DE9F0438DB0064668460F469046FFF7B2
:104D600065F800283CD04FF0000915E013F0C002B0
:104D70003ED103F03001102950D099064BD4072DB5
:104D8000E16854D02289049800295FD003F000F82C
:104D90006846FFF75DF818B3019CA37803F00F0590
:104DA000082DE3D1049B1C68002CF1D0236884F803
:104DB0000C909D686268294606A8FFF737F863687B
:104DC0000A9304F10C030B93AB7803F0C003802B20
:104DD00006A818D0FFF7F4FAA468002CE6D1D7E7AC
:104DE000424639463046FFF759FE0DB0BDE8F08324
:104DF000802ACDD1049A9B06C2F8009044BF059B3F
:104E0000A3F80090C4E7231D0A93FFF7D9FAA4681A
:104E1000002CCBD1BCE7059B1A80B9E7059B1A7023
:104E2000019CA578E16805F00F05072DAAD1049A29
:104E300006A8FEF7FBFF0028AAD006A8FFF7C0FAD5
:104E400006A8FFF705F80028F7D1A1E702F0AEFFAA
:104E50009EE700BF831F012B10B5044607D9064B00
:104E60001B681BB12046BDE81040184710BD00204C
:104E700001F0ACF8F3E700BF90600020084A08B5E5
:104E8000106010B1034600209847064801F084F8EE
:104E900000B108BDBDE80840024800F055BE00BFA3
:104EA00090600020554E07006CDF70476DDF704743
:104EB00072DF704773DF704774DF704775DF7047CC
:104EC00076DF70477ADF70477CDF70477DDF7047A1
:104ED0007FDF704786DF70478FDF704790DF704756
:104EE000A8DF7047AADF7047ADDF7047AEDF7047BD
:104EF000B0DF7047B1DF7047B5DF704762DF7047E2
:104F000066DF704713DF704701460148FDF758BC64
:104F1000DC82070038B5164C2368024613F0010006
:104F20001DD014498A4219D0134A10884FF6FF72D7
:104F3000904215D043F0040313212360FFF7C0FF14
:104F400068B90E4DC82445F001054FF47A40A847D2
:104F5000013CFAD1BDE83840FDF77EB8002038BDED
:104F6000074B1878FFF7A8FFBDE83840FDF774B885
:104F700034710020C8820700965900200082070083
:104F800094590020F0B5224C224A22608DB00023B3
:104F900045F60216FE210B93069303930125CDE9F6
:104FA0000933CDE9043307932822A6801623A17183
:104FB000092604F109000DF1060102948DF818503C
:104FC0008DF82D500892ADF80630ADF80C60FFF763
:104FD0007DFF08B10DB0F0BDBDF80630BDF80C0086
:104FE0000D4F26725919E171034406AA384602A9E9
:104FF000ADF80C30FFF75CFF0028EBD13878FFF7F5
:105000005BFF38782946FFF755FF0DB0F0BD00BFB4
:105010001471002002010603945900202DE9F04389
:105020000388013B8BB00446552B00F29680DFE8E5
:1050300013F00101940094009400940094009400F3
:1050400094009400940094009400940094009400C0
:105050000901160194002601410194009400940076
:10506000940094009700940094009400940094009D
:105070009400A4009400AE00940094009400940066
:105080009400940094009400940094009400940080
:105090009400940094009400940094009400940070
:1050A0009400940094009400940094009400940060
:1050B0009400940094009400940094009400940050
:1050C0009400940094009400940094009400940040
:1050D000B8005600970094009400E100F600837930
:1050E000002B3AD0022B38D19F4D0189AA899142D9
:1050F00033D1827B012A30D1DFF87C820169B8F894
:10510000007006910022CDE904224FF0010CADF8A9
:105110000A2004F114060DF10409298AADF80830BB
:10512000384602AA8DF810308DF816C00796CDF8D3
:105130000C90FFF7D9FE002840F0DC804846FCF7D1
:10514000F7FE002840F0D48040F2FD13B8F80000CC
:10515000ADF8143004A9FFF7CBFE0BB0BDE8F08327
:10516000002380881A461946FFF7C4FE0028F4D0B1
:10517000FDF7ECFF0BB0BDE8F08300238088ADF8AD
:10518000103004A9FFF7A8FE0028E6D0F0E70022BF
:105190008088059204A90492FFF7A0FE0028DCD0C5
:1051A000E6E7714DC288AB889A42D6D16F48FDF7C9
:1051B000DFFA06460028D0D0228A04F1120102F05C
:1051C000E7FD278A6A4A6B4C05950023082104A84D
:1051D000CDE908630493ADF8247006948DF810109F
:1051E000079200F0A7FC0028B7D060483146FDF7D1
:1051F000E7FAB2E7C188F62966D8CB1E9B0764D0D0
:10520000CB1F9BB2013B5A4202F0030203F003039F
:1052100001F1FF3158BF5342C91A89B255E0837971
:10522000002B9AD1544B13211888FFF749FE002810
:1052300093D09DE7504B00211888FFF761FE0028AE
:105240008BD095E74D4B4C4D1B688088288013B15F
:105250000120984728884A49FFF730FE7DE7494BEF
:10526000454A1B684FF6FF7111805A0739D5434BE9
:105270001B68002B3FF471AF022098476DE73E4D4D
:105280002C880022022102ABADF81220ADF81010DC
:10529000204604AA42F605210593FFF725FEE0B952
:1052A000002320461A468521FFF712FE00283FF40E
:1052B00054AF5DE7002380881A461946FFF70AFEBF
:1052C00000283FF44AAF53E7F7212B4B1888FFF72C
:1052D00013FE00283FF441AF4AE7FDF737FF2C8863
:1052E000DEE7FFF74FFE0028C1D0FDF72FFFBEE736
:1052F000B8F800700023384604A9ADF81430FFF761
:10530000F7FD00287FF429AF237D1A490490022B72
:10531000CDE90700099005958DF81030069107D06A
:10532000062B1DD0012B0CD004A800F003FC14E7C1
:10533000A07D637D1449154A43EA00230B80138046
:10534000F2E7114A637D10881049D4F816200880CE
:10535000012BCDE90832E7D10D4800F037FEE3E735
:10536000637D0893E0E700BF00710020DC82070046
:10537000094F070095530700965900203871002007
:1053800008820700347100203C7100203E7100202B
:10539000C882070070B502788AB00023082ACDE9D8
:1053A0000533079308938DF8243032D043788DF875
:1053B00015206021012B8DF816308DF814101CD0AB
:1053C0000B2B7ED00321444A444B92891888ADF8B8
:1053D0000210002301250DF10204ADF8042001A9FB
:1053E00005AACDE903428DF80B30CDF807308DF8D2
:1053F0000650FFF77BFD0AB070BD062A3BD0032A9A
:105400001FD00323344A354992890888ADF8023009
:10541000DFE7334A334913880988013B9BB2138085
:105420000029E8D0002BE6D143781180012B4FF002
:1054300003014FF458728DF816300170ADF8142046
:10544000BED1D0E90123150A140C180A190C8DF8E5
:1054500017208DF81B30120E1B0E8DF81E308DF8A4
:1054600018508DF819408DF81A208DF81C008DF811
:105470001D100B23C6E7D0E90113C2688DF8172071
:10548000140A100C120E0E0A8DF818400D0C8DF82F
:1054900019000C0E180A8DF81A208DF81F301A0CFE
:1054A0001B0E8DF822308DF81B108DF81C608DF8C6
:1054B0001D508DF81E408DF820008DF821200F23FF
:1054C000A0E700F05BF9034600208DF8173000F0EC
:1054D0004FF9042177E700BF0071002096590020A2
:1054E0003E7100203C7100202DE9F043454B95B002
:1054F00001264FF6FF71198002464FF659630546A3
:1055000002A930468DF80A60ADF80830FFF7E8FCD4
:10551000044618B1204615B0BDE8F0833A4B0FCBD6
:1055200004AC84E80F002046A91CFFF7E7FC044602
:105530000028EFD100F0F8072B4647F0030744F0AE
:1055400004098DF8067001AFCDE90B440D94ADF858
:105550000440CDE90E44CDE91044CDE9124495F85C
:1055600002C00A944FF0020E8DF83490099733F878
:10557000040BADF80CE00DA908AA4FF01108A146E4
:1055800003AFF424ADF82C408DF80EC08DF80580E3
:105590000897FFF7A7FC04460028BBD12B4695F8D7
:1055A00002C00D94ADF804400B94CDE90E44CDE952
:1055B0001044CDE912440A940C9409F0E80704F071
:1055C000E70503ACADF80C60089433F80C0B8DF8CC
:1055D000058001AC47F0130708AA0DA945F018058E
:1055E000172609948DF806708DF834508DF80EC08A
:1055F000ADF82C60FFF776FC0446204615B0BDE8F8
:10560000F08300BF96590020E881070030B5374C81
:10561000236813F0010585B002D0002005B030BD2D
:10562000334B024633481A60FDF786F8029500F0C6
:10563000BFF80028F2D13048FFF764FC0028EDD114
:10564000FCF77EFC0028E9D102A8FCF7DFFD00286A
:10565000E4D102A90120FCF7E3FD0028DED102A875
:10566000FCF744FE0028D9D100F06EFC002830D1B0
:10567000112302A88DF80430FFF718FC0028CDD1C3
:105680009DF8093002A801338DF80930FFF70CFCB2
:105690000028C3D123689B0723D5184988690431A2
:1056A00082B201A8FFF710FC0028B7D11448FFF719
:1056B00009FC0028B2D11348FFF716FF0028ADD12E
:1056C000FFF760FC0028A9D1236843F001032360A1
:1056D000A4E70A4800F02CFC236843F0020323608F
:1056E000C6E7094802F06AFB0749D9E73471002090
:1056F00038710020DC820700001007009460002051
:105700000882070000710020E081070043690BB1A7
:10571000C0681847704700BF044A0549002818BFF1
:10572000114604480022FDF767B800BF847F0700D8
:10573000587F0700085A002030B583B00D46144644
:10574000014600932A4623460248FDF75BF803B062
:1057500030BD00BF085A002010B40C461346014665
:105760002246024810BCFDF753B800BF085A00207B
:10577000014B18700B20704740710020024B002233
:1057800018781A70704700BF4071002018DF70470A
:1057900000B585B00246002389086846CDE901219D
:1057A00003930093FFF7F2FF05B05DF804FB00BF21
:1057B00000B585B0002302226846CDE9013303938A
:1057C0000092FFF7E3FF05B05DF804FB4FF00053D4
:1057D0004FF480521A600020704700BF014B062032
:1057E0001B6818474C71002010B5044686B0002095
:1057F000FDF714F8B8B91B4A1B4B116D1B680090DC
:1058000004229942CDE90100CDE9030005908DF80D
:1058100000200FD001238DF801306846D4E9011330
:10582000984706B010BD114A20461821FCF78EFD9E
:1058300006B010BD0E4B186801F096F80A288DF8D6
:1058400001000AD8D4E901138DF801006846984791
:10585000084800F0D3FA06B010BD0B38C0B2FFF70D
:1058600087FFEFE7687C002044710020E9570700BC
:1058700048710020DD570700F0B5017887B000229D
:1058800004464B1E0120CDE90022CDE90222CDE9DC
:1058900004228DF800108DF801000B2B58D8DFE89A
:1058A00003F047394747574757475757575B00F06B
:1058B000E9FE002800F0CB806369002B00F007812F
:1058C000C3F30B023AB1964A9649526D09681A44DD
:1058D0008A4240F0FC80B3F5805F00F21C81904A60
:1058E0009049506D09681D188D4200F2B080D16C4E
:1058F00010651063916453648B4A6369126803F600
:10590000FF731044190B0022FFF726FF10B1052387
:105910008DF80130D4E90113684698479DF80130AD
:10592000012B03D0814B05201B68984707B0F0BDC1
:10593000062916D0012914D07D490A78012A29D0D8
:10594000022A12D0002205230A708DF80130E1E707
:1059500002238DF80130DDE7744B07201B68984760
:10596000D8E77349227C0A70E8E7072BD2D801A256
:1059700052F823F0AF58070015590700575A07008F
:10598000415A0700155907002F5A070015590700FB
:105990007B5A0700072BBDD801A252F823F000BFA5
:1059A000635A070015590700235A0700FB590700DF
:1059B00015590700E959070015590700C159070093
:1059C000A18A206900F03EFE0A2800F29180544B23
:1059D000E2688DF80100D3E90F31CDE90131002AE9
:1059E00098D02069904795E74D4BD3E90F134FF4BA
:1059F0000072CDE9011303928CE74A494A4800F04E
:105A0000E1FE0A2879D801288DF8010082D1002012
:105A100000F0F4F900283FF47DAF0A238DF801303F
:105A200078E73F4BD3E90F32CDE9013272E73C4BC7
:105A3000996C1B6D4FF48052CDE90131039269E7F7
:105A4000374BD3E91452596CAA1A8A4243D008231F
:105A50008DF801305EE7324B9A6C1B6DCDE9013257
:105A600058E7324B03201B689847606900F0D2FD6D
:105A70000A2847D88DF801004CE700F003FE002803
:105A8000E5D0274DA18A6A6CD5E914301B1A0B4466
:105A900093421CD8244A2B6B1768206905F14802F1
:105AA0001F44FCF73DFDE368A28A2169064638469B
:105AB000FFF742FE58BBA28A2B6B029613442B635E
:105AC000A38A2A6DAE6413442B65019322E7032356
:105AD0008DF801301EE79A6C5D65002120465964FF
:105AE000DA64FFF781FE114B04201B6898471DE71D
:105AF0000B38C0B2FFF73CFE69E70B38C0B2FFF7C6
:105B000037FE80E70B38C0B2FFF732FEB2E7D4E9C8
:105B100003309847FEE604238DF80130FAE600BF13
:105B2000687C002044710020487100204C710020E6
:105B30009859002083681BB1024A1821FCF706BC63
:105B4000072070477958070038B5D8B105460120BD
:105B5000FFF7E2FD044608B1204638BD00F04AFDDB
:105B600000F090FD38B10949094800F02BFE0128EA
:105B700001D00324F0E7074B00201D60FFF7F8FD7C
:105B8000204638BD0724204638BD00BF44710020A0
:105B9000487100204C710020F8B5494C494D2368EC
:105BA00001331FD12C682368013309D1464C4FF4CF
:105BB00060722046002102F0F9F802236360F8BD0C
:105BC00000225821201DFCF7ABFC23689842EDD140
:105BD0006368012B68D129683B484FF4607202F07A
:105BE000D7F81AE0201D00225821FCF799FC2E68F6
:105BF000276833680133044607D000225821301D3E
:105C0000FCF78EFC336898422AD0BC42CED12C4996
:105C10002D484FF4607202F0BBF82B4C6568012DE3
:105C2000CDD1402204F5AE7104F5497002F0B0F810
:105C30001C2204F5CE7104F5597002F0A9F8002376
:105C4000042204F11C0104F2A22084F8603284F8DA
:105C5000E23284F8A15202F09BF802236360F8BD9F
:105C60007368012B15D1BC42B5D1154916484FF4C4
:105C7000607202F08DF8296814480431542202F051
:105C800087F8296812485C314FF4327202F080F8CC
:105C9000C3E70022C32106F51870FCF741FCD6F8D3
:105CA0005C329842B1D1DEE70022C32104F51870BE
:105CB000FCF736FCD4F85C3298427FF477AF8AE781
:105CC00000F007009C590020687C00206C7C0020BC
:105CD000C47C002070B5FFF71FFD002850D12A4D6D
:105CE0000446FFF759FF224658212846FCF718FCC6
:105CF00022460346C32105F5177045F8043CFCF71E
:105D00000FFC2E1F034631462048C6F85C324FF484
:105D1000607202F02FF8F0B91D4B1E491D684FF458
:105D20006072284602F026F858B300220121284666
:105D3000FFF712FD064620BB164917484FF4607264
:105D400002F026F81449334628464FF46072FFF7F4
:105D5000F3FC344615E00D4822460121FFF7FCFC18
:105D600070B931464FF460720C4802F011F80B49DB
:105D7000064823464FF46072FFF7DEFC0028CBD0C4
:105D80000324204670BD00BF6C7C002000F007009B
:105D90009C590020687C0020D074002050710020A5
:105DA00070B5134B13491D6804464FF460722846C2
:105DB00001F0E0FF28B91CB12346BDE87040184748
:105DC00070BD002201212846FFF7C6FC0028F7D14C
:105DD000084909484FF4607201F0DAFF234628466B
:105DE0000549BDE870404FF46072FFF7A5BC00BFE5
:105DF0009C59002000F00700D074002070B52D4C95
:105E00000022582105462046FCF78AFB0022034663
:105E1000C32104F5177044F8043CFCF781FB261FEE
:105E2000034631462448C6F85C324FF4607201F0F4
:105E3000A1FF68B9214B22491E684FF460723046B9
:105E400001F098FF0446E0B98DB3A847204670BD25
:105E5000194800220121FFF77FFC044670B9314642
:105E60004FF46072174801F093FF16491248234619
:105E70004FF46072FFF760FC0028DBD0032420465B
:105E800070BD002201213046FFF766FC044670B960
:105E90000B490D484FF4607201F07AFF0A492B4616
:105EA00030464FF46072FFF747FC204670BD002477
:105EB000204670BD6C7C002000F007009C5900203B
:105EC000687C002050710020D074002010B5084C70
:105ED0004FF40072FF21204601F068FFA4F1240076
:105EE0002022002101F062FF002344F82C3C10BD69
:105EF000C47C002029DF704738B50C4DD5F86433D9
:105F000090B1013301D0082038BD04460022182189
:105F10000430FCF705FB2060214605F55970072287
:105F2000BDE83840FFF7E6BF0E2038BD00F007009F
:105F300030B108B503491C2201F02AFF002008BD3A
:105F40000E20704764F3070010B5064C002220466F
:105F50001821FCF7E5FA54F8043C181AB0FA80F05E
:105F6000400910BD68F3070010B50A4CD4F824337B
:105F7000D4F864231340013309D04FF4FE20FCF71A
:105F800047FF2146C9224FF4FE20FCF771FF002095
:105F900010BD00BF687C0020F8B50A4D0A4EAD1B4D
:105FA000ED080CD00746002401E0A54207D056F8C2
:105FB00034303846013498470028F6D0F8BD002028
:105FC000F8BD00BFD0820700C882070070B50A4C38
:105FD0000A4D2D1BED080CD0064604EBC50501E06B
:105FE000AC4206D063683046083498470028F7D0A2
:105FF00070BD002070BD00BFC8820700D0820700BE
:1060000008B50C22002101F0D1FE024B00221A63D8
:1060100008BD00BF687C002043F20402084B1268F0
:106020009A4202D04FF48050704743F20803186838
:1060300000F6FF7020F47F6020F00F00704700BF73
:10604000DBE5B15143F204020C4B12689A420BD0CB
:106050004FF480500A4B9B69184400F6FF7020F4FF
:106060007F6020F00F00704743F20803186800F6C5
:10607000FF7020F47F6020F00F00EBE7DBE5B1510B
:10608000687C00204FF48050704700BFF8B55A4D2F
:106090005A4CAF692E6AA1B90ABB43F204065849AB
:1060A00036688E4200F0898007F6FF7307F5FF57C8
:1060B000C3F30B031F37DF1B2744B84209D8002066
:1060C000F8BD002A45D143F204014D4A09689142C6
:1060D00063D0A4F58052904233D90420F8BD012E3C
:1060E00039D043F20401464A0968914252D143F241
:1060F0000802126802F6FF7222F47F6222F00F0299
:1061000017447A1EC2F30B0207F6FF77D71B27440A
:10611000B842D4D943F20401394A096891420DD1F9
:1061200043F2080211684A1EC2F30B0201F6FF7126
:10613000521A2244904204D9002BCCD1314A9042C9
:10614000CBD80C220021304801F030FE002028631B
:10615000F8BD012EB7D143F20402294B12689A42CE
:1061600015D143F208031B6803F6FF7323F47F6322
:1061700023F00F031F447B1EC3F30B0307F6FF77C7
:10618000DB1B234498428CBF04200020F8BD4FF451
:106190008053EFE74FF48052B2E743F20802A4F5D0
:1061A000805611684A1EC2F30B0201F6FF71521AA3
:1061B0002244002B08BF32468DE743F208010E68E7
:1061C000711EC1F30B0106F6FF7CACEB01063744F0
:1061D0007E1EC6F30B0607F6FF77F61B2644B04279
:1061E0007FF66DAFA1EB0C0222449042A9D9002B9F
:1061F0003FF46FAF6FE700BF687C002000F006003F
:10620000DBE5B15100E00600807C00205B68174AA6
:10621000DB68934200D0704770B4154D2B6823B1F2
:10622000144B00221A7070BC7047134E3368002B59
:10623000F6D1D0E9013493F90020002A12DA1C4487
:10624000013393F9001000291A46A4EB030003F16F
:106250000103F6DB0749531C013801222B60306033
:106260000A70E0E720461A46F4E700BFBC8007004A
:10627000787800207C780020747800202DE9F047A1
:106280003049314C8A6B314E314FDFF8D880DFF81E
:10629000D89084B06D465C312846FEF719FA95E82F
:1062A0000F0084E80F0000212A4B39704FF4477229
:1062B0003046C8F80010C9F80010E36001F076FD20
:1062C000254932462046FEF743FD40B33F7837B3B9
:1062D00096F86C3143B396F800A0BAF1000F1ED1C6
:1062E00096F87231DBB1D9F80020D8F800102846B2
:1062F000FEF7EEF995E80F0084E80F0051464FF4E1
:10630000B27206F5BA7001F051FD1449204606F547
:10631000BA72FEF71DFD10B106F5BA760BE0002744
:10632000384604B0BDE8F0873378002BF7D0B37956
:10633000002BF4D008360A4B38461E6004B0BDE886
:10634000F08700BF687C00209C7B002080780020C4
:106350007C7800200D62070070810700BC80070078
:10636000587C002078780020747800202DE9F043D4
:106370002C4FB3B005460C4616460021782214A8CF
:106380004FF020089946CDF8088001F00FFD3A78CB
:10639000002103914AB3002C38D0002D3ED102AB2E
:1063A000214D019321493A9B00954A4614A8FCF7D8
:1063B000E5FD78BB402E2DD11D4F32462146384693
:1063C00001F0E6FC38462021FCF75CFECDE90076C2
:1063D000029B18492A4603A8FCF7A8FD00280CBF19
:1063E0000120052033B0BDE8F083FCF707FE124919
:1063F000424604A8FCF72CFE40230E490F4804AA8D
:10640000FCF772FD01233B70002CC6D1132033B082
:10641000BDE8F0830A2033B0BDE8F083162033B026
:10642000BDE8F08350780020F47B0020007F070057
:10643000147C0020AC7B0020A47F0700F47E0700C2
:106440002DE9F043DFF8A080B3B007460C461546AF
:1064500014A84FF02009782200211E46CDF80C9098
:1064600001F0A4FC98F800307BB106BB03AB194ED9
:106470000193194900962B46224614A8FCF77EFD8D
:10648000E0B1002033B0BDE8F083FCF7B7FD13495D
:106490004A4604A8FCF7DCFD40231149114804AA30
:1064A000FCF722FD012388F80030002EDED03946AB
:1064B00004A82022FCF7C0FD04AFD7E739463046D8
:1064C000202201F057FCB0FA80F0400933B0BDE85B
:1064D000F08300BF54780020007F0700A47F0700EE
:1064E000AC7B0020F47E0700507800202DE9F041BD
:1064F000A2B004460F46154620267822002104A8A3
:10650000984603969DF8A46001F050FC2046412275
:10651000002101F04BFCB7F89430AB4205D905EBF4
:10652000051307EB830393F896602670032E36D885
:10653000DFE806F002202906012022B0BDE8F08144
:1065400005EB051507EB850303F19A01B3F89820D5
:10655000601C01F01DFC2378032B20D801A252F807
:1065600023F000BF39650700D5650700C365070044
:10657000A3650700289900224046FBF7D1FF237846
:10658000C4F80100E8E703AA631CCDE9003218490A
:10659000289B04A84246FCF7F1FC0028DBD0002031
:1065A000CBE7289B0093611C434640220020FFF765
:1065B000DDFEA0F10100B0FA80F0400922B0BDE894
:1065C000F081289A4146601C0023FFF739FF22B072
:1065D000BDE8F0812899D4F8014040460022FBF73D
:1065E0009FFF201AB0FA80F0400922B0BDE8F08188
:1065F000007F070008B5054B986B10B9044B187065
:1066000008BDFFF73BFE024B187008BD687C0020F8
:10661000547C002078B1B0F5007F10B5044601D954
:10662000042010BD054B00221A70FFF74FFC044BED
:106630009C63012010BD0320704700BF547C0020E4
:10664000687C002070B50E4DD5E90E230C46591814
:10665000914201D9032070BD064603F15C00224639
:106660003146284401F094FBEB6B3046234421462D
:1066700005F14002EB63FBF753FF2864012070BD76
:10668000687C0020014B1878704700BF547C0020C4
:106690002DE9F0433F4B93F86C41B3B0002C44D04C
:1066A0003D493E4A3E4E0F68D2F8008093F8D842EA
:1066B000B3F8DA52782214A84FF020090021CDF85F
:1066C000089001F073FB337800220392002B4ED028
:1066D000002C48D102AB334C01933349009443461C
:1066E0003A4614A8FCF74AFCD8B9402D19D12F4ED0
:1066F0002F492A46304601F04BFB30462021FCF75B
:10670000C1FCCDE90065029B2A49224603A8FCF79B
:106710000DFC00283BD1284800F0A6FA33B0BDE8B4
:10672000F0830A2033B0BDE8F0831D4D2026782287
:10673000214614A8029601F039FB2B78039473B913
:10674000FCF75CFC1D49324604A8FCF781FC4023A1
:1067500018491B4804AAFCF7C7FB01232B70132020
:1067600033B0BDE8F083162033B0BDE8F083FCF70A
:1067700045FC12494A4604A8FCF76AFC40230D492F
:106780000F4804AAFCF7B0FB01233370A0E70520F3
:10679000C4E700BF8078002078780020747800205B
:1067A00050780020F47B0020007F0700147C00203C
:1067B0005C7B0020AC7B0020F4790020A47F0700E4
:1067C000F47E07002DE9F0414A4BD3E90E329A429C
:1067D00003D008242046BDE8F081DFF8248198F832
:1067E000007005460E460FB3FFF72CFC424B2860A5
:1067F0001B6893F8552002B3042A1ED0D00702D597
:1068000093F8561061BB910726D593F85C201AB314
:1068100000213A4A186EC2F5FC23984228D8014458
:10682000D1B1012431602046BDE8F081FFF726FD9B
:1068300040B905242046BDE8F08193F864205AB1A0
:10684000996EEDE7FFF724FF01282F6004463760BB
:1068500010D0FFF73BFBBDE70F242046BDE8F081D9
:106860009207996DDCD593F85C20002AD8D0D0E748
:106870000424AFE7204B1B6893F855202AB3042A61
:1068800023D012F0010025D093F8561051BB910788
:1068900026D593F85C201AB30020184A196EC2F569
:1068A000FC23994208D80844D0B100223060114638
:1068B0000123FFF7EBFB08B10424CAE7FFF7C2FB93
:1068C0000123286088F8003084E793F864203AB107
:1068D000986EE9E7970703D593F85C20002ADCD18E
:1068E0000F24B6E79207986DDED593F85C20002A56
:1068F000DAD0D2E7687C0020587C00200010070026
:10690000547C002010B5047882B00B46032C28D8A4
:10691000DFE804F002121F05012002B010BD009252
:10692000411C40220020FFF721FDA0F10100B0FA38
:1069300080F0400902B010BDD0F801401146184661
:106940000022FBF7EDFD201AB0FA80F0400902B0FA
:1069500010BD19460130002302B0BDE81040FFF71A
:106960006FBD0020D9E700BF2DE9F047B04BB14E15
:10697000D3F80080B2B004460D4614A84FF02009A9
:1069800078220021CDF8089001F010FA337808F150
:10699000720A03AF73B9FCF731FBA7494A46384680
:1069A000FCF756FB4023A549A5483A46FCF79CFA5C
:1069B00001233370514620223846FCF73DFBDFF8B7
:1069C000A492A049CDF8009002AB019322462B4639
:1069D00014A8FCF7D3FA064660B117259A48A0F12F
:1069E0002406FFF70DFBFFF771FA2846B46432B0B6
:1069F000BDE8F08748462022394601F0BBF900285F
:106A0000EBD198F85590B9F1000F20D10127CDE9CD
:106A1000005723464A46414614A8FFF767FD002861
:106A20003CD08A4E14A906F2A120412201F0B0F90F
:106A3000F762C6F82090D8F80430B36029460022E7
:106A40002046FBF76DFDC6E909500125CBE7412241
:106A50003146384601F0AAF94122314614A801F026
:106A6000A5F919F0010209F0020A19D042F2040353
:106A70007749E2588A4204EB03090FD1D8F858103D
:106A800042F2080C01F5FF5301F6FF7054F80CC0F8
:106A90001F33C0F30B001B1A9C451DD205259DE733
:106AA000BAF1000F0ED1694EAA23F362BAF1000FBA
:106AB000C4D0684814A9412201F06AF9D8F804301A
:106AC000F360BBE7CDE900522346414614A8FFF727
:106AD0000DFD0028E2D0E6E743F204031B68934271
