:020000021000EC
:10C000000000012069AC030091AC0300B19D020067
:10C0100095AC030097AC030099AC0300000000004E
:10C020000000000000000000000000009BAC0300C6
:10C030009DAC0300000000009FAC0300A1AC030016
:10C0400029350300A3AC03009D1403006D2B0300EE
:10C0500015220300A3AC0300411303007115030074
:10C06000A3AC0300D5200300E9200300A3AC030028
:10C07000A3AC0300A52A0300A3AC0300A3AC0300F8
:10C0800035150300213D0300A3AC0300A3AC03005E
:10C09000A3AC0300A3AC030049750300A3AC0300E9
:10C0A000A3AC0300A3AC0300FD2003001121030097
:10C0B000A3AC0300A3AC03000000000000000000DC
:10C0C000A3AC0300A3AC0300A3AC0300A3AC030028
:10C0D000A3AC0300A3AC0300A3AC0300000000006A
:10C0E0000000000000000000000000000000000050
:10C0F0000000000000000000000000000000000040
:10C10000000000000000000000000000000000002F
:10C11000000000000000000000000000000000001F
:10C12000000000000000000000000000000000000F
:10C1300000000000000000000000000000000000FF
:10C1400000000000000000000000000000000000EF
:10C1500000000000000000000000000000000000DF
:10C1600000000000000000000000000000000000CF
:10C1700000000000000000000000000000000000BF
:10C1800000000000000000000000000000000000AF
:10C19000000000000000000000000000000000009F
:10C1A000000000000000000000000000000000008F
:10C1B000000000000000000000000000000000007F
:10C1C000000000000000000000000000000000006F
:10C1D000000000000000000000000000000000005F
:10C1E000000000000000000000000000000000004F
:10C1F000000000000000000000000000000000003F
:10C2000010B5054C237833B9044B13B10448AFF390
:10C2100000800123237010BD402800200000000092
:10C220009050040008B5034B1BB103490348AFF31A
:10C23000008008BD00000000442800209050040049
:10C24000154B002B08BF134B9D46A3F5803A0021E8
:10C250008B460F461348144A121A1FF031F80F4B41
:10C26000002B00D098470E4B002B00D098470020A1
:10C27000002104000D000D48002802D00C48AFF347
:10C2800000801EF0C5FE2000290002F015FF1EF000
:10C29000ABFE00BF0000080000000120000000000D
:10C2A0000000000040280020409F00200000000007
:10C2B0000000000008B50A4817F068FA094B0A4860
:10C2C0001A680A4B0A49C01AC008000440F0050069
:10C2D0001AF062FD1AF006FC0028FBD108BD00BF71
:10C2E0006028002080280020D851040078510400E4
:10C2F000A0CE030070B50388112B6CD0522B00F038
:10C300009280102B66D1584C584B5949E41AE408D6
:10C31000240444F0050420461AF03AFD1AF0E2FB2A
:10C320000028FBD1534920461AF032FD1AF0DAFBFF
:10C330000028FBD14E4920461AF02AFD1AF0D2FB04
:10C3400005460028FAD14C4B05225A7101260222DB
:10C350005A701E709A7006F0FFFE484B484A4948D2
:10C360001D60314617F0D4F930F0080303D0464A77
:10C370007A2117F00DF9454800224FF4005117F0CB
:10C38000E3F918B1404A802117F002F9404B1A78BE
:10C3900002BB404A106840F6B83188421AD8116092
:10C3A0002046012232491A701AF0F2FC1AF09AFB68
:10C3B0000028FBD1384920461AF0EAFC1AF092FB1B
:10C3C0000028FBD12A4920461AF0E2FC1AF08AFB29
:10C3D0000028FBD170BD244C244B2549E41AE40805
:10C3E000240444F0050420461AF0D2FC1AF07AFB2B
:10C3F0000028FBD1294920461AF0CAFC1AF072FB2A
:10C400000028FBD11A4920461AF0C2FC1AF06AFB38
:10C410000028FBD1184B5871587006F09DFEBDE8FE
:10C420007040FFF747BF104C104B1149E41AE40865
:10C43000240444F0050420461AF0AAFC1AF052FB2A
:10C440000028FBD1164920461AF0A2FC1AF04AFB3C
:10C450000028FBD1064920461AF09AFC1AF042FB4C
:10C460000028FBD1B6E700BFD85104007851040082
:10C47000BCCE0300F2CE03008D9500208028002062
:10C48000A5C4010084CF0300FECE03006028002075
:10C4900085280020CC31002014CF030025CF0300D5
:10C4A00034CF030008B50F4B1A68FA321A601A68C5
:10C4B00042F210739A4214D90B4B5B78022B10D1C5
:10C4C0000A480B4B0B49C01AC008000440F0050095
:10C4D0001AF05EFC1AF006FB0028FBD1064B012285
:10C4E0001A7008BD802800208D950020D8510400C6
:10C4F0007851040056CF03008428002013B5002390
:10C500000DF107008DF8073017F076FC044B9DF80D
:10C5100007005C7817F0A0FCE4B2204602B010BD22
:10C520008D95002007B5134B1348144A1449C01ABF
:10C53000C008000440F005001AF02EFC1AF0D2FAF0
:10C540000028FBD11AF0CEFA0028FBD18DF80700A5
:10C550000DF1070017F050FC0A4B9DF8070001226F
:10C560005A7017F079FC0CF0E1FAFFF7A3FE03B064
:10C570005DF804FB78510400D851040078CF030023
:10C5800070CF03008D95002008B5064B1A781AB1BC
:10C5900000221A70FFF7C6FF06F062FB024B5B78C1
:10C5A00008BD00BF842800208D95002000F0C0BE8B
:10C5B00010B5FFF7E9FF154B1C7894B1144B1B78AD
:10C5C000023B012B20D906F065FA00F0FDFD044680
:10C5D00010B900F05FFE0446102C04D10D4B01226F
:10C5E0001A70204610BD622C03D10BF0F1FC6424BC
:10C5F000F7E7084B1A78012AF3D11A2CF1D100225F
:10C600001A700BF0E5FCECE70024EAE760960020E6
:10C61000589B00208628002001480CF007BB00BF73
:10C62000F5C20100084A08B500231370074A1370C9
:10C63000074A137006F06AFA06F0C8FA00F07AFEAC
:10C64000BDE8084006F08ABD589B00208D9500206B
:10C650008528002008B506F001FB00F06DFEBDE85E
:10C66000084006F079BD00002DE9F84F7B4DB5F884
:10C670003234042B52D17A4A7A4C7B49A41AE4080A
:10C68000240444F00504794A20461AF08EFB1AF07F
:10C6900029FA0028FBD1764FDFF8FC81064617F80F
:10C6A000012B414620461AF077FB1AF01BFA0028AE
:10C6B000FBD11EB91AF016FA0028FBD10136042E60
:10C6C000EDD16C4920461AF063FB1AF00BFA0028F2
:10C6D000FBD11AF007FA0028FBD1B5F822226649EF
:10C6E000A5F8342420461AF057FB1AF0FBF900286D
:10C6F000FBD1B5F83424B2F5007F0BD95F494FF474
:10C70000007320461AF051FB1AF0ECF90028FBD117
:10C71000012073E000F0EEFE00206FE0B5F8341465
:10C720004A1D9A42F8DA05F50874002204312046C1
:10C7300018F0D2F90746B5F83404043020440EF05E
:10C740000CFA0EF041FA474C454B4D49E41AE40807
:10C75000240444F0050406463A4620461AF01CFB21
:10C760001AF0C0F90028FBD14649324620461AF09B
:10C7700013FB1AF0B7F90028FBD1B74264D1B5F822
:10C7800032344149A5F8303420461AF001FB1AF042
:10C79000A9F90028FBD1B5F832343C4A3C4920467F
:10C7A0001AF003FB1AF09EF90028FBD1DFF8C080D5
:10C7B000DFF8E4A0DFF8E4B006464FF01409B5F85E
:10C7C00032349E421CD32B4920461AF0E1FA1AF06B
:10C7D00089F90028FBD11AF085F90028FBD12A49F4
:10C7E00020461AF0D5FA1AF07DF90028FBD1A5F8F9
:10C7F0003404A5F83204C5F838040220BDE8F88FE7
:10C8000018F8012B514620461AF0C6FA1AF06AF9B8
:10C810000028FBD1771CB7FBF9F309FB13733BB975
:10C82000594620461AF0B4FA1AF05CF90028FBD1F8
:10C830001E23B6FBF3F003FB10661EB91AF052F983
:10C840000028FBD13E46BAE7124920461AF0A0FA6A
:10C850001AF048F90028FBD15AE700BFA0280020B1
:10C8600078510400D851040093CF030088CF03000F
:10C87000C02A002067D10300A6CF0300BCCF03006D
:10C88000E3CF0300F5CF0300BCCE030006D00300C6
:10C890000DD003001CD00300A0CF030066D103001D
:10C8A0000388502B25D004D8102B0ED0112B10D07C
:10C8B0007047572B1CD1114BB3F80422C2B11A7820
:10C8C000022A15D101225A7070470D4B00221A70AE
:10C8D00070470C4A0023A2F83434A2F83234C2F86C
:10C8E0003834064AA2F80432A2F808320123137041
:10C8F0007047034A13780133DBB2F8E7E02C0020DD
:10C90000EC2E0020A02800202DE9F04F4C4B4D4C80
:10C910004D4AE41AE408240485B044F00504CDE946
:10C9200001104A4920461AF037FA1AF0DBF80028BD
:10C93000FBD11AF0D7F807460028FAD140F2E933C4
:10C940000093434B43F0010380460393019B9845BA
:10C9500001D1012722E0019BA3EB0806142E029BC4
:10C96000A8BF142603EB08095FFA86FA4946504629
:10C970000CF01EF943F2040398425646054630D0A7
:10C9800013282ED0052801D008280BD13149204684
:10C990001AF0FEF91AF0A6F80028FBD1384605B0C7
:10C9A000BDE8F08F00283DD12B4A2C495346204644
:10C9B0001AF0FBF91AF096F80028FBD14FF01E0B85
:10C9C000AA451AD1264920461AF0E2F91AF08AF847
:10C9D0000028FBD11AF086F80028FBD1B0441FFADA
:10C9E00088F80A25039B4FF47A409847013DF9D116
:10C9F000009B013B0093A9D1D0E719F8012B1949FD
:10CA000020461AF0C9F91AF06DF80028FBD1B5FBE1
:10CA1000FBF30BFB13531BB91AF064F80028FBD18E
:10CA20000135CDE7104920461AF0B2F91AF05AF84C
:10CA30000028FBD10D4AE721284616F0A9FDD0E7D2
:10CA400078510400D851040069D1030070CF03006D
:10CA500090D1030028D003008ED0030093CF0300B1
:10CA600067D10300A0CF030032D003003CD0030005
:10CA70002DE9F04F954B964D964AED1AED0889B089
:10CA80002D0445F0050500900F46284692491AF0FE
:10CA900083F91AF027F80028FBD11AF023F806468C
:10CAA0000028FAD1FFF72AFD02280AD08B49284630
:10CAB0001AF06EF91AF016F80028FBD109B0BDE89B
:10CAC000F08F874C8749207028461423A4F804620D
:10CAD000B7FBF3F3A4F806620193A4F802721AF00C
:10CAE00057F919F0FFFF0028FBD17F4A7F493B46E9
:10CAF00028461AF05AF919F0F5FF0028FBD1DFF8A3
:10CB000008A2DFF808B206464FF01409B74253D81E
:10CB1000774928461AF03CF919F0E4FF0028FBD1C8
:10CB200019F0E0FF0028FBD16E4928461AF030F9D1
:10CB300019F0D8FF0028FBD1DFF8D4B106464FF03A
:10CB40001408019AB3B29A425BD8B7FBF8F208FB1B
:10CB5000127292B2002AB1D0DDE9001303A808FBDB
:10CB60000311A4F808221EF09DFB94F8086203A9A3
:10CB700030460CF01DF843F204029042A4F80A6219
:10CB800002D0132840F08780B4F804325948324666
:10CB900003A918441EF086FBB4F80432B4F80A2244
:10CBA000554913442846A4F804321AF0F1F819F054
:10CBB00099FF0028FBD181E7009B51469A5D2846EA
:10CBC0001AF0EAF819F08EFF0028FBD106F10108EF
:10CBD000B8FBF9F309FB13833BB9594628461AF011
:10CBE000D7F819F07FFF0028FBD11E23B6FBF3F026
:10CBF00003FB10661EB919F075FF0028FBD14646ED
:10CC000084E7009B08FB06F903EB090A142251464E
:10CC100003A81EF047FB03A914200BF0C9FF43F241
:10CC200004029042A4F80A8201D0132811D1A7EB84
:10CC3000090751462F483A461EF034FB2F49A4F805
:10CC4000047228461AF0A4F819F04CFF0028FBD112
:10CC500034E770B9B4F80632594614332846A4F8BC
:10CC600006321AF095F819F03DFF0028FBD1013685
:10CC700067E70828FBD0052807D10023A4F8043271
:10CC8000A4F808320123237018E71D4A40F233113B
:10CC900016F07EFCEBE768B9B4F806221949164491
:10CCA0002846A4F806621AF073F819F01BFF002852
:10CCB000FBD103E708283FF401AF0528DDD0104A77
:10CCC0004FF4A87116F064FCF8E600BF7851040038
:10CCD000D85104007ED1030070CF030059D0030067
:10CCE000E02C0020BCCE03008AD003000DD003004E
:10CCF00067D10300E22C0020A2D0030091D00300F2
:10CD00003CD00300ABD00300A0CF030066D10300EA
:10CD10009AD003002DE9F84F764B774C774DE41A03
:10CD2000E408B5F83E84240444F0050411FA88F8B8
:10CD300007460E46204672491AF02AF81FFA88F86C
:10CD4000A94619F0CFFE0028FBD16E4A6E49334642
:10CD500020461AF02AF819F0C5FE0028FBD1DFF8AA
:10CD6000C4B105464FF01E0AAE4276D86749204648
:10CD70001AF00EF819F0B6FE0028FBD119F0B2FE39
:10CD80000028FBD1B8F5007FC0F0A480B9F83EA41C
:10CD9000B9F83E04CAF1000A0AF0FF0A52463946C1
:10CDA000A6EB0A0619FA80F007EB0A081EF07AFAD9
:10CDB0003246414651481EF075FAB3B2A9F83E34E6
:10CDC000B9F83E24524992B2204619F0E5FF19F015
:10CDD00089FE0028FBD14F495246204619F0DCFF5E
:10CDE00019F080FE0028FBD14B4A4C49204619F02F
:10CDF000D3FF19F077FE0028FBD1DFF828B10546F4
:10CE00004FF01E09AA453CD84049204619F0C0FF02
:10CE100019F068FE0028FBD119F064FE0028FBD150
:10CE20003F4A3E49204619F0B7FF19F05BFE002843
:10CE3000FBD1DFF8F09005461E27AE4235D13349CD
:10CE4000204619F0A5FF19F04DFE0028FBD119F07E
:10CE500049FE0028FBD1BDE8F88F7A5D594620468F
:10CE600019F09AFF19F03EFE0028FBD1B5FBFAF34A
:10CE70000AFB13531BB919F035FE0028FBD101350D
:10CE800072E77A5D5946204619F086FF19F02AFEAE
:10CE90000028FBD1B5FBF9F309FB13531BB919F0BB
:10CEA00021FE0028FBD10135ACE718F8012B4946DB
:10CEB000204619F071FF19F015FE0028FBD1B5FBD3
:10CEC000F7F307FB13531BB919F00CFE0028FBD135
:10CED0000135B2E7B9F83E043246394619FA80F016
:10CEE0001EF0E0F9B9F83E1416FA81F6B6B2A9F8C8
:10CEF0003E64B0E778510400D8510400A028002017
:10CF0000BCCE030006D0030093CF030067D103001B
:10CF1000B3D00300BFD00300CAD00300E3D00300A6
:10CF2000E9D00300A0CF03002DE9F74F954C002373
:10CF30000DF107008DF8073016F05EFFB4F83E548F
:10CF40009DF8070016F088FFB4F83C34ADB29D425E
:10CF500033D9ED1AADB2002601277DB3B4F83C04F5
:10CF6000B4F83214421C92B24B1C9BB2B2F5007F53
:10CF70002144205CA4F83C2428BFA4F83C64B3F509
:10CF8000007FA4F8323481F8200236D294F8382495
:10CF9000002A4AD194F83934002B40F0E28094F80A
:10CFA0003A34002B40F0E58094F82032022B0CD16B
:10CFB00084F83874013DADB2CFE703D3002003B04D
:10CFC000BDE8F08F05F50075C3E7402B02D184F86A
:10CFD0003974EFE7802B02D184F83A74EAE76A48A3
:10CFE0006A4B6B49C01AC008000440F0050019F0F4
:10CFF000CFFE19F077FD0028FBD16348634B6549EC
:10D00000C01AC008000440F0050019F0C1FE19F074
:10D0100069FD0028FBD1604BA4F834040122A4F878
:10D020003204C4F838041A70C9E7022B04D194F80A
:10D030002132A4F83434BDE7B4F834140A1D9A42FE
:10D04000B8DA033189B255484F4D0DF0A7FEB4F858
:10D05000343453492344074693F824924B4BED1A3A
:10D06000ED082D0445F005050246284619F094FE0A
:10D0700019F038FD0028FBD14A494A46284619F0E4
:10D080008BFE19F02FFD0028FBD14749284619F0E7
:10D090007FFE19F027FD0028FBD1B4F83234434A53
:10D0A0004349284619F081FE19F01CFD0028FBD1E8
:10D0B000DFF810A106464FF0140BB4F832349E424C
:10D0C00021D33C49284619F063FE19F00BFD0028D6
:10D0D000FBD119F007FD0028FBD13349284619F090
:10D0E00057FE19F0FFFC0028FBD14F4530D1B4F8B2
:10D0F0003234A4F83404A4F83204C4F83804A4F890
:10D10000303401205BE71AF8012B2B49284619F02F
:10D1100043FE19F0E7FC0028FBD106F10108B8FB3B
:10D12000FBF30BFB13833BB92449284619F030FE6F
:10D1300019F0D8FC0028FBD11E23B6FBF3F003FB4B
:10D1400010661EB919F0CEFC0028FBD14646B4E7A4
:10D150001B49284619F01CFE19F0C4FC0028FBD11D
:10D160004BE7FFF781FA022809D001287FF422AFAC
:10D1700043E7FFF779FA0228F7D11E201FE71B20AB
:10D180001DE700BFA0280020D851040078510400FA
:10D19000F4D0030038D1030087280020C12A0020E2
:10D1A00009D103001BD10300BCCE030006D003004D
:10D1B0000DD0030067D10300A0CF030066D10300A8
:10D1C0002CD10300C02A002073B5204C0DF10700BC
:10D1D00000258DF8075016F00FFE66789DF80700C1
:10D1E000F6B216F039FEEEB10DF107008DF80750DA
:10D1F00016F002FE9DF80700657016F02DFE14482B
:10D20000144B1549C01AC008000440F0050019F07D
:10D21000BFFD19F067FC0028FBD1B4F804120F48D9
:10D22000FFF726FCB4F80222B4F806329A4209D17C
:10D230002378022B06D10023A4F80432A4F8083284
:10D240000123237005F024FA02B070BDE02C002009
:10D25000D8510400785104004AD10300E22C002088
:10D2600038B50B4DB5F8301405F5087005F06AFFB8
:10D27000044658B9FFF758FE012807D1B5F8301415
:10D2800005F50870BDE8384005F064BF204638BD9C
:10D29000A028002010B586B0FFF746FE01280446FE
:10D2A0000ED11F48B0F8301400F5087004F08EFB62
:10D2B000044640F6C41004F065FA204606B010BDDE
:10D2C0001B2821D11748184B1849C01AC008000460
:10D2D00040F0050019F05CFD19F004FC0028FBD1BA
:10D2E0000623012101A88DF80430FFF7C1FB0C498A
:10D2F00001A8B1F8302401F5087105F0B7FA019BD7
:10D30000012B18BF1C46D8E71E28D6D0431CD4D109
:10D310001523012101A88DF80430FFF7A9FBCCE704
:10D32000A0280020D8510400785104005FD10300E8
:10D3300005F0A2B905F090BA13B50E4B1B78B3B146
:10D3400000240DF107008DF8074016F055FD4FF44D
:10D350008862214608481DF0B3FF08484FF4037265
:10D3600021461DF0ADFF9DF8070016F075FD02B0D7
:10D3700010BD00BF87280020A0280020E02C00203E
:10D3800026280CD006D850B1083803288CBF0020BE
:10D3900001207047A0F1890358425841704701208D
:10D3A0007047000010B5094C627B6AB1002104F19E
:10D3B0000E000DF07FFB38B1627B04F10E00FF21FF
:10D3C000BDE810400DF076BB10BD00BFCE98002028
:10D3D00010B5074B5B780A2B08BF89230B700446F6
:10D3E0000449054808221DF05DFF044B5C7310BD25
:10D3F000809600206C9D0020DC980020CE980020B4
:10D4000008B51049104805221DF04CFF0F4910487F
:10D4100001221DF047FF0F490F4801221DF042FF76
:10D420000E48032200210DF045FB28B10B480322D2
:10D43000FF210DF03FFB18B90423094A537308BDBF
:10D440000723FAE7C4950020DC980020CD95002042
:10D45000E1980020CF950020E2980020E09800207D
:10D46000CE980020002808B506DD054802F076FEBB
:10D47000BDE808400AF0ACBDBDE8084002F092B833
:10D480008096002010B50A460C46014602481DF061
:10D4900009FF024B1C7010BDF02E0020F82E00205A
:10D4A00008B50D480D4B0E4A0E49C01AC0080004BD
:10D4B00040F0050019F070FC19F014FB0028FBD1B6
:10D4C00019F010FB0028FBD1074B1870074B1870A0
:10D4D000074B01225A7008BDD8510400785104004E
:10D4E000F6D4030070CF0300EF2E0020EE2E0020B4
:10D4F000589B002008B50B480B4B0C4A0C49C01A2E
:10D50000C008000440F0050019F046FC19F0EAFAE2
:10D510000028FBD119F0E6FA0028FBD1054B0222C6
:10D520005A7008BDD85104007851040006D5030094
:10D5300070CF0300589B002038B51148114B124A98
:10D540001249C01AC008000440F0050019F024FC7C
:10D5500019F0C8FA0028FBD119F0C4FA04460028D3
:10D56000FAD10B4D297A05F10900FFF78BFF21460F
:10D57000284611221DF0A4FEBDE83840FFF790BFF9
:10D58000D85104007851040017D5030070CF030070
:10D59000639D00201A481B4B1B4A1C49C01AC00837
:10D5A000000410B540F0050019F0F6FB19F09AFAE6
:10D5B0000028FBD119F096FA04460028FAD1144B42
:10D5C00001461870082213481DF07AFE11222146E8
:10D5D00011481DF075FE7022214610481DF070FEA6
:10D5E0000F48082221461DF06BFE0E4B1C700E4B9F
:10D5F0001C700E4B5C700E4B1C600E4B1C7010BDF3
:10D60000D8510400785104002AD5030070CF0300DC
:10D61000F82E0020F02E0020639D0020C0950020F1
:10D62000F92E0020EF2E0020EE2E0020589B002027
:10D63000A0310020012F00202DE9F04F85B0FF23FD
:10D640008DF80F30974B5B78023B012B04D80024F8
:10D65000204605B0BDE8F08F11F08EF80028F6D016
:10D66000914B1A681AB1914A1278002AEFD04FF400
:10D6700016721A608E4D8F4B8F4A9049ED1AED0845
:10D680002D0445F00505284619F086FB19F02AFA05
:10D690000028FBD119F026FA0028FBD1834F3B78F4
:10D6A000002B40F08A801921854B864A08F0D4FF70
:10D6B00085490446284619F06BFB19F013FA002837
:10D6C000FBD182492246284619F066FB19F00AFA76
:10D6D0000028FBD17C49284619F05AFB19F002FAC0
:10D6E00006460028FAD1012C794B2AD193F83E3115
:10D6F000312B06D1724B187BFFF742FE08B10BF0BD
:10D700000DF874492246284619F046FB19F0EAF94B
:10D710000028FBD1012C40F068836F486F4A037AE0
:10D7200012789A4236D16E4909301DF0ADFD88BBA2
:10D730006C49284619F02CFB19F0D4F90028FBD1CC
:10D7400085E7E11D9A780CD1312ADAD1664811F0CB
:10D750000DFB0028D5D0604B07221E741A720124DD
:10D76000CFE7312A0DD16149284619F011FB19F094
:10D77000B9F901460028FAD1102251481DF0A0FD48
:10D78000EDE793F83E01A0F1310CDCF1000444EB2D
:10D790000C04B6E74A49564B087B1870FFF7F0FDBA
:10D7A00048B151480DF096F9002840D1514B012263
:10D7B0001A70FFF7F7FD01233B704F4F01973B783D
:10D7C000002B7FF444AF4A4C2078FFF7D9FD0028A6
:10D7D00000F0A4803E4E96F82431312B3FF437AF51
:10D7E000444B1A781AB901221A70FFF7DBFD434B3C
:10D7F0005B78002B3FF42BAF2378002B40F08E801A
:10D80000B378312B00F08A8096F88831312B40F0C4
:10D81000E9820AF083FF6FF048043949224628461E
:10D8200019F0BAFA19F05EF90028FBD110E7354E6D
:10D83000FFF7E6FD737B344A3449284619F0B5FA00
:10D8400019F050F90028FBD1DFF8C880DFF8C8A034
:10D8500004464FF01E09737B9C420CD32C4928468A
:10D8600019F096FA19F03EF90028FBD119F03AF9AF
:10D870000028FBD19AE718F8012B5146284619F0E9
:10D880008BFA19F02FF90028FBD1B4FBF9F309FB4F
:10D8900013430BB10134DEE719F024F90028FBD162
:10D8A000F8E700BF589B0020A0310020EE2E00209A
:10D8B000D85104007851040038D5030070CF03001C
:10D8C000C0950020E5FA0300BCCE0300E9D30300B5
:10D8D000809600201BD40300639D0020F82E0020BA
:10D8E000F02E00203BD403006C9D0020FED30300EB
:10D8F000ED2E0020012F0020EF2E0020609600204A
:10D90000E6D40300CE98002050D4030093CF030048
:10D9100067D10300DC980020A0CF03002278262ADC
:10D920006BD8262A70D8DFE802F0AE147E8082849D
:10D9300086888A8C8E90926F6F6F6F9496989A9C5F
:10D940009EA0A2A4A6A8AA6F6F6F6F6F6F6F6F6F74
:10D95000AC009A4A9A49284619F01EFA19F0C2F802
:10D960000028FBD1974EB378312B00F09680964972
:10D9700096480B7B8DF80F300DF0ACF8002800F0C6
:10D980001481DFF8F082FFF73BFD98F80D30904AE4
:10D990009049284619F009FA19F0A4F80028FBD19B
:10D9A000DFF8D892DFF8D8B207464FF01E0A98F891
:10D9B0000D209742C0F0E3808749284619F0E8F926
:10D9C00019F090F80028FBD119F08CF80028FBD151
:10D9D0003378012B75D022781A2A03D87F4BD34095
:10D9E000DF076ED47E4800F0A5FE002869D1B37829
:10D9F000312B60D06FF024040FE7BC2A45D00CD83F
:10DA0000892A44D0A52A44D07649284619F0C4F979
:10DA100019F068F80028FBD1A4E7BD2A3BD0FE2A04
:10DA2000F2D1714A96E7714A94E7714A92E7714AD6
:10DA300090E7714A8EE7714A8CE7714A8AE7714A2A
:10DA400088E7714A86E7714A84E7714A82E7714A3A
:10DA500080E7714A7EE7714A7CE7714A7AE7714A4A
:10DA600078E7714A76E7714A74E7714A72E7714A5A
:10DA700070E7714A6EE7714A6CE7714A6AE7714A6A
:10DA800068E7714A66E7714A64E7714A62E7714A7A
:10DA900060E7714A5EE7714A5CE72078FFF770FC47
:10DAA00000283FF464AF6E49284619F071F919F067
:10DAB00019F80028FBD16B4B0DF10F01187AFFF715
:10DAC00087FC019A68480123137003F0C0FE674980
:10DAD000284619F05DF919F005F80028FBD16449D2
:10DAE000284619F055F918F0FDFF0028FBD15F49D1
:10DAF000284619F04DF918F0F5FF0028FBD15D4FCD
:10DB00009DF80F205C49BA70284619F045F918F0C5
:10DB1000E9FF0028FBD19DF80F30262B00F2B280E0
:10DB2000002B00F05D81013B252B00F25981DFE8DD
:10DB300013F0060157015701570157010C01570116
:10DB4000B400AC00B4005701570157015701570109
:10DB50005701570157012101260157013B012901B6
:10DB600042002F013E0157012C0157015701570177
:10DB7000570157015701570157015701B40019F8D0
:10DB8000012B5946284619F007F918F0ABFF002879
:10DB9000FBD1B7FBFAF20AFB12720AB1013706E7B2
:10DBA00018F0A0FF0028FBD1F8E7B378312B82D022
:10DBB0006FF00A0431E663244AE500BFB1D30300E5
:10DBC00059D4030080960020C09500206C9D002051
:10DBD00050D4030093CF030067D103001E008006DA
:10DBE000C995002064D40300D2D30300C1D103003F
:10DBF000D0D10300DFD10300EED10300FED103003A
:10DC00000FD2030021D2030035D203004BD2030010
:10DC10005FD2030074D2030089D203009CD20300B8
:10DC2000B3D20300C3D20300D9D20300E9D2030068
:10DC3000FDD203000FD303001FD3030039D3030029
:10DC400050D303005DD3030071D30300AED10300B2
:10DC500085D3030095D30300C0D3030096D10300FE
:10DC600086D40300639D0020599B0020BCCE030096
:10DC700099D40300CE980020B4D40300DC9800208F
:10DC8000A0CF0300892B40F0AB80797B5B4804F088
:10DC900077FE044600287FF4DBAC594B93F8303113
:10DCA000042B3FF4D4AC9DF80F20262A05D17378BD
:10DCB000093B012B94BF09220822B378312B0AD1EA
:10DCC000504B7A7B4D49012003F0FEFB0446002CAB
:10DCD000BFF6BEAC13E071780A2917D102F07F03BA
:10DCE000092B14BF00230123B3B94749284619F073
:10DCF00053F818F0F7FE0028FBD16FF010044048ED
:10DD000001F018FC00233B707B70A1E48A4201D033
:10DD1000892AE6E70123E7E7892A0ED10939012993
:10DD20000BD8082006F0AEFA0821364A042008F085
:10DD3000FDFC01280446C3D0C9E70721F5E709F037
:10DD40001DFB0446FFF78EFB82E4304B30499C7B81
:10DD5000322C08BF07232246284608BFBB7019F0A3
:10DD60001BF818F0BFFE0028FBD1204609F082FB0B
:10DD700004466DE4274B987909F020F8F8E709F09C
:10DD80005BF9DEE709F08CF9DBE708F0F3FDEFE77C
:10DD9000002007F035FC012802D14FF0FF3457E492
:10DDA00009F0C0FF042453E409F096FBE0E71449AE
:10DDB000194802F0D5F90028EFD1144BD97B587BD4
:10DDC000A1F131046142A0F131056141684268412D
:10DDD000012209F023FF104802F0C0F90AF0F8F818
:10DDE000012435E46FF0410417E5002C3FF42FAC1B
:10DDF000E31D7FF412AD10F0C9FE28E4DC9800208A
:10DE000000990020D0950020C8D40300C0950020C0
:10DE1000D8D40300639D00208096002010B50B46E7
:10DE2000104900228A70104991F82441312C16D0F3
:10DE3000B4F1320118BF012101220EF027FE0B4B75
:10DE40000B4896221A6000210C221DF039FA094A6B
:10DE500000231370084A1370084A137010BD012183
:10DE6000EBE700BF589B002080960020A4310020E3
:10DE70003A960020032F0020052F0020042F0020B9
:10DE80000EF0F4BD08B500F005FCB0F57A6F05D8CA
:10DE9000BDE808404FF47A6000F024BC08BD0000E3
:10DEA00038B5134D2B78012B0C461CD102291AD101
:10DEB0000A4610491DF0E8F90146B0B90E4808229B
:10DEC00001721DF0FDF92C700C4D4FF4FA7445F001
:10DED00001054FF47A40A847013CFAD1192009F016
:10DEE0003BFFFFF7CFFF012038BD0020FCE700BF5C
:10DEF0008C950020182600203A960020D0D50300EB
:10DF000008B5124A1378022B1CD1022918D8002315
:10DF1000137001290CBF037843780D49303BDBB205
:10DF200081F826300B4B312183F814120A4B002163
:10DF300019721B200323137009F00EFFFFF7A2FFD5
:10DF4000012002E0D81E18BF012008BD8C950020DA
:10DF500080960020009900203A960020014B002274
:10DF60001A7070478C9500200F48104B104A1149C9
:10DF7000C01AC008000410B540F0050018F00CFFEE
:10DF800018F0B0FD0028FBD118F0ACFD04460028C5
:10DF9000FAD101460C2208481DF092F9074B1C608B
:10DFA000074B1C7010BD00BFD8510400785104000D
:10DFB000BDD5030070CF03003A960020A4310020A5
:10DFC000032F00202DE9F74F0EF046FDB84B9B784C
:10DFD000023B012B074604D80024204603B0BDE8CD
:10DFE000F08FB44BB44E1B781BB996F85031012B0F
:10DFF000F2D096F83031042BEED0B04B93F84C228F
:10E00000312A984601D03D2FE6D0AD4D00230DF1C9
:10E0100007008DF8073015F0EFFE2C689DF807001B
:10E0200015F01AFFA946002CD6D1A64B1A7802B1DA
:10E030001C70A7F1300A5FFA8AF40D2CA24B02D9AA
:10E0400001221A70C8E71A78002AC5D000229F4D15
:10E050001A709F4B9F49ED1AED082D0445F00505F8
:10E06000284618F095FE18F03DFD0028FBD1DFF89A
:10E070009CB29949DBF80020284618F08DFE18F074
:10E0800031FD0028FBD19349284618F081FE18F095
:10E0900029FD0028FBD1DBF80030C72B9CD98DF877
:10E0A00007000DF1070015F0A7FE96239DF8070065
:10E0B000C9F8003015F0D0FE062009F04DFE854964
:10E0C000284618F065FE18F00DFD0028FBD18349A5
:10E0D0005246284618F060FE18F004FD0028FBD1D7
:10E0E0007C49284618F054FE18F0FCFC0146002834
:10E0F000FAD1092C37D88DF807000DF1070015F07B
:10E100007BFE774B774C19689DF8070040F6B732D5
:10E1100091429CBF40F6B8321A6015F09DFE237AFA
:10E12000052B00F211815A1C22726F49E7542246D6
:10E13000284618F031FE18F0D5FC0028FBD1237AD0
:10E140003BB106F0E5FC237A012B02D9674803F0C6
:10E150007EFB217A6348FFF7A3FE002840F0A580EC
:10E160004FF0FF3439E73A2F0FD15E480822017291
:10E170001DF0A6F85E4B1C780134E4B21C70052C2F
:10E180004FF0FF3498BF00240EE03D2F3BD198F8AC
:10E190004C32312B40F089805248047ABCB9554B3F
:10E1A00001221A70FFF76EFE231F022B00F2B080CF
:10E1B0004C4B00221A724F4B1B78032B7FF40DAF90
:10E1C0001A2009F0C9FD3D4801F0C8FF05E72146C6
:10E1D000FFF796FE002868D1424C4749227A28462C
:10E1E00018F0DAFDA14618F07DFC04460028FAD1AB
:10E1F00099F808103B4804F0D7FB824600B389F831
:10E2000008400F24E9E63B2F36D13A4B1B78032B0D
:10E210000BD1302388F8260086F8300186F81432B6
:10E22000A6F8180186F81A019AE72E4B1B7A002BE4
:10E23000D2D1324B1C780134E4B21C70022C9FE71F
:10E2400099F80810274803F031F92D4989F808A0FA
:10E2500004460246284618F09FFD18F043FC0028AB
:10E26000FBD198F80130093B012B02D9254803F076
:10E27000EEFAFFF779FE97E71649284618F088FD71
:10E2800018F030FC0028FBD11F490122284618F065
:10E2900083FD18F027FC0028FBD10E49284618F012
:10E2A00077FD18F01FFC0028FBD100247CE700BF9D
:10E2B000589B002060960020009900208096002046
:10E2C000A4310020022F0020032F0020D851040089
:10E2D00078510400BCCE030045D503005CD5030093
:10E2E000CC3100203A96002072D50300599B0020C3
:10E2F000042F00208C95002083D50300052F0020DB
:10E300008DD503005A9B0020A5D50300C8310020FD
:10E31000002C0EDA0E4A00231372302288F82630C1
:10E3200086F8303186F81422A6F8183186F81A31AA
:10E3300053E67FF452AE3A2F3FF44EAE054B1C78B5
:10E34000B4FA84F4640948E66FF0170445E600BFA8
:10E350003A9600208C95002008B51748174B184AAC
:10E360001849C01AC008000440F0050018F014FD58
:10E3700018F0B8FB0028FBD118F0B4FB0028FBD143
:10E38000114B5A7D322A10D0FF2A11D040F6C4100A
:10E3900041F28831312A08BF08461B7D302B08BF67
:10E3A0000020BDE8084007F025B942F21070F4E7FC
:10E3B0004FF47A70F1E700BFD8510400785104009F
:10E3C00033D6030070CF03008096002007F04EBDC7
:10E3D000031F022B2DE9F04105460F4655D807F0E3
:10E3E00035FC002851D0002009F0B6FC052D41D0A5
:10E3F000644B654E062D0EBF4FF003084FF0010829
:10E400001E466B1F012B39D9604C614B6149E41AE0
:10E41000E408240444F00504204618F0B9FC18F080
:10E4200061FB0028FBD15C493246204618F0B4FC61
:10E4300018F058FB0028FBD15649204618F0A8FCDC
:10E4400018F050FB0028FBD1052D04D00CF088F803
:10E45000524BC3F84401404607F06AF910F14C0FE3
:10E46000044600F08C8017B1072009F075FC2046A7
:10E47000BDE8F0814A4E4FF00208C2E700F0F5F91E
:10E480000028C1D06FF03D04F1E707F06DFE40B108
:10E49000444B032200211A7059705722084601F09C
:10E4A00061FF07F0DDFB022824D0032845D00128B6
:10E4B00065D1364C364B3749E41AE408240444F05D
:10E4C0000504204618F064FC18F00CFB0028FBD172
:10E4D0003549204618F05CFC18F004FB0028FBD1FD
:10E4E0002C49204618F054FC18F0FCFA0028FBD107
:10E4F0000924BCE707F08EFD244C254B2549E41A7E
:10E50000E408240444F00504204618F041FC18F007
:10E51000E9FA0028FBD12549204618F039FC18F00B
:10E52000E1FA0028FBD11B49204618F031FC18F015
:10E53000D9FA0028FBD1082499E7144C144B15494B
:10E54000E41AE408240444F00504204618F020FCF2
:10E5500018F0C8FA0028FBD11549204618F018FC1D
:10E5600018F0C0FA0028FBD10A49204618F010FC28
:10E5700018F0B8FA0028FBD16FF0160477E70024F2
:10E5800075E700BFE1D50300FB1C0400D85104006F
:10E5900078510400BCCE0300EBD5030000990020A5
:10E5A000D6D50300CE980020FFD5030011D6030076
:10E5B00024D6030041DF704737B5041E18DA0F2058
:10E5C00009F0CAFB03F04AF900230DF107008DF8AA
:10E5D000073015F011FC284B9DF807004FF47A72B4
:10E5E0001A6015F039FC204601F0AEFF03B030BDD3
:10E5F0000F2C02D104F05CFAF8E7632C25D10AF065
:10E60000D7FD1E481E4B1F49C01AC008000440F029
:10E61000050018F0BDFB18F065FA0028FBD11A4D73
:10E62000642445F001054FF47A40A847013CFAD133
:10E63000BFF34F8F1549164BCA6802F4E0621343CB
:10E64000CB60BFF34F8F00BFFDE7622C02D109F012
:10E65000BFFCCBE7022CC9D100230DF107008DF8D8
:10E66000073015F0C9FB044B9DF8070064221A60BF
:10E6700015F0F2FBBAE700BFCC310020D8510400FE
:10E680007851040042D6030030D9030000ED00E0C9
:10E690000400FA0513B500230DF107008DF80730CB
:10E6A00015F0AAFB0B4B9DF807001C6815F0D4FB76
:10E6B00009480A4B0A49C01AC0080004224640F023
:10E6C000050018F069FB18F00DFA0028FBD1204670
:10E6D00002B010BDCC310020D851040078510400A4
:10E6E00053D6030013B5002304460DF107008DF83F
:10E6F000073015F081FB0B4B9DF807001C6015F0EF
:10E70000ABFB0948094B0A491B1ADB081B042246CC
:10E7100043F0050018F040FB18F0E4F90028FBD1A5
:10E7200002B010BDCC31002078510400D851040053
:10E7300069D60300F8B5264B264C274A2749E41A28
:10E74000E408240444F0050406460323204618F098
:10E750002CFB18F0C7F905460028FAD1204F725D4E
:10E760003946204618F018FB18F0BCF90028FBD1F8
:10E770001DB918F0B7F90028FBD10135032DEED1F2
:10E780001849204618F004FB18F0ACF90028FBD11A
:10E7900018F0A8F904460028FAD101461B221248B5
:10E7A000114F0CF087F988B11B22FF2138460CF07D
:10E7B00081F958B125460322791930461CF064FDD1
:10E7C00020B103351B2DF6D12046F8BD0124FBE70F
:10E7D00078510400D85104007FD6030093CF030082
:10E7E000A0CF030067D103008097002008B5104830
:10E7F000104B114A1149C01AC008000440F005002E
:10E8000018F0CAFA18F06EF90028FBD118F06AF96E
:10E810000028FBD10A4B1B7D302B06D106F0F0FE01
:10E8200002280CBF0520042008BD0620FCE700BF1D
:10E83000D851040078510400FFD8030070CF0300C2
:10E840008096002008B50DF0E3F905288CBF002064
:10E85000012008BD08B50DF0DBF91E2803D8FFF72D
:10E86000F1FF012008BD0020FCE708B50DF0D0F94C
:10E8700016288CBF0020012008BD00207047000032
:10E8800001480CF099BD00BF8097002001480CF0B2
:10E8900099BD00BF80970020024B93F8F3000CF065
:10E8A000E4B900BF8096002008B503480CF055F984
:10E8B000BDE808400CF0E2B97497002070B504F090
:10E8C00075FD044608B904F05FFD0CF00BF8054631
:10E8D00008B90CF017F80BF069FD06460DB90CF0FD
:10E8E00007F80CB904F048FD304670BD38B52A4B26
:10E8F0002A4A2B4904462B481B1ADB081B0443F009
:10E90000050018F049FA18F0EDF80028FBD118F0CE
:10E91000E9F80028FBD12449244801F021FC10B972
:10E92000142009F019FAFFF795FFA307054603D451
:10E9300084BB0C2009F010FAB4FA84F0294640098F
:10E94000FFF76CFA40F201131C4203D040F6C410EA
:10E95000FFF704FBFEF71EFE0AF02AFE0BF00CF890
:10E96000FDF760FEFFF7F8FC01F0F6FF01F0AEFEE8
:10E970001E2200210E481CF0A3FC0E4A0123137036
:10E980000D4A53701370937002F070FFBDE8384069
:10E9900009F002BF0B20CDE7D851040011D90300C4
:10E9A00070CF030078510400009900208096002069
:10E9B000CE980020062F00206096002008B5FDF7B5
:10E9C00049FEBDE808400AF0F5BD00002DE9F74F0B
:10E9D000BB4BBC4DBC49ED1AED082D0445F00505B7
:10E9E000284618F0D5F918F07DF80028FBD1B74972
:10E9F000284618F0CDF918F075F80028FBD1B24977
:10EA0000284618F0C5F918F06DF80028FBD1B04F72
:10EA1000DFF814A3DFF81493DFF814833870FFF7DE
:10EA2000C9FD20B1524640F20B2114F0B1FD02F0B5
:10EA30000DFFFFF7C7FA041E80F2B180A5492246F8
:10EA4000284618F0A9F918F04DF80028FBD14FF02E
:10EA5000000B204602F040FE2046FFF7ADFD002CE3
:10EA600080F2B3809C4B9D4993F8E2210132D2B2EF
:10EA7000284683F8E22118F08FF918F033F80028BF
:10EA8000FBD1231F022B40F2AF81002C80F2DF81EB
:10EA900093492246284618F07FF918F023F80028F9
:10EAA000FBD190492246284618F076F918F01AF85A
:10EAB00006460028FAD105F081F98B4A8B49234696
:10EAC000284618F072F918F00DF80028FBD199F8D3
:10EAD00000103046FFF77CFC041E80F2DB81844985
:10EAE0002246284618F058F917F0FCFF0028FBD101
:10EAF000A4F10803012B40F23982002CC0F23682C7
:10EB00004CB17C4A79492346284618F04EF917F053
:10EB1000E9FF0028FBD100230DF107008DF8073035
:10EB200015F06AF9744B9DF807001E68D8F800408C
:10EB300015F092F944B907F089F828B109F0E2FD1F
:10EB400010B1FDF733FD20B944F620639E427FF6F5
:10EB500066AF6A4933462246284618F026F917F070
:10EB6000C1FF0028FBD16649284618F011F917F0BB
:10EB7000B9FF0028FBD101F0B7FE574801F0CCFAED
:10EB800001F0ECFE01235F493B70284618F000F9C4
:10EB900017F0A8FF0028FBD103B0BDE8F08F231FBA
:10EBA000022B3FF654AF584A5849537843F00403B8
:10EBB00053702846002389F8003018F0E9F817F060
:10EBC00091FF0028FBD1A34643E724D1FEF734FD93
:10EBD000041E2BDA4E492246284618F0DDF817F0BD
:10EBE00081FF0028FBD1204602F076FD2046FFF78A
:10EBF000E3FC002C33DA384B384993F8E221013238
:10EC0000D2B2284683F8E22118F0C6F817F06AFF5E
:10EC10000028FBD135E73F4A34492346284618F0FF
:10EC2000C4F817F05FFF0028FBD1CFE7DBD0364AEE
:10EC30001378012C43F00403137003D1364802F01B
:10EC400006FED0E7231F022BCDD83449284618F002
:10EC50009FF817F047FF0028FBD1A346C3E724D154
:10EC6000FDF7A6FC041E65DA2D492246284618F059
:10EC700093F817F037FF0028FBD1204602F02CFD57
:10EC80002046FFF799FC002C7EDA134B134993F8CA
:10EC9000E2210132D2B2284683F8E22118F07CF852
:10ECA00017F020FF0028FBD1EBE61E4A0F49234650
:10ECB000284618F07AF817F015FF0028FBD1CFE7A7
:10ECC00078510400D8510400BCCE03008BD6030059
:10ECD000072F0020AFD6030000990020D7F80300CB
:10ECE0006FD70300B5D70300F8D70300E9D60300B8
:10ECF00001D80300A5D80300C8310020ABD8030019
:10ED0000D9D80300EDD80300CE980020C9D603005F
:10ED100001D7030080EF03005A9B002018D703009F
:10ED200039D703004EDB030098D60300062F0020DE
:10ED3000CC310020012C05D1B94A137843F080036F
:10ED400013709AE71A2C1DD0642C06D1B54802F036
:10ED50007EFDB54802F07BFD8FE7231F022B8CD888
:10ED6000B04802F074FDB149284618F011F817F0C8
:10ED7000B9FE0028FBD1AA4A137843F08003137030
:10ED8000A3467AE7002478E71FD100F063FA06462D
:10ED9000041F022C94BF04465C4602F09DFC3046E2
:10EDA000FFF70AFC002E1BDAA14BA24993F8E221DF
:10EDB0000132D2B2284683F8E22117F0EDFF17F0B6
:10EDC00091FE0028FBD134465BE69B4A9B492346D3
:10EDD000284617F0EAFF17F085FE0028FBD1D4E79C
:10EDE0002AD1002C7FF44DAE01F0BAFD031F022B97
:10EDF000064608D89249284617F0CAFF17F072FE57
:10EE00000028FBD13446304602F066FC3046FFF75E
:10EE1000D3FB002E1DDA864B864993F8E22101329E
:10EE2000D2B2284683F8E22117F0B6FF17F05AFE57
:10EE30000028FBD1344634E6824A804933462846CE
:10EE400017F0B3FF17F04EFE0028FBD1C9E70024EE
:10EE5000CAE709D07C4A79493346284617F0A5FF0E
:10EE600017F040FE0028FBD1012C0FD0231F022BEE
:10EE70000BD87649284617F08BFF17F033FE002891
:10EE8000FBD103F069FE264617E60CB1002614E616
:10EE900026461CE6A4F10803012B3FF62EAE6C4972
:10EEA000284617F075FF17F01DFE0028FBD12046FD
:10EEB00003F0B0FD5A4B674A03F1180E9C461868E0
:10EEC0005968164603C6083373453246F7D11868A9
:10EED00030609B88B380082C2BD104F06FFF5E4913
:10EEE000284617F055FF17F0FDFD0028FBD15B49C0
:10EEF000284617F04DFF17F0F5FD0028FBD15649C5
:10EF0000284617F045FF17F0EDFD0028FBD106F06D
:10EF10009DFE00287FF4ECAD414B514A03F11C01EA
:10EF200053F8040B42F8040B8B42F9D11B88138071
:10EF3000DEE59CF8020005F0BDFD4749284617F0C4
:10EF400027FF17F0CFFD0028FBD14649284617F0D0
:10EF50001FFF17F0C7FD0028FBD13F49284617F0D7
:10EF600017FF17F0BFFD0028FBD1D0E706F06EFEBB
:10EF700000283FF4C5AD3C492246284617F00CFF57
:10EF800017F0B0FD06460028FAD1002C72DA05F021
:10EF90002BFD14F13E0F0BD12046FFF70DFB33493B
:10EFA000284617F0F5FE17F09DFD0028FBD1A7E5D8
:10EFB0000DF107008DF8076014F01EFF4FF4FA639F
:10EFC0009DF80700C8F8003014F046FF14F1170F41
:10EFD000E5D12149284617F0DBFE17F083FD002814
:10EFE000FBD12349284617F0D3FE17F07BFD0028FC
:10EFF000FBD11949284617F0CBFE17F073FD0146E7
:10F000000028FAD1064B1A8802F003021A801A78F7
:10F0100042F040021A70562201F0A4F9BFE700BF87
:10F02000CE980020599B00205A9B00204FD7030008
:10F0300000990020D7F803000DEA0300E9D6030089
:10F040008DD7030019D30300AFD70300D3D7030034
:10F050001DD80300A49A0020BCCE03002FD80300C3
:10F06000869A002042D8030054D8030091D80300A8
:10F0700079D8030005F0AEFC0E4B1B7D302B10D170
:10F08000092C0ED10DF107008DF8076014F0B4FEC5
:10F0900040F2DC539DF80700C8F8003014F0DCFEA5
:10F0A0007DE700230DF107008DF8073014F0A4FE72
:10F0B0006423EFE7809600208FB50AF067FE544C7A
:10F0C000544B5549E41AE408240444F0050420464E
:10F0D00017F05EFE17F006FD0028FBD14F492046D1
:10F0E00017F056FE17F0FEFC0028FBD14C4D4D4E9C
:10F0F0004D4F4E49009733462A46204617F05FFE93
:10F1000017F0F0FC0028FBD14FF080434849D3F8BA
:10F1100000842046424617F03FFE17F0E3FC00282B
:10F12000FBD118F0020F07D04249204617F030FEFD
:10F1300017F0D8FC0028FBD14FF080533E4A3F49DE
:10F14000D3F86090D3F86480204617F025FE17F0BE
:10F15000C9FC0028FBD13A494A46204617F01CFE5C
:10F1600017F0C0FC0028FBD117F0BCFC0028FBD135
:10F1700033494246204617F00FFE17F0B3FC002833
:10F18000FBD13049204617F003FE17F0ABFC0028F6
:10F19000FBD117F0A7FC0028FBD11F49204617F030
:10F1A000F7FD17F09FFC0028FBD1039004F032F923
:10F1B000FDF732FA04F046F902F0CAF90398DFF8D5
:10F1C0006C80DFF88890DFF888A004F05FF903987E
:10F1D000FFF78CFB009733462A464146204617F03E
:10F1E000EEFD17F07FFC0028FBD101234946504675
:10F1F0001A4600F0DFF9FFF7E9FB06F0EBFF1249D2
:10F20000204617F0C5FD17F06DFC0028FBD1E1E7A3
:10F21000D851040078510400BCCE030036D9030055
:10F22000E5090400D0090400DC09040045D9030005
:10F2300058D9030070D9030082D90300E3D003003A
:10F24000A0CF030067D103008BD9030000990020F1
:10F25000809600202DE9F04389B018F065F8C4B21B
:10F26000FF2C01D1002048E08A4D8B4B8B49ED1AD1
:10F27000ED082D0445F005052246284617F08CFDC3
:10F2800017F030FC0028FBD1613C182CEAD801A310
:10F2900053F824F083F4010065F2010009F4010041
:10F2A000F9F201000DF3010011F4010065F2010013
:10F2B00019F40100C1F3010065F201008DF40100B1
:10F2C00065F2010065F2010065F20100FDF3010045
:10F2D00065F201004DF3010065F20100F7F3010052
:10F2E00035F4010001F3010065F2010013F30100A0
:10F2F00065F201002DF40100632009B0BDE8F08340
:10F300000021FC22084601F02DF8ABE701F0BAF924
:10F31000A8E70026624FADF81E60BDF81E303246E9
:10F32000013339462846ADF81E3017F035FD17F089
:10F33000D9FB0028FBD10246014601360DF11E0023
:10F3400001F010F8B6F57A7FE7D18BE7554FDFF87B
:10F350006C81002647F0010732464146284617F0E7
:10F360001BFD17F0BFFB0028FBD1DFF854910446CA
:10F37000304600F02AFF4946025D284617F00CFD92
:10F3800017F0B0FB0028FBD11CB917F0ABFB00282D
:10F39000FBD10134102CEBD14349284617F0F8FC7F
:10F3A00017F0A0FB0028FBD117F09CFB0028FBD135
:10F3B0004FF47A400136B847B6F57A7FCCD151E7A1
:10F3C0003A4A3B49284617F0E7FC17F08BFB002828
:10F3D000FBD117F087FB0028FBD1324C44F001042D
:10F3E000012006F00DF94FF47A754FF47A40A047EA
:10F3F000013DFAD1F4E706F0EDFE33E740F6B8310F
:10F40000012006F0D9FB2DE74FF4FA710220F8E74E
:10F41000032006F08DF925E700244FF4FA73032149
:10F4200000941A4608460CF0D1FD1BE721480BF06A
:10F43000CDF917E70AF0BAFF027805920AF0B6FF95
:10F44000437804930AF0B2FF84780AF0AFFFC678DD
:10F450000AF0ACFF07790AF0A9FF4179DDE904322F
:10F46000CDE90271CDE900461349284617F0D1FCD9
:10F4700017F038FB0028FBD117F034FB0028FBD134
:10F48000F0E601F0FDF800F08DF8EBE600F0AEFEDE
:10F49000E8E600BFD8510400785104009AD903006F
:10F4A000ACD9030010DA030067D1030002DA0300CD
:10F4B00070CF0300CED90300DDD90300C0D903000B
:10F4C000A0CF030070470000024B4FF47A4043F096
:10F4D00001031847B0DF030038B5114C114B124A35
:10F4E0001249E41AE408240444F0050405462046C1
:10F4F00017F052FC17F0F6FA0028FBD117F0F2FAD9
:10F500000028FBD10A492A46204617F045FC17F08F
:10F51000E9FA0028FBD12846BDE8384001F014B9CB
:10F52000D8510400785104000EDF030070CF0300AF
:10F5300016DA030038B5114C114B124A1249E41A7D
:10F54000E408240444F005040546204617F024FC92
:10F5500017F0C8FA0028FBD117F0C4FA0028FBD135
:10F560000A492A46204617F017FC17F0BBFA002874
:10F57000FBD12846BDE8384001F0ECB8D851040072
:10F58000785104002ADF030070CF030016DA03006D
:10F5900010B50C46FFF7A0FF2046BDE81040FFF76E
:10F5A000C9BF000001490248FFF7F2BF00990020DF
:10F5B000809600202DE9F04F87B005460F46059351
:10F5C000002A40F02B81059B002B00F00581844B25
:10F5D000844C854A8549E41AE408240444F005046F
:10F5E0000823204617F0E1FB17F07CFA0028FBD136
:10F5F000DFF808823E46054616F8012F41462046B0
:10F6000017F0CAFB17F06EFA0028FBD1002D00F0AE
:10F6100047850135082DEFD17549204617F0B8FB15
:10F6200017F060FA0028FBD117F05CFA0028FBD134
:10F630007B7C704A7049204617F0B7FB17F052FAEE
:10F640000028FBD117F04EFA0028FBD1DFF8C4A147
:10F65000DFF8C4B107F1120805462B465246594659
:10F660002046EEB217F0A1FB17F03CFA0028FBD1C0
:10F67000814618F809206149204617F08DFB17F0E4
:10F6800031FA0028FBD1B9F1000F00F00F8509F124
:10F690000109B9F1080FECD117F024FA0028FBD1C9
:10F6A0000323B6FBF3F303EB4303F31A13F0FF0F4B
:10F6B00040F00285002D00F002854D49204617F0EC
:10F6C00067FB17F00FFA0028FBD10135FFF7FCFEAE
:10F6D0001E2D08F10808C0D14549204617F058FBF7
:10F6E00017F000FA0028FBD1454A4049082320467C
:10F6F00017F05BFB17F0F6F90028FBD107F20116B3
:10F70000DFF8F890B046054618F8012F4946204624
:10F7100017F042FB17F0E6F90028FBD1002D00F0AE
:10F72000D8840135082DEFD13149204617F030FB40
:10F7300017F0D8F90028FBD117F0D4F90028FBD135
:10F74000304A2A490823204617F02FFB17F0CAF940
:10F750000028FBD1DFF8A480054616F8012F4146AA
:10F76000204617F019FB17F0BDF90028FBD1002D3A
:10F7700000F0B5840135082DEFD11D49204617F062
:10F7800007FB17F0AFF90028FBD117F0ABF9002801
:10F79000FBD197F818311C4A1749204617F005FB92
:10F7A00017F0A0F90028FBD117F09CF90028FBD135
:10F7B00097F819211549204617F0EEFA17F092F93B
:10F7C0000028FBD197F81A211149204617F0E4FAD6
:10F7D00017F088F90028FBD107B0BDE8F08F00BF13
:10F7E00078510400D851040030D2030093CF0300B5
:10F7F00067D10300A2DD030066DA0300A0CF030097
:10F80000C6DD0300CFDD0300D7DD0300EEDD03001E
:10F8100006DE0300B9DD03002CDB0300C54CC64B3C
:10F82000C649E41AE408240400F1F20944F005048E
:10F830004A46204617F0B0FA17F054F90028FBD1D9
:10F84000DFF84883BE4A98F80030BE49204617F0DA
:10F85000ACFA17F047F90028FBD117F043F900285C
:10F86000FBD195F8F220B849204617F095FA17F029
:10F8700039F90028FBD1B54AB549204617F08CFA72
:10F8800017F030F90028FBD1DFF8ECA2064619F892
:10F89000012F5146204617F07FFA17F023F9002870
:10F8A000FBD1002E00F0A1830136032EEFD1A94930
:10F8B000204617F06DFA17F015F90028FBD117F064
:10F8C00011F90028FBD195F8F620A349204617F03E
:10F8D00063FA17F007F90028FBD1AA789F49204660
:10F8E00017F05AFA17F0FEF80028FBD16A789C4905
:10F8F000204617F051FA17F0F5F80028FBD198F8D8
:10F900000330984A8F49204617F04FFA17F0EAF86B
:10F910000028FBD117F0E6F80028FBD195F8F93064
:10F9200095F8F8209049204617F03FFA17F0DAF8DA
:10F930000028FBD12A7D8D49204617F02DFA17F0BB
:10F94000D1F80028FBD18A4A8149204617F024FAD1
:10F9500017F0C8F80028FBD1DFF81C9205F16F08FA
:10F96000064618F8012F4946204617F015FA17F0F9
:10F97000B9F80028FBD1002E00F03C830136082E98
:10F98000EFD17449204617F003FA17F0ABF80028BE
:10F99000FBD117F0A7F80028FBD1DFF8F4B105F18F
:10F9A00078090646734A3346594620465FFA86F878
:10F9B00017F0FBF917F096F80028FBD1824619F8EA
:10F9C0000A206D49204617F0E7F917F08BF8002858
:10F9D000FBD1BAF1000F00F012830AF1010ABAF16B
:10F9E000080FECD117F07EF80028FBD10323B8FBF9
:10F9F000F3F303EB4303A8EB030313F0FF0F40F013
:10FA00000383002E00F003835249204617F0C0F90B
:10FA100017F068F80028FBD10136FFF755FD052ED9
:10FA200009F10809BED14B49204617F0B1F917F08A
:10FA300059F80028FBD1514A4549204617F0ACF946
:10FA400017F050F80028FBD1DFF82C9105F19F0842
:10FA5000064618F8012F4946204617F09DF917F081
:10FA600041F80028FBD1002E00F0DA820136082E82
:10FA7000EFD13849204617F08BF917F033F80028FA
:10FA8000FBD117F02FF80028FBD1DFF804B105F106
:10FA9000A80906463A4A3346594620465FFA86F890
:10FAA00017F083F917F01EF80028FBD1824619F8E9
:10FAB0000A203149204617F06FF917F013F8002893
:10FAC000FBD1BAF1000F00F0B0820AF1010ABAF1DD
:10FAD000060FECD117F006F80028FBD10323B8FB82
:10FAE000F3F303EB4303A8EB030313F0FF0F40F022
:10FAF000A182002E00F0A1821649204617F048F995
:10FB000016F0F0FF0028FBD10136FFF7DDFC072ED1
:10FB100009F10609BED10F49204617F039F916F050
:10FB2000E1FF0028FBD1174A17491823204617F098
:10FB30003CF92FE0D85104007851040033DA030077
:10FB40004FDA030066DA030071DA030084DA030097
:10FB5000E3D0030067D1030093DA0300ABDA0300BC
:10FB6000C5DA0300DBDA0300B6E00300F5DA0300D0
:10FB700012DB030020DB0300A0CF03003DDB03000A
:10FB800048DB030053DB030093CF03008096002083
:10FB90002CDB030016F0A6FF0028FBD1DFF8409312
:10FBA00005F1D908064618F8012F4946204617F0F6
:10FBB000F3F816F097FF0028FBD1002E00F04682E4
:10FBC0000136182EEFD1C249204617F0E1F816F0A1
:10FBD00089FF0028FBD116F085FF0028FBD1BD4A24
:10FBE000BD4992F85B3092F82C20204617F0DDF8E2
:10FBF00016F078FF0028FBD1DFF82CA3DFF8D0B295
:10FC00008046062303FB08564FF0000996F82E2085
:10FC1000019296F82D2000924B46424651462046CE
:10FC200017F0D9F816F05EFF0028FBD109F10109A1
:10FC3000B9F1030F06F10206E8D15946204617F044
:10FC4000A7F816F04FFF0028FBD108F10108B8F122
:10FC5000070FD6D1DFF8D4B205F5807906469F4A62
:10FC60003346594620465FFA86F817F09EF816F09C
:10FC700039FF0028FBD1824619F80A20984920460E
:10FC800017F08AF816F02EFF0028FBD1BAF1000F0A
:10FC900000F0E1810AF1010ABAF1030FECD116F08C
:10FCA00021FF0028FBD10323B8FBF3F303EB43034D
:10FCB000A8EB030313F0FF0F40F0D281002E00F0F9
:10FCC000D2818349204617F063F816F00BFF002815
:10FCD000FBD10136FFF7F8FB092E09F10309BED16C
:10FCE0007B49204617F054F816F0FCFE0028FBD1A3
:10FCF00095F827207B49204617F04EF816F0F2FEC3
:10FD00000028FBD195F826207749204617F044F8C3
:10FD100016F0E8FE0028FBD195F82720734920460D
:10FD200017F03AF816F0DEFE0028FBD195F81B21FB
:10FD30006F49204617F030F816F0D4FE0028FBD1AA
:10FD40006C4A6D49204617F027F816F0CBFE0028C4
:10FD5000FBD1DFF88C9105F21B18064618F8012F2D
:10FD60004946204617F018F816F0BCFE0028FBD1D3
:10FD7000002E00F081810136062EEFD15449204635
:10FD800017F006F816F0AEFE0028FBD116F0AAFE1A
:10FD90000028FBD195F824215849204616F0FCFF95
:10FDA00016F0A0FE0028FBD195F82D31029395F8AE
:10FDB0002C31019395F82B31009395F82A3195F861
:10FDC00029214F49204617F014F816F08BFE002821
:10FDD000FBD1404D4B4A95F8F7304B49204616F081
:10FDE000E4FF16F07FFE0028FBD116F07BFE002812
:10FDF000FBD195F88031454A4349204616F0D5FF9E
:10FE000016F070FE0028FBD116F06CFE0028FBD126
:10FE1000B5F882313E4A3C49204616F0C6FF16F03E
:10FE200061FE0028FBD116F05DFE0028FBD1394AA7
:10FE300039491023204616F0B8FF16F053FE00286B
:10FE4000FBD1364EDFF89880054616F8012B414667
:10FE5000204616F0A1FF16F045FE0028FBD1002D2C
:10FE600000F00F810135102DEFD11949204616F011
:10FE70008FFF16F037FE0028FBD116F033FE002866
:10FE8000FBD1274A24490323204616F08EFF16F0A3
:10FE900029FE0028FBD1234EDFF84480054616F8E2
:10FEA000012B4146204616F077FF16F01BFE002876
:10FEB000FBD1002D00F0EA800135032DEFD104497C
:10FEC000204616F065FF16F00DFE0028FBD12FE04E
:10FED00067D103008096002065DB0300A4DB0300EC
:10FEE000A0CF0300B1DB0300D7DB0300F5DB030089
:10FEF00018DC030031DC0300E3D003003DDC030029
:10FF000051DC0300B9DC030066DA0300D1DC030036
:10FF1000F7DC03001EDD030093CF03000A980020E6
:10FF20002BDD03001A98002085DB03002CDB030087
:10FF300016F0D8FD0028FBD16C4D6D4A95F89D3127
:10FF40006C49204616F031FF16F0CCFD0028FBD19D
:10FF500016F0C8FD0028FBD195F89E31664A654928
:10FF6000204616F022FF16F0BDFD0028FBD116F04A
:10FF7000B9FD0028FBD195F89F31604A5D492046C4
:10FF800016F013FF16F0AEFD0028FBD116F0AAFD07
:10FF90000028FBD15A4A5B491023204616F005FF82
:10FFA00016F0A0FD0028FBD1574EDFF8688105460A
:10FFB00016F8012B4146204616F0EEFE16F092FD93
:10FFC0000028FBD1002D66D00135102DF0D14F490E
:10FFD000204616F0DDFE16F085FD0028FBD116F058
:10FFE00081FD0028FBD1FFF7EEBA16F07BFD00285B
:10FFF000FBD159E416F076FD0028FBD1BEE416F0E3
:020000022000DC
:1000000071FD0028FBD1E8E4042E3FF4FDAC40492B
:10001000204616F0BDFE16F065FD0028FBD1FBE47E
:1000200016F060FD0028FBD120E516F05BFD0028EE
:10003000FBD14AE5062E3FF45FAD3549204616F068
:10004000A7FE16F04FFD0028FBD15DE516F04AFD36
:100050000028FBD1B4E516F045FD0028FBD119E6D8
:10006000082E3FF42EAE2A49204616F091FE16F0D7
:1000700039FD0028FBD12CE616F034FD0028FBD119
:1000800079E616F02FFD0028FBD1EBE616F02AFDED
:100090000028FBD110E716F025FD0028FBD193E7DF
:1000A00016F020FD0028FBD1FFF7B3BA16F01AFDB9
:1000B0000028FBD1FFF7EBBA1D2D3FF4FEAA14492F
:1000C000204616F065FE16F00DFD0028FBD1FFF767
:1000D000FCBA16F007FD0028FBD1FFF722BB16F093
:1000E00001FD0028FBD1FFF745BB00BF8096002033
:1000F00033DD030066DA030056DD030079DD03001B
:1001000097DD030093CF03007B98002067D10300A5
:1001100039DB0300A0CF030010B50C4B0C4A0D498E
:1001200004460D481B1ADB081B0443F0050016F0BB
:1001300033FE16F0D7FC0028FBD116F0D3FC0028C4
:10014000FBD12046BDE8104000F00ABBD8510400A6
:1001500044DF030070CF03007851040000F01CBBA3
:1001600070B500F1F30604460D4603220021304627
:100170000AF0A0FC08B9002070BD0322FF21304620
:100180000AF098FC0028F6D06378013BDBB2FD2B27
:10019000F1D895F84831013BDBB2FD2B88BF002335
:1001A00004F5807488BF85F8483103220021204679
:1001B0000AF080FC0028DED00322FF2120460AF04E
:1001C00079FC003818BF0120D6E700F001BB000021
:1001D000054BD3F83C3183428CBF03F1FF3303F26C
:1001E000E733181A00F0F4BA009900202DE9F0471F
:1001F000434B444C444A4549E41AE408240444F07F
:100200000504204616F0C8FD16F06CFC0028FBD152
:1002100016F068FC0028FBD13D49204616F0B8FDD9
:1002200016F060FC0028FBD13A4B3B49D3F83C2147
:10023000204616F0B1FD16F055FC0028FBD13449DC
:10024000204616F0A5FD16F04DFC0028FBD1DFF886
:10025000D880DFF8D890DFF8D8A00546284600F00F
:10026000B7FA0746B0B92D492A46204616F094FD44
:1002700016F038FC0028FBD10135B5F57A7FEDD1B9
:100280002749204616F084FD16F02CFC0028FBD1EF
:10029000BDE8F087102200210AF00CFC0028E2D013
:1002A0001022FF2138460AF005FC0028DBD02B463F
:1002B00042464946204616F078FD16F013FC002809
:1002C000FBD10646BA5D5146204616F065FD16F094
:1002D00009FC0028FBD11EB916F004FC0028FBD154
:1002E0000136102EEED10F49204616F051FD16F0C2
:1002F000F9FB0028FBD116F0F5FB0028FBD1BBE78A
:1003000078510400D85104005EDF030070CF030071
:10031000BCCE03000099002028DE03004ADE030063
:1003200061DE030067D10300BDD203002CDB0300B4
:10033000A0CF030038B50A4D044601460622681CCA
:100340001AF0B0FF0722A11DA8181AF0ABFF637BBB
:100350002B70A37BAB73E37BEB73284638BD00BFE8
:10036000082F00202DE9FF416A4C6B4BE41AE4088A
:10037000240444F0050407460D4616466749684ABA
:10038000204616F009FD16F0ADFB0028FBD116F053
:10039000A9FB0028FBD163493246204616F0FCFC3D
:1003A00016F0A0FB01460028FAD1102268461AF088
:1003B00087FFFEF783FA0622014668461AF072FFAD
:1003C0002FB1022239460DF10D001AF06BFF2DB14D
:1003D000072229460DF106001AF064FF524DD5F8A8
:1003E0003C31B3F57A7F24BF0023C5F83C31D5F802
:1003F0004031D5F83C11002E08BFFF26B3F57A7FB7
:1004000038BF0133684638BFC5F840318DF80F60FA
:1004100000F0EDF9D5F83C31444A4549204616F044
:10042000C4FC16F05FFB0028FBD1DFF818816F4693
:10043000064617F8012B4146204616F0ADFC16F093
:1004400051FB0028FBD11EB916F04CFB0028FBD154
:100450000136102EEDD13749204616F099FC16F0E2
:1004600041FB0028FBD116F03DFB0028FBD1D5F85D
:100470003C0100F0ADF9D5F83C312F4A2C49074634
:10048000204616F092FC16F02DFB06460028FAD105
:10049000DFF8B080BA5D4146204616F07DFC16F0CC
:1004A00021FB0028FBD11EB916F01CFB0028FBD154
:1004B0000136102EEED11F49204616F069FC16F0C9
:1004C00011FB0028FBD116F00DFB0028FBD11022F8
:1004D000694638461AF0D8FE38B11849204616F059
:1004E00057FC16F0FFFA0028FBD1D5F83C3114492F
:1004F0000133B3F57A7F28BF00232046C5F83C318D
:1005000016F046FC16F0EEFA0028FBD104B0BDE868
:10051000F08100BFD85104007851040070CF03006F
:1005200082DF030078DE03000099002090DE0300E4
:100530002CDB030067D103009CDE0300A7DE030071
:10054000BBDE0300A0CF03002DE9FF47414C424B27
:100550000190E41AE408240444F005043F4A4049A9
:10056000204616F019FC16F0BDFA0028FBD116F053
:10057000B9FA0028FBD1DFF8FC90DFF8FCA0DFF827
:10058000FC8005462846FFF723FE102307464A460F
:100590005146204616F009FC16F0A4FA064600283B
:1005A000FAD1BA5D4146204616F0F6FB16F09AFAEB
:1005B0000028FBD11EB916F095FA0028FBD10136B0
:1005C000102EEED12749204616F0E2FB16F08AFAEB
:1005D0000028FBD116F086FA0028FBD1FA7BFE2A10
:1005E00032D021492B46204616F0DFFB16F07AFA6E
:1005F0000028FBD11D49204616F0CAFB16F072FAFE
:100600000028FBD11A49204616F0C2FB16F06AFA00
:100610000028FBD11549204616F0BAFB16F062FA05
:1006200004460028FAD1082201460DEB02001AF018
:1006300047FE01A9022202A81AF034FEFE2202A9F6
:100640002046FFF78FFE02E00135052D9AD104B058
:10065000BDE8F087D85104007851040072DF030030
:1006600070CF030067D10300D8DE0300BCCE0300C7
:10067000FCDE0300CDDE030093CF0300A0CF030018
:1006800000F0B2B810B50B4C40F24E22FF212046CC
:100690001AF016FE2046084C00F07EF820464FF473
:1006A0000672FF211AF00CFE2046BDE81040FFF74D
:1006B00033BD00BF80960020009900200149024808
:1006C00000F0AEB800990020809600201748184B23
:1006D000184A1949C01AC008000410B540F00500B6
:1006E00016F05AFB16F0FEF90028FBD116F0FAF9C5
:1006F00004460028FAD10146202210481AF0E0FDF5
:100700002022FF210E481AF0DBFD00F075F80D4B9A
:10071000D3F840210132D3F83C2108BFC3F840414F
:10072000013204BF0022C3F83C2110BDD85104009F
:100730007851040098DF030070CF0300389B00203D
:10074000189B002000990020014640F24E22002014
:100750000AF03FBE01464FF4067201200AF039BE8E
:1007600010B50C4904464FF4067201200AF031FE20
:1007700008494FF4067220461AF086FD40B1012365
:1007800021464FF40672BDE8104018460AF024BE18
:1007900010BD00BF402F002010B50C49044640F2A8
:1007A0004E2200200AF015FE084940F24E22204653
:1007B0001AF06AFD40B121460123BDE8104040F225
:1007C0004E2200200AF008BE10BD00BF402F0020BE
:1007D00010B5044C0146224602200AF032FE2046A3
:1007E00010BD00BF202F002000200AF02CBE0246C2
:1007F000002302200AF020BE08B5012240F24E215B
:1008000000200AF024FE012210464FF406710AF07F
:100810001EFEBDE8084001221C2103200AF017BE7D
:1008200070B58EB01C2205460C46684600211AF0B1
:1008300047FD2B4B1A88ADF800209B788DF80230CD
:100840001C224FF4067340F24E260DEB02000021ED
:10085000CDE901631AF034FD102122480AF05AF95B
:100860002049024603A81AF01DFD0122314600204E
:100870000AF0EBFD324620B3002128461AF020FD95
:10088000012210464FF406710AF0DFFD4FF40672A4
:10089000D8B1002120461AF013FD4FF47A721021CE
:1008A00002200AF0D2FD01221C2103200AF0CDFD16
:1008B0001C2278B100210DEB02001AF001FD0EB0F0
:1008C00070BD29460AF085FDDAE7214601200AF0CD
:1008D00080FDE2E70DEB020103200AF07AFDEEE76E
:1008E000B6DF0300100A0400F7B509F05FFD064605
:1008F000002004F085FE022825D0304602F0C0F921
:100900000546304602F064FBA842074628BF2F4642
:100910007B1C04461AD0694638460AF041FC304632
:100920000AF0D0FBB84211D80A4BAC422CBF0124CC
:1009300002240DF1020083F83041C3F82C7109F054
:1009400075FF03B0F0BD4FF0FF35DAE709F0A0FF07
:10095000F7E700BF0099002007F05ABB07F05EBB25
:10096000F7B5284F284C0DF1070000268DF80760D9
:1009700013F042FA3D889DF8070005F0010513F0D9
:100980006BFA55B33B7866F300033B7094F8303153
:100990000BB9002016E009F009FD05460AF092FBAC
:1009A000D4F82C319842F4D194F83031C4F82C6149
:1009B000012B09D1A87902F001FA144A137843F007
:1009C0001003137003B0F0BD022B16D102F054FBDC
:1009D0000E4A137843F00803F3E794F83031002B04
:1009E000D7D009F0E3FC0AF06DFBD4F82C31984223
:1009F000CFD394F83031C4F82C51042BC9D102F074
:100A000089FBC6E7609D002000990020CE98002059
:100A10002DE9F8430E46174601462A222648274C60
:100A200098461AF03FFC264B264A2749E41AE40868
:100A3000240444F005040423204616F0B6F916F009
:100A400051F80028FBD1DFF890900546725D4946C9
:100A5000204616F0A1F916F045F80028FBD11DB983
:100A600016F040F80028FBD10135042DEED11749CE
:100A7000204616F08DF916F035F80028FBD116F057
:100A800031F804460028FAD10422114831461AF000
:100A900009FC104BB8F1310F06BF012283F85B202F
:100AA00083F85B40312F02BF93F85B2042F00202D3
:100AB00083F85B20BDE8F883AD960020D851040090
:100AC00078510400B9DF030093CF030067D103001E
:100AD000D796002080960020A0CF030070B50A4D65
:100AE000044600F114060822002128461AF0E8FB0B
:100AF00021462846042204341AF0D4FBB44205F1FE
:100B00000805F0D170BD00BFF8960020C84000F085
:100B1000010070472DE9F0411A4B1B4D1B4A1C493F
:100B2000ED1AED082D0445F005050646284616F099
:100B300033F915F0D7FF0028FBD115F0D3FF0028BB
:100B4000FBD114493246284616F026F915F0CAFFA3
:100B500004460028FAD1104FDFF8408026FA04F34B
:100B6000DB070AD557F8243022464146284616F0BE
:100B70001CF915F0B7FF0028FBD101341C2CEDD176
:100B8000BDE8F08178510400D8510400E4E203008C
:100B900070CF0300C4DF030074E20300D9DF030059
:100BA000830704D54B7B13B1014A82F8F2307047BA
:100BB000809600202DE9F043C40342BF904B0A7A8F
:100BC0009A70904C904BE41A0746E4082404F80706
:100BD0008DB00D4644F0050439D48C4A8C4920462A
:100BE00016F0DAF815F07EFF06460028FAD1DFF895
:100BF0004482AA5D4146204616F0CEF815F072FFF9
:100C00000028FBD1002E32D00136042EF1D18149CB
:100C1000204616F0BDF815F065FF0028FBD115F051
:100C200061FF0028FBD128460AF04EF820BB05F1F1
:100C30002C094946784804221AF034FB79064DD431
:100C4000FB05C7F300205DD40DB0BDE8F0836C4B0D
:100C500000221A70CA79497A197520466F495A706C
:100C600016F09AF815F03EFF0028FBD1B5E715F015
:100C700039FF0028FBD1C7E7BA07D8D50422294697
:100C800067481AF00FFB674A6149204616F084F85E
:100C900015F028FF06460028FAD1DFF89881AA5DF2
:100CA0004146204616F078F815F01CFF0028FBD1CD
:100CB0007EB10136042EF2D15649204616F068F86E
:100CC00015F010FF0028FBD115F00CFF0028FBD118
:100CD000ADE715F007FF0028FBD1EAE7484E2B7C73
:100CE00086F8FF3005F1110806F58076414630465A
:100CF000032208F103081AF0D5FAC14506F10306EC
:100D0000F4D19DE70A3504220021284609F0D2FEDD
:100D1000002873D00422FF21284609F0CBFE0028CA
:100D20006CD0414A414928460AF01CF93F49082243
:100D300008A81AF0B7FA3C4906220AA81AF0B2FA33
:100D40000E22002108A809F0B5FE002856D00E2278
:100D5000FF2108A809F0AEFE00284FD0082208A9FC
:100D600003A81AF09FFA06220AA901A81AF09AFA13
:100D700006220DF10E0105A81AF094FA062201A927
:100D80000DF11A001AF08EFA294A2149204616F070
:100D900003F815F0A7FE0028FBD1264F05AE054647
:100DA00016F8012B3946204615F0F6FF15F09AFE8D
:100DB0000028FBD1EDB101350C2DF1D115492046AC
:100DC00015F0E6FF15F08EFE0028FBD115F08AFE27
:100DD0000028FBD105A809F0F9FC01280ED016491E
:100DE000204615F0D5FF15F07DFE0028FBD101202F
:100DF0002AE715F077FE0028FBD1DCE7002023E787
:100E000080960020D851040078510400EFDF0300E1
:100E1000E3D0030067D1030020970020FCDF03002C
:100E20007397002012E00300F49D0020E49D002051
:100E30001EE00300A0CF030029E003002DE9F743E3
:100E40005A4B5B4CE41AE4082404030307460E469D
:100E500044F005047DD4FD074AD5564D96F824206C
:100E60005549EA70204615F097FF15F03BFE002823
:100E7000FBD16B78093B012B3AD8CDE9000006F194
:100E800022010222684609F03EFF0146002800F0D8
:100E900083804A48042269461AF004FA484A4949BC
:100EA0000423204615F081FF15F01CFE054600289E
:100EB000FAD1DFF80881DFF8249118F8012B4946B0
:100EC000204615F069FF15F00DFE0028FBD1002D1E
:100ED00067D00135042DF0D13B49204615F058FF6D
:100EE00015F000FE0028FBD115F0FCFD0028FBD119
:100EF000380242BF2F4B96F8252083F8892196F8B7
:100F000026203249204615F047FF15F0EBFD00285A
:100F1000FBD1284B96F826209A75B90144BF96F864
:100F2000272083F82E217A0110D596F82A2083F8FD
:100F30004C224FF44052DA84254B302283F814229D
:100F4000312283F81821002283F8302103B0BDE854
:100F5000F083088C174D09F037FE09F08FFE1D490C
:100F6000A5F88201204615F013FF15F0BBFD0028FF
:100F7000FBD1B5F882211849204615F00DFF15F078
:100F8000B1FD0028FBD11349204615F001FF15F0F3
:100F9000A9FD0028FBD15EE7082208481AF090F965
:100FA0007CE715F09FFD0028FBD192E77851040003
:100FB000D8510400809600204EE0030040980020A5
:100FC00061E0030093CF030067D103006DE00300ED
:100FD00000990020BCCE030034E00300A0CF030042
:100FE0000348FF2180F82C1030222D301AF068B908
:100FF00080960020030610B50C461AD50D4A0E48FF
:1010000091F82F300D49801AC00800041A4640F0AC
:10101000050015F0CAFE15F065FD0028FBD194F817
:101020002F3004F12A0120461A46BDE81040FFF790
:10103000EFBC10BD78510400D851040085E00300D6
:1010400038B5174B174A184904461848C01AC00843
:10105000000440F0050015F09FFE15F043FD002848
:10106000FBD115F03FFD01460028FAD104F110052F
:101070000322284609F01EFD88B10322FF212846DD
:1010800009F018FD58B10A4B204604F1340250F81B
:10109000041B43F8041B9042F9D102881A8038BD22
:1010A00078510400F7E2030070CF0300D851040028
:1010B0000A98002008B503F0C5FC034B00225A74BF
:1010C00083F8E22108BD00BF00990020C10708B5E0
:1010D000034605D4820703D45B06C0F3801003D512
:1010E000FFF7E8FF012008BD064A074B82F82600FB
:1010F0003022A3F8180183F81A0183F8300183F82D
:101100001422F0E78096002000990020F8B54305EE
:1011100005460C4609D50822002165481AF0D0F88A
:101120006348042221461AF0BDF8AF0502D5201D00
:10113000FFF7D4FCAE0614D5082200215D481AF052
:10114000BFF804F119015B48032209F0DCFD0146F8
:1011500018B9584806221AF0B3F8574B227E83F884
:101160001B21680742BF544B227F83F8F7202906D2
:1011700042BF514B627F83F82C202A071AD54F4B70
:101180004F4894F820204F49C01AC008000494F832
:101190002B3040F0050015F008FE15F0A3FC0028E8
:1011A000FBD1454B94F8202083F8F82094F82B20AD
:1011B00083F8F92015F4804F3F4E1CBF94F821307E
:1011C00073752B0405D594F8220009F04EFD86F8BE
:1011D000FE000023EF06A6F82A31A6F82C312AD506
:1011E00094F8233086F8263094F82530344F86F86A
:1011F0002730324B3449FF1AFF083F0447F00507F8
:10120000384615F0C5FD15F06DFC0028FBD196F8A9
:10121000273096F826202D49384615F0C6FD15F0E2
:1012200061FC0028FBD12849384615F0B1FD15F0C6
:1012300059FC0028FBD196F82600002833D1002362
:1012400086F82630224B00222805A3F8182183F8BF
:101250001A2183F8502113D51948184B94F82720E8
:101260001C49C01AC008000440F0050015F094FDA8
:1012700015F038FC0028FBD194F8273086F824318B
:10128000A90244BF94F82C3086F83E312A0344BFAB
:1012900094F82D3086F88031EB0244BF94F82E305C
:1012A00086F88831F8BD09F023FD0028C7D0C9E7CA
:1012B000F09600209C970020809600207851040032
:1012C000D8510400B0E00300BCCE0300D3E003001B
:1012D000009900203DDC030038B583020C4620D580
:1012E000104D11F8013B85F83F310F2205F5A07034
:1012F00019F0D8FF237C85F84F3104F111010F223A
:1013000005F5A87019F0CEFF94F8203085F85F310C
:1013100004F1210105F5B0700F22BDE8384019F045
:10132000C1BF38BD8096002030B5474B474D484A75
:101330004849ED1AED082D0445F00505044687B02F
:10134000284615F029FD15F0CDFB0028FBD115F03E
:10135000C9FB01460028FAD10722204609F0AAFB62
:10136000F0B10722FF21204609F0A4FBC0B1A37908
:1013700003936379029323790193E378009362786E
:10138000A3783549284615F044FD15F0ABFB00283D
:10139000FBD115F0A7FB0028FBD1601C09F0EAF88F
:1013A000237A312B08D12D4B94F8242083F8262062
:1013B00094F8252083F82720637A312B08D1274B16
:1013C00094F8232083F82A2194F8272083F82C21ED
:1013D000A37AA3F13102012A15D8204D032204F18A
:1013E000200104A885F81B3109F08DFC58B10822B2
:1013F000002105F58E7019F063FF062204A905F59A
:101400008E7019F04FFFE37A312B03D104F10C00F9
:10141000FFF764FB94F82830312B02BF0F4B94F890
:10142000292083F82B2194F82B30312B02BF0B4B52
:1014300094F82C209A7094F82A3013B1074A82F855
:10144000243107B030BD00BF78510400D8510400EA
:101450000DE3030070CF0300DDD903008096002068
:101460000378312B02BF094B427883F82921837816
:10147000312B02BF054BC27883F83E210379312B13
:1014800002BF024B427983F8F72070478096002014
:10149000054B312283F82C2090F82F3001461A4654
:1014A0002A31FFF7B5BA00BF8096002008B507F0D3
:1014B000B1F920F00203042B04BF024A82F838314C
:1014C00008BD00BF00990020F8B5002B38BF0023ED
:1014D0001D461D4B5B78092B06460F461BD00A2B79
:1014E00022D0082B2CD12B4602F09AFF041E1DDBC4
:1014F000052C14D1012E0CBF0222032205F120007D
:101500003946FEF72FFF114B204683F8386100F073
:10151000E3F82046F8BD2B4602F004FDE6E7012E75
:101520000CBF01220422E9E74FF0FF34204600F00F
:10153000D3F81D22394605F12000FEF713FFE8E736
:101540004FF0FF34E5E700BF8096002000990020AF
:1015500010B54E4B4E4C4F49E41AE408240444F0B5
:101560000504204615F014FC15F0BCFA0028FBD148
:101570004949204615F00CFC15F0B4FA0028FBD1BF
:10158000464A4749204615F007FC15F0ABFA0028FB
:10159000FBD1444A4249204615F0FEFB15F0A2FA61
:1015A0000028FBD1404A3E49204615F0F5FB15F0D6
:1015B00099FA0028FBD13D4A3949204615F0ECFB49
:1015C00015F090FA0028FBD1394A3549204615F02C
:1015D000E3FB15F087FA0028FBD1364A3049204654
:1015E00015F0DAFB15F07EFA0028FBD1324A2C49BF
:1015F000204615F0D1FB15F075FA0028FBD12F4AD3
:101600002749204615F0C8FB15F06CFA0028FBD1DD
:101610002B4A2349204615F0BFFB15F063FA00283A
:10162000FBD1284A1E49204615F0B6FB15F05AFAA0
:101630000028FBD1244A1A49204615F0ADFB15F0CD
:1016400051FA0028FBD1214A1549204615F0A4FB88
:1016500015F048FA0028FBD11D4A1149204615F023
:101660009BFB15F03FFA0028FBD11A49204615F0E4
:101670008FFB15F037FA0028FBD10649204615F0FC
:1016800087FB15F02FFA0028FBD110BD785104001C
:10169000D8510400BCCE03002EE3030019D303008D
:1016A00044E3030048E3030054E3030063E303005F
:1016B0006DE303007AE303008FE303009AE3030082
:1016C000AAE30300C2E30300D6E30300E8E3030058
:1016D000FEE3030066D1030008B50246A8B10B483B
:1016E0000B4B1B1ADB081B0443F0050002F14903F6
:1016F000AC2B96BF0749084B51F82330074915F02A
:1017000054FB15F0EFF90028FBD108BD7851040017
:10171000D8510400C8EB03000EE4030016E40300F4
:10172000144B1A6832B11A68312A8ABF1A6800222B
:10173000323A1A60104B19686FF0704291423EBF06
:101740001A6832321A600D4B1A6832B11A68312A9F
:101750008ABF1A680022323A1A60094B1A68312A85
:101760001A6802D9323A1A607047002AFCD0002267
:10177000F9E700BFCC310020C8310020A0310020A3
:10178000A431002013B5002304460DF107008DF8A5
:10179000073012F031FB064B9DF807001A686434DD
:1017A000944288BF1C6012F057FB02B010BD00BF0E
:1017B000CC31002013B500240DF107008DF807404F
:1017C00012F01AFB114B9DF807001C60104B41F200
:1017D00088321A6012F040FB0E4A0F48012111F0C6
:1017E00097FF024638B1082803D00C4A812111F036
:1017F000CFFE02B010BD0A4840F2666111F0A4FFAE
:101800000028F6D0054A8B21F1E700BFC83100203F
:10181000CC3100202117020098EE03007CEE03007B
:10182000A831002008B5074811F0B0FF30F00803D8
:1018300003D0054A982111F0ABFEBDE808400AF03C
:1018400017BC00BFA83100207CEE0300704703786E
:10185000012B1CBF0323037070470000024B0322BF
:101860009A705A701A707047589B00207047000099
:1018700038B50C46054601461022204609F0C5F948
:10188000A0B90B480B4B0C491B1ADB081B0443F097
:10189000050015F07DFA15F025F90028FBD1294641
:1018A00020460822BDE8384019F0FCBC38BD00BF16
:1018B00078510400D85104009CEE030070B59D1DC2
:1018C000ECB2013352FA85F55370D1700323611ED7
:1018D00002261670907005F8023C002353545418E9
:1018E00001238B4201DB104670BDD05C25780133AB
:1018F00068402070DBB2F4E770B5122206460C4651
:101900001748174D002119F0DBFCECB915490222EC
:10191000281D19F0C7FCFCF7BFFF1349A87102226C
:10192000124809F0F0F920B910480422302119F0CA
:10193000C7FC31460A4A0C234D20FFF7BFFFBDE824
:1019400070401221FBF794B8012C02D10849022201
:10195000DEE7022C0BBF0749074922460222D7E7E0
:10196000609B00208BEB030074970020679B002096
:101970004E1D040000E10300BAEE030070B50A4DED
:1019800004460E4611220021284619F099FC2146F2
:101990002A460B234D202E71FFF790FFBDE87040C3
:1019A0001121FAF7B1BF00BF609B0020062807B5E0
:1019B00009D0152807D0062301210DF107008DF865
:1019C0000730FBF755F803B05DF804FB2DE9F04F45
:1019D000254B264C264AE41AE408240444F0050466
:1019E00006460D468BB02349204615F0D5F915F073
:1019F00079F80028FBD115F075F80028FBD1F778AD
:101A000096F802803846FFF7D1FFB8F16D0F40F02D
:101A100007862946304601F095FB002800F0048631
:101A2000154A1449204615F0B7F915F05BF800285F
:101A3000FBD115F057F80028FBD110493A46204653
:101A400015F0AAF915F04EF801460028FAD16F2FCB
:101A500000F0F082722F13D0662F00F085850546C6
:101A600028460BB0BDE8F08F78510400D85104002F
:101A700069F0030070CF030058F00300BDEE0300CF
:101A800001F03CF80290002800F0D1851022311DB1
:101A9000B54819F007FCB54AB549204615F07CF960
:101AA00015F020F80028FBD1AF4EB24F054616F8CE
:101AB000012B3946204615F06FF915F013F8002870
:101AC000FBD11DB915F00EF80028FBD10135102D02
